{
	"SimpleStorage.sol": {
		"SimpleStorage": {
			"abi": [
				{
					"inputs": [],
					"name": "calculate",
					"outputs": [
						{
							"internalType": "int256",
							"name": "",
							"type": "int256"
						}
					],
					"stateMutability": "pure",
					"type": "function"
				},
				{
					"inputs": [],
					"name": "daniel",
					"outputs": [
						{
							"internalType": "string",
							"name": "name",
							"type": "string"
						},
						{
							"internalType": "uint256",
							"name": "age",
							"type": "uint256"
						}
					],
					"stateMutability": "view",
					"type": "function"
				},
				{
					"inputs": [],
					"name": "erazo",
					"outputs": [
						{
							"internalType": "string",
							"name": "name",
							"type": "string"
						},
						{
							"internalType": "uint256",
							"name": "age",
							"type": "uint256"
						}
					],
					"stateMutability": "view",
					"type": "function"
				},
				{
					"inputs": [],
					"name": "favoriteNumber",
					"outputs": [
						{
							"internalType": "uint64",
							"name": "",
							"type": "uint64"
						}
					],
					"stateMutability": "view",
					"type": "function"
				},
				{
					"inputs": [],
					"name": "getStore",
					"outputs": [
						{
							"internalType": "uint64",
							"name": "",
							"type": "uint64"
						}
					],
					"stateMutability": "view",
					"type": "function"
				},
				{
					"inputs": [
						{
							"internalType": "string",
							"name": "",
							"type": "string"
						}
					],
					"name": "nameToAge",
					"outputs": [
						{
							"internalType": "uint256",
							"name": "",
							"type": "uint256"
						}
					],
					"stateMutability": "view",
					"type": "function"
				},
				{
					"inputs": [
						{
							"internalType": "uint256",
							"name": "",
							"type": "uint256"
						}
					],
					"name": "persons",
					"outputs": [
						{
							"internalType": "string",
							"name": "name",
							"type": "string"
						},
						{
							"internalType": "uint256",
							"name": "age",
							"type": "uint256"
						}
					],
					"stateMutability": "view",
					"type": "function"
				},
				{
					"inputs": [
						{
							"internalType": "string",
							"name": "_name",
							"type": "string"
						},
						{
							"internalType": "uint256",
							"name": "_age",
							"type": "uint256"
						}
					],
					"name": "pushPerson",
					"outputs": [],
					"stateMutability": "nonpayable",
					"type": "function"
				},
				{
					"inputs": [
						{
							"internalType": "uint64",
							"name": "_favoriteNumber",
							"type": "uint64"
						}
					],
					"name": "store",
					"outputs": [],
					"stateMutability": "nonpayable",
					"type": "function"
				}
			],
			"devdoc": {
				"kind": "dev",
				"methods": {},
				"version": 1
			},
			"evm": {
				"assembly": "    /* \"SimpleStorage.sol\":58:1141  contract SimpleStorage {... */\n  mstore(0x40, 0x80)\n    /* \"SimpleStorage.sol\":312:332  Person(\"daniel\", 10) */\n  mload(0x40)\n  dup1\n  0x40\n  add\n  0x40\n  mstore\n  dup1\n  mload(0x40)\n  dup1\n  0x40\n  add\n  0x40\n  mstore\n  dup1\n  0x06\n  dup2\n  mstore\n  0x20\n  add\n  0x64616e69656c0000000000000000000000000000000000000000000000000000\n  dup2\n  mstore\n  pop\n  dup2\n  mstore\n  0x20\n  add\n    /* \"SimpleStorage.sol\":329:331  10 */\n  0x0a\n    /* \"SimpleStorage.sol\":312:332  Person(\"daniel\", 10) */\n  dup2\n  mstore\n  pop\n    /* \"SimpleStorage.sol\":289:332  Person public daniel = Person(\"daniel\", 10) */\n  0x01\n  0x00\n  dup3\n  add\n  mload\n  dup2\n  0x00\n  add\n  swap1\n  dup2\n  tag_1\n  swap2\n  swap1\n  tag_2\n  jump\t// in\ntag_1:\n  pop\n  0x20\n  dup3\n  add\n  mload\n  dup2\n  0x01\n  add\n  sstore\n  pop\n  pop\n    /* \"SimpleStorage.sol\":361:380  Person(\"erazo\", 42) */\n  mload(0x40)\n  dup1\n  0x40\n  add\n  0x40\n  mstore\n  dup1\n  mload(0x40)\n  dup1\n  0x40\n  add\n  0x40\n  mstore\n  dup1\n  0x05\n  dup2\n  mstore\n  0x20\n  add\n  0x6572617a6f000000000000000000000000000000000000000000000000000000\n  dup2\n  mstore\n  pop\n  dup2\n  mstore\n  0x20\n  add\n    /* \"SimpleStorage.sol\":377:379  42 */\n  0x2a\n    /* \"SimpleStorage.sol\":361:380  Person(\"erazo\", 42) */\n  dup2\n  mstore\n  pop\n    /* \"SimpleStorage.sol\":339:380  Person public erazo = Person(\"erazo\", 42) */\n  0x03\n  0x00\n  dup3\n  add\n  mload\n  dup2\n  0x00\n  add\n  swap1\n  dup2\n  tag_3\n  swap2\n  swap1\n  tag_2\n  jump\t// in\ntag_3:\n  pop\n  0x20\n  dup3\n  add\n  mload\n  dup2\n  0x01\n  add\n  sstore\n  pop\n  pop\n    /* \"SimpleStorage.sol\":58:1141  contract SimpleStorage {... */\n  callvalue\n  dup1\n  iszero\n  tag_4\n  jumpi\n  revert(0x00, 0x00)\ntag_4:\n  pop\n  jump(tag_5)\n    /* \"#utility.yul\":7:106   */\ntag_6:\n    /* \"#utility.yul\":59:65   */\n  0x00\n    /* \"#utility.yul\":93:98   */\n  dup2\n    /* \"#utility.yul\":87:99   */\n  mload\n    /* \"#utility.yul\":77:99   */\n  swap1\n  pop\n    /* \"#utility.yul\":7:106   */\n  swap2\n  swap1\n  pop\n  jump\t// out\n    /* \"#utility.yul\":112:292   */\ntag_7:\n    /* \"#utility.yul\":160:237   */\n  0x4e487b7100000000000000000000000000000000000000000000000000000000\n    /* \"#utility.yul\":157:158   */\n  0x00\n    /* \"#utility.yul\":150:238   */\n  mstore\n    /* \"#utility.yul\":257:261   */\n  0x41\n    /* \"#utility.yul\":254:255   */\n  0x04\n    /* \"#utility.yul\":247:262   */\n  mstore\n    /* \"#utility.yul\":281:285   */\n  0x24\n    /* \"#utility.yul\":278:279   */\n  0x00\n    /* \"#utility.yul\":271:286   */\n  revert\n    /* \"#utility.yul\":298:478   */\ntag_8:\n    /* \"#utility.yul\":346:423   */\n  0x4e487b7100000000000000000000000000000000000000000000000000000000\n    /* \"#utility.yul\":343:344   */\n  0x00\n    /* \"#utility.yul\":336:424   */\n  mstore\n    /* \"#utility.yul\":443:447   */\n  0x22\n    /* \"#utility.yul\":440:441   */\n  0x04\n    /* \"#utility.yul\":433:448   */\n  mstore\n    /* \"#utility.yul\":467:471   */\n  0x24\n    /* \"#utility.yul\":464:465   */\n  0x00\n    /* \"#utility.yul\":457:472   */\n  revert\n    /* \"#utility.yul\":484:804   */\ntag_9:\n    /* \"#utility.yul\":528:534   */\n  0x00\n    /* \"#utility.yul\":565:566   */\n  0x02\n    /* \"#utility.yul\":559:563   */\n  dup3\n    /* \"#utility.yul\":555:567   */\n  div\n    /* \"#utility.yul\":545:567   */\n  swap1\n  pop\n    /* \"#utility.yul\":612:613   */\n  0x01\n    /* \"#utility.yul\":606:610   */\n  dup3\n    /* \"#utility.yul\":602:614   */\n  and\n    /* \"#utility.yul\":633:651   */\n  dup1\n    /* \"#utility.yul\":623:704   */\n  tag_31\n  jumpi\n    /* \"#utility.yul\":689:693   */\n  0x7f\n    /* \"#utility.yul\":681:687   */\n  dup3\n    /* \"#utility.yul\":677:694   */\n  and\n    /* \"#utility.yul\":667:694   */\n  swap2\n  pop\n    /* \"#utility.yul\":623:704   */\ntag_31:\n    /* \"#utility.yul\":751:753   */\n  0x20\n    /* \"#utility.yul\":743:749   */\n  dup3\n    /* \"#utility.yul\":740:754   */\n  lt\n    /* \"#utility.yul\":720:738   */\n  dup2\n    /* \"#utility.yul\":717:755   */\n  sub\n    /* \"#utility.yul\":714:798   */\n  tag_32\n  jumpi\n    /* \"#utility.yul\":770:788   */\n  tag_33\n  tag_8\n  jump\t// in\ntag_33:\n    /* \"#utility.yul\":714:798   */\ntag_32:\n    /* \"#utility.yul\":535:804   */\n  pop\n    /* \"#utility.yul\":484:804   */\n  swap2\n  swap1\n  pop\n  jump\t// out\n    /* \"#utility.yul\":810:951   */\ntag_10:\n    /* \"#utility.yul\":859:863   */\n  0x00\n    /* \"#utility.yul\":882:885   */\n  dup2\n    /* \"#utility.yul\":874:885   */\n  swap1\n  pop\n    /* \"#utility.yul\":905:908   */\n  dup2\n    /* \"#utility.yul\":902:903   */\n  0x00\n    /* \"#utility.yul\":895:909   */\n  mstore\n    /* \"#utility.yul\":939:943   */\n  0x20\n    /* \"#utility.yul\":936:937   */\n  0x00\n    /* \"#utility.yul\":926:944   */\n  keccak256\n    /* \"#utility.yul\":918:944   */\n  swap1\n  pop\n    /* \"#utility.yul\":810:951   */\n  swap2\n  swap1\n  pop\n  jump\t// out\n    /* \"#utility.yul\":957:1050   */\ntag_11:\n    /* \"#utility.yul\":994:1000   */\n  0x00\n    /* \"#utility.yul\":1041:1043   */\n  0x20\n    /* \"#utility.yul\":1036:1038   */\n  0x1f\n    /* \"#utility.yul\":1029:1034   */\n  dup4\n    /* \"#utility.yul\":1025:1039   */\n  add\n    /* \"#utility.yul\":1021:1044   */\n  div\n    /* \"#utility.yul\":1011:1044   */\n  swap1\n  pop\n    /* \"#utility.yul\":957:1050   */\n  swap2\n  swap1\n  pop\n  jump\t// out\n    /* \"#utility.yul\":1056:1163   */\ntag_12:\n    /* \"#utility.yul\":1100:1108   */\n  0x00\n    /* \"#utility.yul\":1150:1155   */\n  dup3\n    /* \"#utility.yul\":1144:1148   */\n  dup3\n    /* \"#utility.yul\":1140:1156   */\n  shl\n    /* \"#utility.yul\":1119:1156   */\n  swap1\n  pop\n    /* \"#utility.yul\":1056:1163   */\n  swap3\n  swap2\n  pop\n  pop\n  jump\t// out\n    /* \"#utility.yul\":1169:1562   */\ntag_13:\n    /* \"#utility.yul\":1238:1244   */\n  0x00\n    /* \"#utility.yul\":1288:1289   */\n  0x08\n    /* \"#utility.yul\":1276:1286   */\n  dup4\n    /* \"#utility.yul\":1272:1290   */\n  mul\n    /* \"#utility.yul\":1311:1408   */\n  tag_38\n    /* \"#utility.yul\":1341:1407   */\n  0xffffffffffffffffffffffffffffffffffffffffffffffffffffffffffffffff\n    /* \"#utility.yul\":1330:1339   */\n  dup3\n    /* \"#utility.yul\":1311:1408   */\n  tag_12\n  jump\t// in\ntag_38:\n    /* \"#utility.yul\":1429:1468   */\n  tag_39\n    /* \"#utility.yul\":1459:1467   */\n  dup7\n    /* \"#utility.yul\":1448:1457   */\n  dup4\n    /* \"#utility.yul\":1429:1468   */\n  tag_12\n  jump\t// in\ntag_39:\n    /* \"#utility.yul\":1417:1468   */\n  swap6\n  pop\n    /* \"#utility.yul\":1501:1505   */\n  dup1\n    /* \"#utility.yul\":1497:1506   */\n  not\n    /* \"#utility.yul\":1490:1495   */\n  dup5\n    /* \"#utility.yul\":1486:1507   */\n  and\n    /* \"#utility.yul\":1477:1507   */\n  swap4\n  pop\n    /* \"#utility.yul\":1550:1554   */\n  dup1\n    /* \"#utility.yul\":1540:1548   */\n  dup7\n    /* \"#utility.yul\":1536:1555   */\n  and\n    /* \"#utility.yul\":1529:1534   */\n  dup5\n    /* \"#utility.yul\":1526:1556   */\n  or\n    /* \"#utility.yul\":1516:1556   */\n  swap3\n  pop\n    /* \"#utility.yul\":1245:1562   */\n  pop\n  pop\n    /* \"#utility.yul\":1169:1562   */\n  swap4\n  swap3\n  pop\n  pop\n  pop\n  jump\t// out\n    /* \"#utility.yul\":1568:1645   */\ntag_14:\n    /* \"#utility.yul\":1605:1612   */\n  0x00\n    /* \"#utility.yul\":1634:1639   */\n  dup2\n    /* \"#utility.yul\":1623:1639   */\n  swap1\n  pop\n    /* \"#utility.yul\":1568:1645   */\n  swap2\n  swap1\n  pop\n  jump\t// out\n    /* \"#utility.yul\":1651:1711   */\ntag_15:\n    /* \"#utility.yul\":1679:1682   */\n  0x00\n    /* \"#utility.yul\":1700:1705   */\n  dup2\n    /* \"#utility.yul\":1693:1705   */\n  swap1\n  pop\n    /* \"#utility.yul\":1651:1711   */\n  swap2\n  swap1\n  pop\n  jump\t// out\n    /* \"#utility.yul\":1717:1859   */\ntag_16:\n    /* \"#utility.yul\":1767:1776   */\n  0x00\n    /* \"#utility.yul\":1800:1853   */\n  tag_43\n    /* \"#utility.yul\":1818:1852   */\n  tag_44\n    /* \"#utility.yul\":1827:1851   */\n  tag_45\n    /* \"#utility.yul\":1845:1850   */\n  dup5\n    /* \"#utility.yul\":1827:1851   */\n  tag_14\n  jump\t// in\ntag_45:\n    /* \"#utility.yul\":1818:1852   */\n  tag_15\n  jump\t// in\ntag_44:\n    /* \"#utility.yul\":1800:1853   */\n  tag_14\n  jump\t// in\ntag_43:\n    /* \"#utility.yul\":1787:1853   */\n  swap1\n  pop\n    /* \"#utility.yul\":1717:1859   */\n  swap2\n  swap1\n  pop\n  jump\t// out\n    /* \"#utility.yul\":1865:1940   */\ntag_17:\n    /* \"#utility.yul\":1908:1911   */\n  0x00\n    /* \"#utility.yul\":1929:1934   */\n  dup2\n    /* \"#utility.yul\":1922:1934   */\n  swap1\n  pop\n    /* \"#utility.yul\":1865:1940   */\n  swap2\n  swap1\n  pop\n  jump\t// out\n    /* \"#utility.yul\":1946:2215   */\ntag_18:\n    /* \"#utility.yul\":2056:2095   */\n  tag_48\n    /* \"#utility.yul\":2087:2094   */\n  dup4\n    /* \"#utility.yul\":2056:2095   */\n  tag_16\n  jump\t// in\ntag_48:\n    /* \"#utility.yul\":2117:2208   */\n  tag_49\n    /* \"#utility.yul\":2166:2207   */\n  tag_50\n    /* \"#utility.yul\":2190:2206   */\n  dup3\n    /* \"#utility.yul\":2166:2207   */\n  tag_17\n  jump\t// in\ntag_50:\n    /* \"#utility.yul\":2158:2164   */\n  dup5\n    /* \"#utility.yul\":2151:2155   */\n  dup5\n    /* \"#utility.yul\":2145:2156   */\n  sload\n    /* \"#utility.yul\":2117:2208   */\n  tag_13\n  jump\t// in\ntag_49:\n    /* \"#utility.yul\":2111:2115   */\n  dup3\n    /* \"#utility.yul\":2104:2209   */\n  sstore\n    /* \"#utility.yul\":2022:2215   */\n  pop\n    /* \"#utility.yul\":1946:2215   */\n  pop\n  pop\n  pop\n  jump\t// out\n    /* \"#utility.yul\":2221:2294   */\ntag_19:\n    /* \"#utility.yul\":2266:2269   */\n  0x00\n    /* \"#utility.yul\":2287:2288   */\n  0x00\n    /* \"#utility.yul\":2280:2288   */\n  swap1\n  pop\n    /* \"#utility.yul\":2221:2294   */\n  swap1\n  jump\t// out\n    /* \"#utility.yul\":2300:2489   */\ntag_20:\n    /* \"#utility.yul\":2377:2409   */\n  tag_53\n  tag_19\n  jump\t// in\ntag_53:\n    /* \"#utility.yul\":2418:2483   */\n  tag_54\n    /* \"#utility.yul\":2476:2482   */\n  dup2\n    /* \"#utility.yul\":2468:2474   */\n  dup5\n    /* \"#utility.yul\":2462:2466   */\n  dup5\n    /* \"#utility.yul\":2418:2483   */\n  tag_18\n  jump\t// in\ntag_54:\n    /* \"#utility.yul\":2353:2489   */\n  pop\n    /* \"#utility.yul\":2300:2489   */\n  pop\n  pop\n  jump\t// out\n    /* \"#utility.yul\":2495:2681   */\ntag_21:\n    /* \"#utility.yul\":2555:2675   */\ntag_56:\n    /* \"#utility.yul\":2572:2575   */\n  dup2\n    /* \"#utility.yul\":2565:2570   */\n  dup2\n    /* \"#utility.yul\":2562:2576   */\n  lt\n    /* \"#utility.yul\":2555:2675   */\n  iszero\n  tag_58\n  jumpi\n    /* \"#utility.yul\":2626:2665   */\n  tag_59\n    /* \"#utility.yul\":2663:2664   */\n  0x00\n    /* \"#utility.yul\":2656:2661   */\n  dup3\n    /* \"#utility.yul\":2626:2665   */\n  tag_20\n  jump\t// in\ntag_59:\n    /* \"#utility.yul\":2599:2600   */\n  0x01\n    /* \"#utility.yul\":2592:2597   */\n  dup2\n    /* \"#utility.yul\":2588:2601   */\n  add\n    /* \"#utility.yul\":2579:2601   */\n  swap1\n  pop\n    /* \"#utility.yul\":2555:2675   */\n  jump(tag_56)\ntag_58:\n    /* \"#utility.yul\":2495:2681   */\n  pop\n  pop\n  jump\t// out\n    /* \"#utility.yul\":2687:3230   */\ntag_22:\n    /* \"#utility.yul\":2788:2790   */\n  0x1f\n    /* \"#utility.yul\":2783:2786   */\n  dup3\n    /* \"#utility.yul\":2780:2791   */\n  gt\n    /* \"#utility.yul\":2777:3223   */\n  iszero\n  tag_61\n  jumpi\n    /* \"#utility.yul\":2822:2860   */\n  tag_62\n    /* \"#utility.yul\":2854:2859   */\n  dup2\n    /* \"#utility.yul\":2822:2860   */\n  tag_10\n  jump\t// in\ntag_62:\n    /* \"#utility.yul\":2906:2935   */\n  tag_63\n    /* \"#utility.yul\":2924:2934   */\n  dup5\n    /* \"#utility.yul\":2906:2935   */\n  tag_11\n  jump\t// in\ntag_63:\n    /* \"#utility.yul\":2896:2904   */\n  dup2\n    /* \"#utility.yul\":2892:2936   */\n  add\n    /* \"#utility.yul\":3089:3091   */\n  0x20\n    /* \"#utility.yul\":3077:3087   */\n  dup6\n    /* \"#utility.yul\":3074:3092   */\n  lt\n    /* \"#utility.yul\":3071:3120   */\n  iszero\n  tag_64\n  jumpi\n    /* \"#utility.yul\":3110:3118   */\n  dup2\n    /* \"#utility.yul\":3095:3118   */\n  swap1\n  pop\n    /* \"#utility.yul\":3071:3120   */\ntag_64:\n    /* \"#utility.yul\":3133:3213   */\n  tag_65\n    /* \"#utility.yul\":3189:3211   */\n  tag_66\n    /* \"#utility.yul\":3207:3210   */\n  dup6\n    /* \"#utility.yul\":3189:3211   */\n  tag_11\n  jump\t// in\ntag_66:\n    /* \"#utility.yul\":3179:3187   */\n  dup4\n    /* \"#utility.yul\":3175:3212   */\n  add\n    /* \"#utility.yul\":3162:3173   */\n  dup3\n    /* \"#utility.yul\":3133:3213   */\n  tag_21\n  jump\t// in\ntag_65:\n    /* \"#utility.yul\":2792:3223   */\n  pop\n  pop\n    /* \"#utility.yul\":2777:3223   */\ntag_61:\n    /* \"#utility.yul\":2687:3230   */\n  pop\n  pop\n  pop\n  jump\t// out\n    /* \"#utility.yul\":3236:3353   */\ntag_23:\n    /* \"#utility.yul\":3290:3298   */\n  0x00\n    /* \"#utility.yul\":3340:3345   */\n  dup3\n    /* \"#utility.yul\":3334:3338   */\n  dup3\n    /* \"#utility.yul\":3330:3346   */\n  shr\n    /* \"#utility.yul\":3309:3346   */\n  swap1\n  pop\n    /* \"#utility.yul\":3236:3353   */\n  swap3\n  swap2\n  pop\n  pop\n  jump\t// out\n    /* \"#utility.yul\":3359:3528   */\ntag_24:\n    /* \"#utility.yul\":3403:3409   */\n  0x00\n    /* \"#utility.yul\":3436:3487   */\n  tag_69\n    /* \"#utility.yul\":3484:3485   */\n  0x00\n    /* \"#utility.yul\":3480:3486   */\n  not\n    /* \"#utility.yul\":3472:3477   */\n  dup5\n    /* \"#utility.yul\":3469:3470   */\n  0x08\n    /* \"#utility.yul\":3465:3478   */\n  mul\n    /* \"#utility.yul\":3436:3487   */\n  tag_23\n  jump\t// in\ntag_69:\n    /* \"#utility.yul\":3432:3488   */\n  not\n    /* \"#utility.yul\":3517:3521   */\n  dup1\n    /* \"#utility.yul\":3511:3515   */\n  dup4\n    /* \"#utility.yul\":3507:3522   */\n  and\n    /* \"#utility.yul\":3497:3522   */\n  swap2\n  pop\n    /* \"#utility.yul\":3410:3528   */\n  pop\n    /* \"#utility.yul\":3359:3528   */\n  swap3\n  swap2\n  pop\n  pop\n  jump\t// out\n    /* \"#utility.yul\":3533:3828   */\ntag_25:\n    /* \"#utility.yul\":3609:3613   */\n  0x00\n    /* \"#utility.yul\":3755:3784   */\n  tag_71\n    /* \"#utility.yul\":3780:3783   */\n  dup4\n    /* \"#utility.yul\":3774:3778   */\n  dup4\n    /* \"#utility.yul\":3755:3784   */\n  tag_24\n  jump\t// in\ntag_71:\n    /* \"#utility.yul\":3747:3784   */\n  swap2\n  pop\n    /* \"#utility.yul\":3817:3820   */\n  dup3\n    /* \"#utility.yul\":3814:3815   */\n  0x02\n    /* \"#utility.yul\":3810:3821   */\n  mul\n    /* \"#utility.yul\":3804:3808   */\n  dup3\n    /* \"#utility.yul\":3801:3822   */\n  or\n    /* \"#utility.yul\":3793:3822   */\n  swap1\n  pop\n    /* \"#utility.yul\":3533:3828   */\n  swap3\n  swap2\n  pop\n  pop\n  jump\t// out\n    /* \"#utility.yul\":3833:5228   */\ntag_2:\n    /* \"#utility.yul\":3950:3987   */\n  tag_73\n    /* \"#utility.yul\":3983:3986   */\n  dup3\n    /* \"#utility.yul\":3950:3987   */\n  tag_6\n  jump\t// in\ntag_73:\n    /* \"#utility.yul\":4052:4070   */\n  0xffffffffffffffff\n    /* \"#utility.yul\":4044:4050   */\n  dup2\n    /* \"#utility.yul\":4041:4071   */\n  gt\n    /* \"#utility.yul\":4038:4094   */\n  iszero\n  tag_74\n  jumpi\n    /* \"#utility.yul\":4074:4092   */\n  tag_75\n  tag_7\n  jump\t// in\ntag_75:\n    /* \"#utility.yul\":4038:4094   */\ntag_74:\n    /* \"#utility.yul\":4118:4156   */\n  tag_76\n    /* \"#utility.yul\":4150:4154   */\n  dup3\n    /* \"#utility.yul\":4144:4155   */\n  sload\n    /* \"#utility.yul\":4118:4156   */\n  tag_9\n  jump\t// in\ntag_76:\n    /* \"#utility.yul\":4203:4270   */\n  tag_77\n    /* \"#utility.yul\":4263:4269   */\n  dup3\n    /* \"#utility.yul\":4255:4261   */\n  dup3\n    /* \"#utility.yul\":4249:4253   */\n  dup6\n    /* \"#utility.yul\":4203:4270   */\n  tag_22\n  jump\t// in\ntag_77:\n    /* \"#utility.yul\":4297:4298   */\n  0x00\n    /* \"#utility.yul\":4321:4325   */\n  0x20\n    /* \"#utility.yul\":4308:4325   */\n  swap1\n  pop\n    /* \"#utility.yul\":4353:4355   */\n  0x1f\n    /* \"#utility.yul\":4345:4351   */\n  dup4\n    /* \"#utility.yul\":4342:4356   */\n  gt\n    /* \"#utility.yul\":4370:4371   */\n  0x01\n    /* \"#utility.yul\":4365:4983   */\n  dup2\n  eq\n  tag_79\n  jumpi\n    /* \"#utility.yul\":5027:5028   */\n  0x00\n    /* \"#utility.yul\":5044:5050   */\n  dup5\n    /* \"#utility.yul\":5041:5118   */\n  iszero\n  tag_80\n  jumpi\n    /* \"#utility.yul\":5093:5102   */\n  dup3\n    /* \"#utility.yul\":5088:5091   */\n  dup8\n    /* \"#utility.yul\":5084:5103   */\n  add\n    /* \"#utility.yul\":5078:5104   */\n  mload\n    /* \"#utility.yul\":5069:5104   */\n  swap1\n  pop\n    /* \"#utility.yul\":5041:5118   */\ntag_80:\n    /* \"#utility.yul\":5144:5211   */\n  tag_81\n    /* \"#utility.yul\":5204:5210   */\n  dup6\n    /* \"#utility.yul\":5197:5202   */\n  dup3\n    /* \"#utility.yul\":5144:5211   */\n  tag_25\n  jump\t// in\ntag_81:\n    /* \"#utility.yul\":5138:5142   */\n  dup7\n    /* \"#utility.yul\":5131:5212   */\n  sstore\n    /* \"#utility.yul\":5000:5222   */\n  pop\n    /* \"#utility.yul\":4335:5222   */\n  jump(tag_78)\n    /* \"#utility.yul\":4365:4983   */\ntag_79:\n    /* \"#utility.yul\":4417:4421   */\n  0x1f\n    /* \"#utility.yul\":4413:4422   */\n  not\n    /* \"#utility.yul\":4405:4411   */\n  dup5\n    /* \"#utility.yul\":4401:4423   */\n  and\n    /* \"#utility.yul\":4451:4488   */\n  tag_82\n    /* \"#utility.yul\":4483:4487   */\n  dup7\n    /* \"#utility.yul\":4451:4488   */\n  tag_10\n  jump\t// in\ntag_82:\n    /* \"#utility.yul\":4510:4511   */\n  0x00\n    /* \"#utility.yul\":4524:4732   */\ntag_83:\n    /* \"#utility.yul\":4538:4545   */\n  dup3\n    /* \"#utility.yul\":4535:4536   */\n  dup2\n    /* \"#utility.yul\":4532:4546   */\n  lt\n    /* \"#utility.yul\":4524:4732   */\n  iszero\n  tag_85\n  jumpi\n    /* \"#utility.yul\":4617:4626   */\n  dup5\n    /* \"#utility.yul\":4612:4615   */\n  dup10\n    /* \"#utility.yul\":4608:4627   */\n  add\n    /* \"#utility.yul\":4602:4628   */\n  mload\n    /* \"#utility.yul\":4594:4600   */\n  dup3\n    /* \"#utility.yul\":4587:4629   */\n  sstore\n    /* \"#utility.yul\":4668:4669   */\n  0x01\n    /* \"#utility.yul\":4660:4666   */\n  dup3\n    /* \"#utility.yul\":4656:4670   */\n  add\n    /* \"#utility.yul\":4646:4670   */\n  swap2\n  pop\n    /* \"#utility.yul\":4715:4717   */\n  0x20\n    /* \"#utility.yul\":4704:4713   */\n  dup6\n    /* \"#utility.yul\":4700:4718   */\n  add\n    /* \"#utility.yul\":4687:4718   */\n  swap5\n  pop\n    /* \"#utility.yul\":4561:4565   */\n  0x20\n    /* \"#utility.yul\":4558:4559   */\n  dup2\n    /* \"#utility.yul\":4554:4566   */\n  add\n    /* \"#utility.yul\":4549:4566   */\n  swap1\n  pop\n    /* \"#utility.yul\":4524:4732   */\n  jump(tag_83)\ntag_85:\n    /* \"#utility.yul\":4760:4766   */\n  dup7\n    /* \"#utility.yul\":4751:4758   */\n  dup4\n    /* \"#utility.yul\":4748:4767   */\n  lt\n    /* \"#utility.yul\":4745:4924   */\n  iszero\n  tag_86\n  jumpi\n    /* \"#utility.yul\":4818:4827   */\n  dup5\n    /* \"#utility.yul\":4813:4816   */\n  dup10\n    /* \"#utility.yul\":4809:4828   */\n  add\n    /* \"#utility.yul\":4803:4829   */\n  mload\n    /* \"#utility.yul\":4861:4909   */\n  tag_87\n    /* \"#utility.yul\":4903:4907   */\n  0x1f\n    /* \"#utility.yul\":4895:4901   */\n  dup10\n    /* \"#utility.yul\":4891:4908   */\n  and\n    /* \"#utility.yul\":4880:4889   */\n  dup3\n    /* \"#utility.yul\":4861:4909   */\n  tag_24\n  jump\t// in\ntag_87:\n    /* \"#utility.yul\":4853:4859   */\n  dup4\n    /* \"#utility.yul\":4846:4910   */\n  sstore\n    /* \"#utility.yul\":4768:4924   */\n  pop\n    /* \"#utility.yul\":4745:4924   */\ntag_86:\n    /* \"#utility.yul\":4970:4971   */\n  0x01\n    /* \"#utility.yul\":4966:4967   */\n  0x02\n    /* \"#utility.yul\":4958:4964   */\n  dup9\n    /* \"#utility.yul\":4954:4968   */\n  mul\n    /* \"#utility.yul\":4950:4972   */\n  add\n    /* \"#utility.yul\":4944:4948   */\n  dup9\n    /* \"#utility.yul\":4937:4973   */\n  sstore\n    /* \"#utility.yul\":4372:4983   */\n  pop\n  pop\n  pop\n    /* \"#utility.yul\":4335:5222   */\ntag_78:\n  pop\n    /* \"#utility.yul\":3925:5228   */\n  pop\n  pop\n  pop\n    /* \"#utility.yul\":3833:5228   */\n  pop\n  pop\n  jump\t// out\n    /* \"SimpleStorage.sol\":58:1141  contract SimpleStorage {... */\ntag_5:\n  dataSize(sub_0)\n  dup1\n  dataOffset(sub_0)\n  0x00\n  codecopy\n  0x00\n  return\nstop\n\nsub_0: assembly {\n        /* \"SimpleStorage.sol\":58:1141  contract SimpleStorage {... */\n      mstore(0x40, 0x80)\n      callvalue\n      dup1\n      iszero\n      tag_1\n      jumpi\n      revert(0x00, 0x00)\n    tag_1:\n      pop\n      jumpi(tag_2, lt(calldatasize, 0x04))\n      shr(0xe0, calldataload(0x00))\n      dup1\n      0x90c3ee4d\n      gt\n      tag_12\n      jumpi\n      dup1\n      0x90c3ee4d\n      eq\n      tag_7\n      jumpi\n      dup1\n      0xa2f9eac6\n      eq\n      tag_8\n      jumpi\n      dup1\n      0xc2722ecc\n      eq\n      tag_9\n      jumpi\n      dup1\n      0xca77ab65\n      eq\n      tag_10\n      jumpi\n      dup1\n      0xcce3c857\n      eq\n      tag_11\n      jumpi\n      jump(tag_2)\n    tag_12:\n      dup1\n      0x1d9a3bdd\n      eq\n      tag_3\n      jumpi\n      dup1\n      0x29ef62f0\n      eq\n      tag_4\n      jumpi\n      dup1\n      0x471f7cdf\n      eq\n      tag_5\n      jumpi\n      dup1\n      0x5d0f9a88\n      eq\n      tag_6\n      jumpi\n    tag_2:\n      revert(0x00, 0x00)\n        /* \"SimpleStorage.sol\":122:217  function store(uint64 _favoriteNumber) public {... */\n    tag_3:\n      tag_13\n      0x04\n      dup1\n      calldatasize\n      sub\n      dup2\n      add\n      swap1\n      tag_14\n      swap2\n      swap1\n      tag_15\n      jump\t// in\n    tag_14:\n      tag_16\n      jump\t// in\n    tag_13:\n      stop\n        /* \"SimpleStorage.sol\":339:380  Person public erazo = Person(\"erazo\", 42) */\n    tag_4:\n      tag_17\n      tag_18\n      jump\t// in\n    tag_17:\n      mload(0x40)\n      tag_19\n      swap3\n      swap2\n      swap1\n      tag_20\n      jump\t// in\n    tag_19:\n      mload(0x40)\n      dup1\n      swap2\n      sub\n      swap1\n      return\n        /* \"SimpleStorage.sol\":87:115  uint64 public favoriteNumber */\n    tag_5:\n      tag_21\n      tag_22\n      jump\t// in\n    tag_21:\n      mload(0x40)\n      tag_23\n      swap2\n      swap1\n      tag_24\n      jump\t// in\n    tag_23:\n      mload(0x40)\n      dup1\n      swap2\n      sub\n      swap1\n      return\n        /* \"SimpleStorage.sol\":947:1089  function pushPerson(string memory _name, uint _age) public {... */\n    tag_6:\n      tag_25\n      0x04\n      dup1\n      calldatasize\n      sub\n      dup2\n      add\n      swap1\n      tag_26\n      swap2\n      swap1\n      tag_27\n      jump\t// in\n    tag_26:\n      tag_28\n      jump\t// in\n    tag_25:\n      stop\n        /* \"SimpleStorage.sol\":1096:1137  mapping (string => uint) public nameToAge */\n    tag_7:\n      tag_29\n      0x04\n      dup1\n      calldatasize\n      sub\n      dup2\n      add\n      swap1\n      tag_30\n      swap2\n      swap1\n      tag_31\n      jump\t// in\n    tag_30:\n      tag_32\n      jump\t// in\n    tag_29:\n      mload(0x40)\n      tag_33\n      swap2\n      swap1\n      tag_34\n      jump\t// in\n    tag_33:\n      mload(0x40)\n      dup1\n      swap2\n      sub\n      swap1\n      return\n        /* \"SimpleStorage.sol\":725:749  Person[] public  persons */\n    tag_8:\n      tag_35\n      0x04\n      dup1\n      calldatasize\n      sub\n      dup2\n      add\n      swap1\n      tag_36\n      swap2\n      swap1\n      tag_37\n      jump\t// in\n    tag_36:\n      tag_38\n      jump\t// in\n    tag_35:\n      mload(0x40)\n      tag_39\n      swap3\n      swap2\n      swap1\n      tag_20\n      jump\t// in\n    tag_39:\n      mload(0x40)\n      dup1\n      swap2\n      sub\n      swap1\n      return\n        /* \"SimpleStorage.sol\":500:586  function getStore() public view returns(uint64) {... */\n    tag_9:\n      tag_40\n      tag_41\n      jump\t// in\n    tag_40:\n      mload(0x40)\n      tag_42\n      swap2\n      swap1\n      tag_24\n      jump\t// in\n    tag_42:\n      mload(0x40)\n      dup1\n      swap2\n      sub\n      swap1\n      return\n        /* \"SimpleStorage.sol\":642:719  function calculate() public pure returns(int) {... */\n    tag_10:\n      tag_43\n      tag_44\n      jump\t// in\n    tag_43:\n      mload(0x40)\n      tag_45\n      swap2\n      swap1\n      tag_46\n      jump\t// in\n    tag_45:\n      mload(0x40)\n      dup1\n      swap2\n      sub\n      swap1\n      return\n        /* \"SimpleStorage.sol\":289:332  Person public daniel = Person(\"daniel\", 10) */\n    tag_11:\n      tag_47\n      tag_48\n      jump\t// in\n    tag_47:\n      mload(0x40)\n      tag_49\n      swap3\n      swap2\n      swap1\n      tag_20\n      jump\t// in\n    tag_49:\n      mload(0x40)\n      dup1\n      swap2\n      sub\n      swap1\n      return\n        /* \"SimpleStorage.sol\":122:217  function store(uint64 _favoriteNumber) public {... */\n    tag_16:\n        /* \"SimpleStorage.sol\":195:210  _favoriteNumber */\n      dup1\n        /* \"SimpleStorage.sol\":178:192  favoriteNumber */\n      0x00\n      0x00\n        /* \"SimpleStorage.sol\":178:210  favoriteNumber = _favoriteNumber */\n      0x0100\n      exp\n      dup2\n      sload\n      dup2\n      0xffffffffffffffff\n      mul\n      not\n      and\n      swap1\n      dup4\n      0xffffffffffffffff\n      and\n      mul\n      or\n      swap1\n      sstore\n      pop\n        /* \"SimpleStorage.sol\":122:217  function store(uint64 _favoriteNumber) public {... */\n      pop\n      jump\t// out\n        /* \"SimpleStorage.sol\":339:380  Person public erazo = Person(\"erazo\", 42) */\n    tag_18:\n      0x03\n      dup1\n      0x00\n      add\n      dup1\n      sload\n      tag_51\n      swap1\n      tag_52\n      jump\t// in\n    tag_51:\n      dup1\n      0x1f\n      add\n      0x20\n      dup1\n      swap2\n      div\n      mul\n      0x20\n      add\n      mload(0x40)\n      swap1\n      dup2\n      add\n      0x40\n      mstore\n      dup1\n      swap3\n      swap2\n      swap1\n      dup2\n      dup2\n      mstore\n      0x20\n      add\n      dup3\n      dup1\n      sload\n      tag_53\n      swap1\n      tag_52\n      jump\t// in\n    tag_53:\n      dup1\n      iszero\n      tag_54\n      jumpi\n      dup1\n      0x1f\n      lt\n      tag_55\n      jumpi\n      0x0100\n      dup1\n      dup4\n      sload\n      div\n      mul\n      dup4\n      mstore\n      swap2\n      0x20\n      add\n      swap2\n      jump(tag_54)\n    tag_55:\n      dup3\n      add\n      swap2\n      swap1\n      0x00\n      mstore\n      keccak256(0x00, 0x20)\n      swap1\n    tag_56:\n      dup2\n      sload\n      dup2\n      mstore\n      swap1\n      0x01\n      add\n      swap1\n      0x20\n      add\n      dup1\n      dup4\n      gt\n      tag_56\n      jumpi\n      dup3\n      swap1\n      sub\n      0x1f\n      and\n      dup3\n      add\n      swap2\n    tag_54:\n      pop\n      pop\n      pop\n      pop\n      pop\n      swap1\n      dup1\n      0x01\n      add\n      sload\n      swap1\n      pop\n      dup3\n      jump\t// out\n        /* \"SimpleStorage.sol\":87:115  uint64 public favoriteNumber */\n    tag_22:\n      0x00\n      0x00\n      swap1\n      sload\n      swap1\n      0x0100\n      exp\n      swap1\n      div\n      0xffffffffffffffff\n      and\n      dup2\n      jump\t// out\n        /* \"SimpleStorage.sol\":947:1089  function pushPerson(string memory _name, uint _age) public {... */\n    tag_28:\n        /* \"SimpleStorage.sol\":1016:1023  persons */\n      0x05\n        /* \"SimpleStorage.sol\":1029:1048  Person(_name, _age) */\n      mload(0x40)\n      dup1\n      0x40\n      add\n      0x40\n      mstore\n      dup1\n        /* \"SimpleStorage.sol\":1036:1041  _name */\n      dup5\n        /* \"SimpleStorage.sol\":1029:1048  Person(_name, _age) */\n      dup2\n      mstore\n      0x20\n      add\n        /* \"SimpleStorage.sol\":1043:1047  _age */\n      dup4\n        /* \"SimpleStorage.sol\":1029:1048  Person(_name, _age) */\n      dup2\n      mstore\n      pop\n        /* \"SimpleStorage.sol\":1016:1049  persons.push(Person(_name, _age)) */\n      swap1\n      dup1\n      0x01\n      dup2\n      sload\n      add\n      dup1\n      dup3\n      sstore\n      dup1\n      swap2\n      pop\n      pop\n      0x01\n      swap1\n      sub\n      swap1\n      0x00\n      mstore\n      keccak256(0x00, 0x20)\n      swap1\n      0x02\n      mul\n      add\n      0x00\n      swap1\n      swap2\n      swap1\n      swap2\n      swap1\n      swap2\n      pop\n      0x00\n      dup3\n      add\n      mload\n      dup2\n      0x00\n      add\n      swap1\n      dup2\n      tag_59\n      swap2\n      swap1\n      tag_60\n      jump\t// in\n    tag_59:\n      pop\n      0x20\n      dup3\n      add\n      mload\n      dup2\n      0x01\n      add\n      sstore\n      pop\n      pop\n        /* \"SimpleStorage.sol\":1078:1082  _age */\n      dup1\n        /* \"SimpleStorage.sol\":1059:1068  nameToAge */\n      0x06\n        /* \"SimpleStorage.sol\":1069:1074  _name */\n      dup4\n        /* \"SimpleStorage.sol\":1059:1075  nameToAge[_name] */\n      mload(0x40)\n      tag_61\n      swap2\n      swap1\n      tag_62\n      jump\t// in\n    tag_61:\n      swap1\n      dup2\n      mstore\n      0x20\n      add\n      mload(0x40)\n      dup1\n      swap2\n      sub\n      swap1\n      keccak256\n        /* \"SimpleStorage.sol\":1059:1082  nameToAge[_name] = _age */\n      dup2\n      swap1\n      sstore\n      pop\n        /* \"SimpleStorage.sol\":947:1089  function pushPerson(string memory _name, uint _age) public {... */\n      pop\n      pop\n      jump\t// out\n        /* \"SimpleStorage.sol\":1096:1137  mapping (string => uint) public nameToAge */\n    tag_32:\n      0x06\n      dup2\n      dup1\n      mload\n      0x20\n      dup2\n      add\n      dup3\n      add\n      dup1\n      mload\n      dup5\n      dup3\n      mstore\n      0x20\n      dup4\n      add\n      0x20\n      dup6\n      add\n      keccak256\n      dup2\n      dup4\n      mstore\n      dup1\n      swap6\n      pop\n      pop\n      pop\n      pop\n      pop\n      pop\n      0x00\n      swap2\n      pop\n      swap1\n      pop\n      sload\n      dup2\n      jump\t// out\n        /* \"SimpleStorage.sol\":725:749  Person[] public  persons */\n    tag_38:\n      0x05\n      dup2\n      dup2\n      sload\n      dup2\n      lt\n      tag_63\n      jumpi\n      0x00\n      dup1\n      revert\n    tag_63:\n      swap1\n      0x00\n      mstore\n      keccak256(0x00, 0x20)\n      swap1\n      0x02\n      mul\n      add\n      0x00\n      swap2\n      pop\n      swap1\n      pop\n      dup1\n      0x00\n      add\n      dup1\n      sload\n      tag_65\n      swap1\n      tag_52\n      jump\t// in\n    tag_65:\n      dup1\n      0x1f\n      add\n      0x20\n      dup1\n      swap2\n      div\n      mul\n      0x20\n      add\n      mload(0x40)\n      swap1\n      dup2\n      add\n      0x40\n      mstore\n      dup1\n      swap3\n      swap2\n      swap1\n      dup2\n      dup2\n      mstore\n      0x20\n      add\n      dup3\n      dup1\n      sload\n      tag_66\n      swap1\n      tag_52\n      jump\t// in\n    tag_66:\n      dup1\n      iszero\n      tag_67\n      jumpi\n      dup1\n      0x1f\n      lt\n      tag_68\n      jumpi\n      0x0100\n      dup1\n      dup4\n      sload\n      div\n      mul\n      dup4\n      mstore\n      swap2\n      0x20\n      add\n      swap2\n      jump(tag_67)\n    tag_68:\n      dup3\n      add\n      swap2\n      swap1\n      0x00\n      mstore\n      keccak256(0x00, 0x20)\n      swap1\n    tag_69:\n      dup2\n      sload\n      dup2\n      mstore\n      swap1\n      0x01\n      add\n      swap1\n      0x20\n      add\n      dup1\n      dup4\n      gt\n      tag_69\n      jumpi\n      dup3\n      swap1\n      sub\n      0x1f\n      and\n      dup3\n      add\n      swap2\n    tag_67:\n      pop\n      pop\n      pop\n      pop\n      pop\n      swap1\n      dup1\n      0x01\n      add\n      sload\n      swap1\n      pop\n      dup3\n      jump\t// out\n        /* \"SimpleStorage.sol\":500:586  function getStore() public view returns(uint64) {... */\n    tag_41:\n        /* \"SimpleStorage.sol\":540:546  uint64 */\n      0x00\n        /* \"SimpleStorage.sol\":565:579  favoriteNumber */\n      0x00\n      0x00\n      swap1\n      sload\n      swap1\n      0x0100\n      exp\n      swap1\n      div\n      0xffffffffffffffff\n      and\n        /* \"SimpleStorage.sol\":558:579  return favoriteNumber */\n      swap1\n      pop\n        /* \"SimpleStorage.sol\":500:586  function getStore() public view returns(uint64) {... */\n      swap1\n      jump\t// out\n        /* \"SimpleStorage.sol\":642:719  function calculate() public pure returns(int) {... */\n    tag_44:\n        /* \"SimpleStorage.sol\":683:686  int */\n      0x00\n        /* \"SimpleStorage.sol\":705:712  10 * 10 */\n      0x64\n        /* \"SimpleStorage.sol\":698:712  return 10 * 10 */\n      swap1\n      pop\n        /* \"SimpleStorage.sol\":642:719  function calculate() public pure returns(int) {... */\n      swap1\n      jump\t// out\n        /* \"SimpleStorage.sol\":289:332  Person public daniel = Person(\"daniel\", 10) */\n    tag_48:\n      0x01\n      dup1\n      0x00\n      add\n      dup1\n      sload\n      tag_72\n      swap1\n      tag_52\n      jump\t// in\n    tag_72:\n      dup1\n      0x1f\n      add\n      0x20\n      dup1\n      swap2\n      div\n      mul\n      0x20\n      add\n      mload(0x40)\n      swap1\n      dup2\n      add\n      0x40\n      mstore\n      dup1\n      swap3\n      swap2\n      swap1\n      dup2\n      dup2\n      mstore\n      0x20\n      add\n      dup3\n      dup1\n      sload\n      tag_73\n      swap1\n      tag_52\n      jump\t// in\n    tag_73:\n      dup1\n      iszero\n      tag_74\n      jumpi\n      dup1\n      0x1f\n      lt\n      tag_75\n      jumpi\n      0x0100\n      dup1\n      dup4\n      sload\n      div\n      mul\n      dup4\n      mstore\n      swap2\n      0x20\n      add\n      swap2\n      jump(tag_74)\n    tag_75:\n      dup3\n      add\n      swap2\n      swap1\n      0x00\n      mstore\n      keccak256(0x00, 0x20)\n      swap1\n    tag_76:\n      dup2\n      sload\n      dup2\n      mstore\n      swap1\n      0x01\n      add\n      swap1\n      0x20\n      add\n      dup1\n      dup4\n      gt\n      tag_76\n      jumpi\n      dup3\n      swap1\n      sub\n      0x1f\n      and\n      dup3\n      add\n      swap2\n    tag_74:\n      pop\n      pop\n      pop\n      pop\n      pop\n      swap1\n      dup1\n      0x01\n      add\n      sload\n      swap1\n      pop\n      dup3\n      jump\t// out\n        /* \"#utility.yul\":7:82   */\n    tag_77:\n        /* \"#utility.yul\":40:46   */\n      0x00\n        /* \"#utility.yul\":73:75   */\n      0x40\n        /* \"#utility.yul\":67:76   */\n      mload\n        /* \"#utility.yul\":57:76   */\n      swap1\n      pop\n        /* \"#utility.yul\":7:82   */\n      swap1\n      jump\t// out\n        /* \"#utility.yul\":88:205   */\n    tag_78:\n        /* \"#utility.yul\":197:198   */\n      0x00\n        /* \"#utility.yul\":194:195   */\n      0x00\n        /* \"#utility.yul\":187:199   */\n      revert\n        /* \"#utility.yul\":211:328   */\n    tag_79:\n        /* \"#utility.yul\":320:321   */\n      0x00\n        /* \"#utility.yul\":317:318   */\n      0x00\n        /* \"#utility.yul\":310:322   */\n      revert\n        /* \"#utility.yul\":334:435   */\n    tag_80:\n        /* \"#utility.yul\":370:377   */\n      0x00\n        /* \"#utility.yul\":410:428   */\n      0xffffffffffffffff\n        /* \"#utility.yul\":403:408   */\n      dup3\n        /* \"#utility.yul\":399:429   */\n      and\n        /* \"#utility.yul\":388:429   */\n      swap1\n      pop\n        /* \"#utility.yul\":334:435   */\n      swap2\n      swap1\n      pop\n      jump\t// out\n        /* \"#utility.yul\":441:561   */\n    tag_81:\n        /* \"#utility.yul\":513:536   */\n      tag_128\n        /* \"#utility.yul\":530:535   */\n      dup2\n        /* \"#utility.yul\":513:536   */\n      tag_80\n      jump\t// in\n    tag_128:\n        /* \"#utility.yul\":506:511   */\n      dup2\n        /* \"#utility.yul\":503:537   */\n      eq\n        /* \"#utility.yul\":493:555   */\n      tag_129\n      jumpi\n        /* \"#utility.yul\":551:552   */\n      0x00\n        /* \"#utility.yul\":548:549   */\n      0x00\n        /* \"#utility.yul\":541:553   */\n      revert\n        /* \"#utility.yul\":493:555   */\n    tag_129:\n        /* \"#utility.yul\":441:561   */\n      pop\n      jump\t// out\n        /* \"#utility.yul\":567:704   */\n    tag_82:\n        /* \"#utility.yul\":612:617   */\n      0x00\n        /* \"#utility.yul\":650:656   */\n      dup2\n        /* \"#utility.yul\":637:657   */\n      calldataload\n        /* \"#utility.yul\":628:657   */\n      swap1\n      pop\n        /* \"#utility.yul\":666:698   */\n      tag_131\n        /* \"#utility.yul\":692:697   */\n      dup2\n        /* \"#utility.yul\":666:698   */\n      tag_81\n      jump\t// in\n    tag_131:\n        /* \"#utility.yul\":567:704   */\n      swap3\n      swap2\n      pop\n      pop\n      jump\t// out\n        /* \"#utility.yul\":710:1037   */\n    tag_15:\n        /* \"#utility.yul\":768:774   */\n      0x00\n        /* \"#utility.yul\":817:819   */\n      0x20\n        /* \"#utility.yul\":805:814   */\n      dup3\n        /* \"#utility.yul\":796:803   */\n      dup5\n        /* \"#utility.yul\":792:815   */\n      sub\n        /* \"#utility.yul\":788:820   */\n      slt\n        /* \"#utility.yul\":785:904   */\n      iszero\n      tag_133\n      jumpi\n        /* \"#utility.yul\":823:902   */\n      tag_134\n      tag_78\n      jump\t// in\n    tag_134:\n        /* \"#utility.yul\":785:904   */\n    tag_133:\n        /* \"#utility.yul\":943:944   */\n      0x00\n        /* \"#utility.yul\":968:1020   */\n      tag_135\n        /* \"#utility.yul\":1012:1019   */\n      dup5\n        /* \"#utility.yul\":1003:1009   */\n      dup3\n        /* \"#utility.yul\":992:1001   */\n      dup6\n        /* \"#utility.yul\":988:1010   */\n      add\n        /* \"#utility.yul\":968:1020   */\n      tag_82\n      jump\t// in\n    tag_135:\n        /* \"#utility.yul\":958:1020   */\n      swap2\n      pop\n        /* \"#utility.yul\":914:1030   */\n      pop\n        /* \"#utility.yul\":710:1037   */\n      swap3\n      swap2\n      pop\n      pop\n      jump\t// out\n        /* \"#utility.yul\":1043:1142   */\n    tag_83:\n        /* \"#utility.yul\":1095:1101   */\n      0x00\n        /* \"#utility.yul\":1129:1134   */\n      dup2\n        /* \"#utility.yul\":1123:1135   */\n      mload\n        /* \"#utility.yul\":1113:1135   */\n      swap1\n      pop\n        /* \"#utility.yul\":1043:1142   */\n      swap2\n      swap1\n      pop\n      jump\t// out\n        /* \"#utility.yul\":1148:1317   */\n    tag_84:\n        /* \"#utility.yul\":1232:1243   */\n      0x00\n        /* \"#utility.yul\":1266:1272   */\n      dup3\n        /* \"#utility.yul\":1261:1264   */\n      dup3\n        /* \"#utility.yul\":1254:1273   */\n      mstore\n        /* \"#utility.yul\":1306:1310   */\n      0x20\n        /* \"#utility.yul\":1301:1304   */\n      dup3\n        /* \"#utility.yul\":1297:1311   */\n      add\n        /* \"#utility.yul\":1282:1311   */\n      swap1\n      pop\n        /* \"#utility.yul\":1148:1317   */\n      swap3\n      swap2\n      pop\n      pop\n      jump\t// out\n        /* \"#utility.yul\":1323:1462   */\n    tag_85:\n        /* \"#utility.yul\":1412:1418   */\n      dup3\n        /* \"#utility.yul\":1407:1410   */\n      dup2\n        /* \"#utility.yul\":1402:1405   */\n      dup4\n        /* \"#utility.yul\":1396:1419   */\n      mcopy\n        /* \"#utility.yul\":1453:1454   */\n      0x00\n        /* \"#utility.yul\":1444:1450   */\n      dup4\n        /* \"#utility.yul\":1439:1442   */\n      dup4\n        /* \"#utility.yul\":1435:1451   */\n      add\n        /* \"#utility.yul\":1428:1455   */\n      mstore\n        /* \"#utility.yul\":1323:1462   */\n      pop\n      pop\n      pop\n      jump\t// out\n        /* \"#utility.yul\":1468:1570   */\n    tag_86:\n        /* \"#utility.yul\":1509:1515   */\n      0x00\n        /* \"#utility.yul\":1560:1562   */\n      0x1f\n        /* \"#utility.yul\":1556:1563   */\n      not\n        /* \"#utility.yul\":1551:1553   */\n      0x1f\n        /* \"#utility.yul\":1544:1549   */\n      dup4\n        /* \"#utility.yul\":1540:1554   */\n      add\n        /* \"#utility.yul\":1536:1564   */\n      and\n        /* \"#utility.yul\":1526:1564   */\n      swap1\n      pop\n        /* \"#utility.yul\":1468:1570   */\n      swap2\n      swap1\n      pop\n      jump\t// out\n        /* \"#utility.yul\":1576:1953   */\n    tag_87:\n        /* \"#utility.yul\":1664:1667   */\n      0x00\n        /* \"#utility.yul\":1692:1731   */\n      tag_141\n        /* \"#utility.yul\":1725:1730   */\n      dup3\n        /* \"#utility.yul\":1692:1731   */\n      tag_83\n      jump\t// in\n    tag_141:\n        /* \"#utility.yul\":1747:1818   */\n      tag_142\n        /* \"#utility.yul\":1811:1817   */\n      dup2\n        /* \"#utility.yul\":1806:1809   */\n      dup6\n        /* \"#utility.yul\":1747:1818   */\n      tag_84\n      jump\t// in\n    tag_142:\n        /* \"#utility.yul\":1740:1818   */\n      swap4\n      pop\n        /* \"#utility.yul\":1827:1892   */\n      tag_143\n        /* \"#utility.yul\":1885:1891   */\n      dup2\n        /* \"#utility.yul\":1880:1883   */\n      dup6\n        /* \"#utility.yul\":1873:1877   */\n      0x20\n        /* \"#utility.yul\":1866:1871   */\n      dup7\n        /* \"#utility.yul\":1862:1878   */\n      add\n        /* \"#utility.yul\":1827:1892   */\n      tag_85\n      jump\t// in\n    tag_143:\n        /* \"#utility.yul\":1917:1946   */\n      tag_144\n        /* \"#utility.yul\":1939:1945   */\n      dup2\n        /* \"#utility.yul\":1917:1946   */\n      tag_86\n      jump\t// in\n    tag_144:\n        /* \"#utility.yul\":1912:1915   */\n      dup5\n        /* \"#utility.yul\":1908:1947   */\n      add\n        /* \"#utility.yul\":1901:1947   */\n      swap2\n      pop\n        /* \"#utility.yul\":1668:1953   */\n      pop\n        /* \"#utility.yul\":1576:1953   */\n      swap3\n      swap2\n      pop\n      pop\n      jump\t// out\n        /* \"#utility.yul\":1959:2036   */\n    tag_88:\n        /* \"#utility.yul\":1996:2003   */\n      0x00\n        /* \"#utility.yul\":2025:2030   */\n      dup2\n        /* \"#utility.yul\":2014:2030   */\n      swap1\n      pop\n        /* \"#utility.yul\":1959:2036   */\n      swap2\n      swap1\n      pop\n      jump\t// out\n        /* \"#utility.yul\":2042:2160   */\n    tag_89:\n        /* \"#utility.yul\":2129:2153   */\n      tag_147\n        /* \"#utility.yul\":2147:2152   */\n      dup2\n        /* \"#utility.yul\":2129:2153   */\n      tag_88\n      jump\t// in\n    tag_147:\n        /* \"#utility.yul\":2124:2127   */\n      dup3\n        /* \"#utility.yul\":2117:2154   */\n      mstore\n        /* \"#utility.yul\":2042:2160   */\n      pop\n      pop\n      jump\t// out\n        /* \"#utility.yul\":2166:2589   */\n    tag_20:\n        /* \"#utility.yul\":2307:2311   */\n      0x00\n        /* \"#utility.yul\":2345:2347   */\n      0x40\n        /* \"#utility.yul\":2334:2343   */\n      dup3\n        /* \"#utility.yul\":2330:2348   */\n      add\n        /* \"#utility.yul\":2322:2348   */\n      swap1\n      pop\n        /* \"#utility.yul\":2394:2403   */\n      dup2\n        /* \"#utility.yul\":2388:2392   */\n      dup2\n        /* \"#utility.yul\":2384:2404   */\n      sub\n        /* \"#utility.yul\":2380:2381   */\n      0x00\n        /* \"#utility.yul\":2369:2378   */\n      dup4\n        /* \"#utility.yul\":2365:2382   */\n      add\n        /* \"#utility.yul\":2358:2405   */\n      mstore\n        /* \"#utility.yul\":2422:2500   */\n      tag_149\n        /* \"#utility.yul\":2495:2499   */\n      dup2\n        /* \"#utility.yul\":2486:2492   */\n      dup6\n        /* \"#utility.yul\":2422:2500   */\n      tag_87\n      jump\t// in\n    tag_149:\n        /* \"#utility.yul\":2414:2500   */\n      swap1\n      pop\n        /* \"#utility.yul\":2510:2582   */\n      tag_150\n        /* \"#utility.yul\":2578:2580   */\n      0x20\n        /* \"#utility.yul\":2567:2576   */\n      dup4\n        /* \"#utility.yul\":2563:2581   */\n      add\n        /* \"#utility.yul\":2554:2560   */\n      dup5\n        /* \"#utility.yul\":2510:2582   */\n      tag_89\n      jump\t// in\n    tag_150:\n        /* \"#utility.yul\":2166:2589   */\n      swap4\n      swap3\n      pop\n      pop\n      pop\n      jump\t// out\n        /* \"#utility.yul\":2595:2710   */\n    tag_90:\n        /* \"#utility.yul\":2680:2703   */\n      tag_152\n        /* \"#utility.yul\":2697:2702   */\n      dup2\n        /* \"#utility.yul\":2680:2703   */\n      tag_80\n      jump\t// in\n    tag_152:\n        /* \"#utility.yul\":2675:2678   */\n      dup3\n        /* \"#utility.yul\":2668:2704   */\n      mstore\n        /* \"#utility.yul\":2595:2710   */\n      pop\n      pop\n      jump\t// out\n        /* \"#utility.yul\":2716:2934   */\n    tag_24:\n        /* \"#utility.yul\":2807:2811   */\n      0x00\n        /* \"#utility.yul\":2845:2847   */\n      0x20\n        /* \"#utility.yul\":2834:2843   */\n      dup3\n        /* \"#utility.yul\":2830:2848   */\n      add\n        /* \"#utility.yul\":2822:2848   */\n      swap1\n      pop\n        /* \"#utility.yul\":2858:2927   */\n      tag_154\n        /* \"#utility.yul\":2924:2925   */\n      0x00\n        /* \"#utility.yul\":2913:2922   */\n      dup4\n        /* \"#utility.yul\":2909:2926   */\n      add\n        /* \"#utility.yul\":2900:2906   */\n      dup5\n        /* \"#utility.yul\":2858:2927   */\n      tag_90\n      jump\t// in\n    tag_154:\n        /* \"#utility.yul\":2716:2934   */\n      swap3\n      swap2\n      pop\n      pop\n      jump\t// out\n        /* \"#utility.yul\":2940:3057   */\n    tag_91:\n        /* \"#utility.yul\":3049:3050   */\n      0x00\n        /* \"#utility.yul\":3046:3047   */\n      0x00\n        /* \"#utility.yul\":3039:3051   */\n      revert\n        /* \"#utility.yul\":3063:3180   */\n    tag_92:\n        /* \"#utility.yul\":3172:3173   */\n      0x00\n        /* \"#utility.yul\":3169:3170   */\n      0x00\n        /* \"#utility.yul\":3162:3174   */\n      revert\n        /* \"#utility.yul\":3186:3366   */\n    tag_93:\n        /* \"#utility.yul\":3234:3311   */\n      0x4e487b7100000000000000000000000000000000000000000000000000000000\n        /* \"#utility.yul\":3231:3232   */\n      0x00\n        /* \"#utility.yul\":3224:3312   */\n      mstore\n        /* \"#utility.yul\":3331:3335   */\n      0x41\n        /* \"#utility.yul\":3328:3329   */\n      0x04\n        /* \"#utility.yul\":3321:3336   */\n      mstore\n        /* \"#utility.yul\":3355:3359   */\n      0x24\n        /* \"#utility.yul\":3352:3353   */\n      0x00\n        /* \"#utility.yul\":3345:3360   */\n      revert\n        /* \"#utility.yul\":3372:3653   */\n    tag_94:\n        /* \"#utility.yul\":3455:3482   */\n      tag_159\n        /* \"#utility.yul\":3477:3481   */\n      dup3\n        /* \"#utility.yul\":3455:3482   */\n      tag_86\n      jump\t// in\n    tag_159:\n        /* \"#utility.yul\":3447:3453   */\n      dup2\n        /* \"#utility.yul\":3443:3483   */\n      add\n        /* \"#utility.yul\":3585:3591   */\n      dup2\n        /* \"#utility.yul\":3573:3583   */\n      dup2\n        /* \"#utility.yul\":3570:3592   */\n      lt\n        /* \"#utility.yul\":3549:3567   */\n      0xffffffffffffffff\n        /* \"#utility.yul\":3537:3547   */\n      dup3\n        /* \"#utility.yul\":3534:3568   */\n      gt\n        /* \"#utility.yul\":3531:3593   */\n      or\n        /* \"#utility.yul\":3528:3616   */\n      iszero\n      tag_160\n      jumpi\n        /* \"#utility.yul\":3596:3614   */\n      tag_161\n      tag_93\n      jump\t// in\n    tag_161:\n        /* \"#utility.yul\":3528:3616   */\n    tag_160:\n        /* \"#utility.yul\":3636:3646   */\n      dup1\n        /* \"#utility.yul\":3632:3634   */\n      0x40\n        /* \"#utility.yul\":3625:3647   */\n      mstore\n        /* \"#utility.yul\":3415:3653   */\n      pop\n        /* \"#utility.yul\":3372:3653   */\n      pop\n      pop\n      jump\t// out\n        /* \"#utility.yul\":3659:3788   */\n    tag_95:\n        /* \"#utility.yul\":3693:3699   */\n      0x00\n        /* \"#utility.yul\":3720:3740   */\n      tag_163\n      tag_77\n      jump\t// in\n    tag_163:\n        /* \"#utility.yul\":3710:3740   */\n      swap1\n      pop\n        /* \"#utility.yul\":3749:3782   */\n      tag_164\n        /* \"#utility.yul\":3777:3781   */\n      dup3\n        /* \"#utility.yul\":3769:3775   */\n      dup3\n        /* \"#utility.yul\":3749:3782   */\n      tag_94\n      jump\t// in\n    tag_164:\n        /* \"#utility.yul\":3659:3788   */\n      swap2\n      swap1\n      pop\n      jump\t// out\n        /* \"#utility.yul\":3794:4102   */\n    tag_96:\n        /* \"#utility.yul\":3856:3860   */\n      0x00\n        /* \"#utility.yul\":3946:3964   */\n      0xffffffffffffffff\n        /* \"#utility.yul\":3938:3944   */\n      dup3\n        /* \"#utility.yul\":3935:3965   */\n      gt\n        /* \"#utility.yul\":3932:3988   */\n      iszero\n      tag_166\n      jumpi\n        /* \"#utility.yul\":3968:3986   */\n      tag_167\n      tag_93\n      jump\t// in\n    tag_167:\n        /* \"#utility.yul\":3932:3988   */\n    tag_166:\n        /* \"#utility.yul\":4006:4035   */\n      tag_168\n        /* \"#utility.yul\":4028:4034   */\n      dup3\n        /* \"#utility.yul\":4006:4035   */\n      tag_86\n      jump\t// in\n    tag_168:\n        /* \"#utility.yul\":3998:4035   */\n      swap1\n      pop\n        /* \"#utility.yul\":4090:4094   */\n      0x20\n        /* \"#utility.yul\":4084:4088   */\n      dup2\n        /* \"#utility.yul\":4080:4095   */\n      add\n        /* \"#utility.yul\":4072:4095   */\n      swap1\n      pop\n        /* \"#utility.yul\":3794:4102   */\n      swap2\n      swap1\n      pop\n      jump\t// out\n        /* \"#utility.yul\":4108:4256   */\n    tag_97:\n        /* \"#utility.yul\":4206:4212   */\n      dup3\n        /* \"#utility.yul\":4201:4204   */\n      dup2\n        /* \"#utility.yul\":4196:4199   */\n      dup4\n        /* \"#utility.yul\":4183:4213   */\n      calldatacopy\n        /* \"#utility.yul\":4247:4248   */\n      0x00\n        /* \"#utility.yul\":4238:4244   */\n      dup4\n        /* \"#utility.yul\":4233:4236   */\n      dup4\n        /* \"#utility.yul\":4229:4245   */\n      add\n        /* \"#utility.yul\":4222:4249   */\n      mstore\n        /* \"#utility.yul\":4108:4256   */\n      pop\n      pop\n      pop\n      jump\t// out\n        /* \"#utility.yul\":4262:4687   */\n    tag_98:\n        /* \"#utility.yul\":4340:4345   */\n      0x00\n        /* \"#utility.yul\":4365:4431   */\n      tag_171\n        /* \"#utility.yul\":4381:4430   */\n      tag_172\n        /* \"#utility.yul\":4423:4429   */\n      dup5\n        /* \"#utility.yul\":4381:4430   */\n      tag_96\n      jump\t// in\n    tag_172:\n        /* \"#utility.yul\":4365:4431   */\n      tag_95\n      jump\t// in\n    tag_171:\n        /* \"#utility.yul\":4356:4431   */\n      swap1\n      pop\n        /* \"#utility.yul\":4454:4460   */\n      dup3\n        /* \"#utility.yul\":4447:4452   */\n      dup2\n        /* \"#utility.yul\":4440:4461   */\n      mstore\n        /* \"#utility.yul\":4492:4496   */\n      0x20\n        /* \"#utility.yul\":4485:4490   */\n      dup2\n        /* \"#utility.yul\":4481:4497   */\n      add\n        /* \"#utility.yul\":4530:4533   */\n      dup5\n        /* \"#utility.yul\":4521:4527   */\n      dup5\n        /* \"#utility.yul\":4516:4519   */\n      dup5\n        /* \"#utility.yul\":4512:4528   */\n      add\n        /* \"#utility.yul\":4509:4534   */\n      gt\n        /* \"#utility.yul\":4506:4618   */\n      iszero\n      tag_173\n      jumpi\n        /* \"#utility.yul\":4537:4616   */\n      tag_174\n      tag_92\n      jump\t// in\n    tag_174:\n        /* \"#utility.yul\":4506:4618   */\n    tag_173:\n        /* \"#utility.yul\":4627:4681   */\n      tag_175\n        /* \"#utility.yul\":4674:4680   */\n      dup5\n        /* \"#utility.yul\":4669:4672   */\n      dup3\n        /* \"#utility.yul\":4664:4667   */\n      dup6\n        /* \"#utility.yul\":4627:4681   */\n      tag_97\n      jump\t// in\n    tag_175:\n        /* \"#utility.yul\":4346:4687   */\n      pop\n        /* \"#utility.yul\":4262:4687   */\n      swap4\n      swap3\n      pop\n      pop\n      pop\n      jump\t// out\n        /* \"#utility.yul\":4707:5047   */\n    tag_99:\n        /* \"#utility.yul\":4763:4768   */\n      0x00\n        /* \"#utility.yul\":4812:4815   */\n      dup3\n        /* \"#utility.yul\":4805:4809   */\n      0x1f\n        /* \"#utility.yul\":4797:4803   */\n      dup4\n        /* \"#utility.yul\":4793:4810   */\n      add\n        /* \"#utility.yul\":4789:4816   */\n      slt\n        /* \"#utility.yul\":4779:4901   */\n      tag_177\n      jumpi\n        /* \"#utility.yul\":4820:4899   */\n      tag_178\n      tag_91\n      jump\t// in\n    tag_178:\n        /* \"#utility.yul\":4779:4901   */\n    tag_177:\n        /* \"#utility.yul\":4937:4943   */\n      dup2\n        /* \"#utility.yul\":4924:4944   */\n      calldataload\n        /* \"#utility.yul\":4962:5041   */\n      tag_179\n        /* \"#utility.yul\":5037:5040   */\n      dup5\n        /* \"#utility.yul\":5029:5035   */\n      dup3\n        /* \"#utility.yul\":5022:5026   */\n      0x20\n        /* \"#utility.yul\":5014:5020   */\n      dup7\n        /* \"#utility.yul\":5010:5027   */\n      add\n        /* \"#utility.yul\":4962:5041   */\n      tag_98\n      jump\t// in\n    tag_179:\n        /* \"#utility.yul\":4953:5041   */\n      swap2\n      pop\n        /* \"#utility.yul\":4769:5047   */\n      pop\n        /* \"#utility.yul\":4707:5047   */\n      swap3\n      swap2\n      pop\n      pop\n      jump\t// out\n        /* \"#utility.yul\":5053:5175   */\n    tag_100:\n        /* \"#utility.yul\":5126:5150   */\n      tag_181\n        /* \"#utility.yul\":5144:5149   */\n      dup2\n        /* \"#utility.yul\":5126:5150   */\n      tag_88\n      jump\t// in\n    tag_181:\n        /* \"#utility.yul\":5119:5124   */\n      dup2\n        /* \"#utility.yul\":5116:5151   */\n      eq\n        /* \"#utility.yul\":5106:5169   */\n      tag_182\n      jumpi\n        /* \"#utility.yul\":5165:5166   */\n      0x00\n        /* \"#utility.yul\":5162:5163   */\n      0x00\n        /* \"#utility.yul\":5155:5167   */\n      revert\n        /* \"#utility.yul\":5106:5169   */\n    tag_182:\n        /* \"#utility.yul\":5053:5175   */\n      pop\n      jump\t// out\n        /* \"#utility.yul\":5181:5320   */\n    tag_101:\n        /* \"#utility.yul\":5227:5232   */\n      0x00\n        /* \"#utility.yul\":5265:5271   */\n      dup2\n        /* \"#utility.yul\":5252:5272   */\n      calldataload\n        /* \"#utility.yul\":5243:5272   */\n      swap1\n      pop\n        /* \"#utility.yul\":5281:5314   */\n      tag_184\n        /* \"#utility.yul\":5308:5313   */\n      dup2\n        /* \"#utility.yul\":5281:5314   */\n      tag_100\n      jump\t// in\n    tag_184:\n        /* \"#utility.yul\":5181:5320   */\n      swap3\n      swap2\n      pop\n      pop\n      jump\t// out\n        /* \"#utility.yul\":5326:5980   */\n    tag_27:\n        /* \"#utility.yul\":5404:5410   */\n      0x00\n        /* \"#utility.yul\":5412:5418   */\n      0x00\n        /* \"#utility.yul\":5461:5463   */\n      0x40\n        /* \"#utility.yul\":5449:5458   */\n      dup4\n        /* \"#utility.yul\":5440:5447   */\n      dup6\n        /* \"#utility.yul\":5436:5459   */\n      sub\n        /* \"#utility.yul\":5432:5464   */\n      slt\n        /* \"#utility.yul\":5429:5548   */\n      iszero\n      tag_186\n      jumpi\n        /* \"#utility.yul\":5467:5546   */\n      tag_187\n      tag_78\n      jump\t// in\n    tag_187:\n        /* \"#utility.yul\":5429:5548   */\n    tag_186:\n        /* \"#utility.yul\":5615:5616   */\n      0x00\n        /* \"#utility.yul\":5604:5613   */\n      dup4\n        /* \"#utility.yul\":5600:5617   */\n      add\n        /* \"#utility.yul\":5587:5618   */\n      calldataload\n        /* \"#utility.yul\":5645:5663   */\n      0xffffffffffffffff\n        /* \"#utility.yul\":5637:5643   */\n      dup2\n        /* \"#utility.yul\":5634:5664   */\n      gt\n        /* \"#utility.yul\":5631:5748   */\n      iszero\n      tag_188\n      jumpi\n        /* \"#utility.yul\":5667:5746   */\n      tag_189\n      tag_79\n      jump\t// in\n    tag_189:\n        /* \"#utility.yul\":5631:5748   */\n    tag_188:\n        /* \"#utility.yul\":5772:5835   */\n      tag_190\n        /* \"#utility.yul\":5827:5834   */\n      dup6\n        /* \"#utility.yul\":5818:5824   */\n      dup3\n        /* \"#utility.yul\":5807:5816   */\n      dup7\n        /* \"#utility.yul\":5803:5825   */\n      add\n        /* \"#utility.yul\":5772:5835   */\n      tag_99\n      jump\t// in\n    tag_190:\n        /* \"#utility.yul\":5762:5835   */\n      swap3\n      pop\n        /* \"#utility.yul\":5558:5845   */\n      pop\n        /* \"#utility.yul\":5884:5886   */\n      0x20\n        /* \"#utility.yul\":5910:5963   */\n      tag_191\n        /* \"#utility.yul\":5955:5962   */\n      dup6\n        /* \"#utility.yul\":5946:5952   */\n      dup3\n        /* \"#utility.yul\":5935:5944   */\n      dup7\n        /* \"#utility.yul\":5931:5953   */\n      add\n        /* \"#utility.yul\":5910:5963   */\n      tag_101\n      jump\t// in\n    tag_191:\n        /* \"#utility.yul\":5900:5963   */\n      swap2\n      pop\n        /* \"#utility.yul\":5855:5973   */\n      pop\n        /* \"#utility.yul\":5326:5980   */\n      swap3\n      pop\n      swap3\n      swap1\n      pop\n      jump\t// out\n        /* \"#utility.yul\":5986:6495   */\n    tag_31:\n        /* \"#utility.yul\":6055:6061   */\n      0x00\n        /* \"#utility.yul\":6104:6106   */\n      0x20\n        /* \"#utility.yul\":6092:6101   */\n      dup3\n        /* \"#utility.yul\":6083:6090   */\n      dup5\n        /* \"#utility.yul\":6079:6102   */\n      sub\n        /* \"#utility.yul\":6075:6107   */\n      slt\n        /* \"#utility.yul\":6072:6191   */\n      iszero\n      tag_193\n      jumpi\n        /* \"#utility.yul\":6110:6189   */\n      tag_194\n      tag_78\n      jump\t// in\n    tag_194:\n        /* \"#utility.yul\":6072:6191   */\n    tag_193:\n        /* \"#utility.yul\":6258:6259   */\n      0x00\n        /* \"#utility.yul\":6247:6256   */\n      dup3\n        /* \"#utility.yul\":6243:6260   */\n      add\n        /* \"#utility.yul\":6230:6261   */\n      calldataload\n        /* \"#utility.yul\":6288:6306   */\n      0xffffffffffffffff\n        /* \"#utility.yul\":6280:6286   */\n      dup2\n        /* \"#utility.yul\":6277:6307   */\n      gt\n        /* \"#utility.yul\":6274:6391   */\n      iszero\n      tag_195\n      jumpi\n        /* \"#utility.yul\":6310:6389   */\n      tag_196\n      tag_79\n      jump\t// in\n    tag_196:\n        /* \"#utility.yul\":6274:6391   */\n    tag_195:\n        /* \"#utility.yul\":6415:6478   */\n      tag_197\n        /* \"#utility.yul\":6470:6477   */\n      dup5\n        /* \"#utility.yul\":6461:6467   */\n      dup3\n        /* \"#utility.yul\":6450:6459   */\n      dup6\n        /* \"#utility.yul\":6446:6468   */\n      add\n        /* \"#utility.yul\":6415:6478   */\n      tag_99\n      jump\t// in\n    tag_197:\n        /* \"#utility.yul\":6405:6478   */\n      swap2\n      pop\n        /* \"#utility.yul\":6201:6488   */\n      pop\n        /* \"#utility.yul\":5986:6495   */\n      swap3\n      swap2\n      pop\n      pop\n      jump\t// out\n        /* \"#utility.yul\":6501:6723   */\n    tag_34:\n        /* \"#utility.yul\":6594:6598   */\n      0x00\n        /* \"#utility.yul\":6632:6634   */\n      0x20\n        /* \"#utility.yul\":6621:6630   */\n      dup3\n        /* \"#utility.yul\":6617:6635   */\n      add\n        /* \"#utility.yul\":6609:6635   */\n      swap1\n      pop\n        /* \"#utility.yul\":6645:6716   */\n      tag_199\n        /* \"#utility.yul\":6713:6714   */\n      0x00\n        /* \"#utility.yul\":6702:6711   */\n      dup4\n        /* \"#utility.yul\":6698:6715   */\n      add\n        /* \"#utility.yul\":6689:6695   */\n      dup5\n        /* \"#utility.yul\":6645:6716   */\n      tag_89\n      jump\t// in\n    tag_199:\n        /* \"#utility.yul\":6501:6723   */\n      swap3\n      swap2\n      pop\n      pop\n      jump\t// out\n        /* \"#utility.yul\":6729:7058   */\n    tag_37:\n        /* \"#utility.yul\":6788:6794   */\n      0x00\n        /* \"#utility.yul\":6837:6839   */\n      0x20\n        /* \"#utility.yul\":6825:6834   */\n      dup3\n        /* \"#utility.yul\":6816:6823   */\n      dup5\n        /* \"#utility.yul\":6812:6835   */\n      sub\n        /* \"#utility.yul\":6808:6840   */\n      slt\n        /* \"#utility.yul\":6805:6924   */\n      iszero\n      tag_201\n      jumpi\n        /* \"#utility.yul\":6843:6922   */\n      tag_202\n      tag_78\n      jump\t// in\n    tag_202:\n        /* \"#utility.yul\":6805:6924   */\n    tag_201:\n        /* \"#utility.yul\":6963:6964   */\n      0x00\n        /* \"#utility.yul\":6988:7041   */\n      tag_203\n        /* \"#utility.yul\":7033:7040   */\n      dup5\n        /* \"#utility.yul\":7024:7030   */\n      dup3\n        /* \"#utility.yul\":7013:7022   */\n      dup6\n        /* \"#utility.yul\":7009:7031   */\n      add\n        /* \"#utility.yul\":6988:7041   */\n      tag_101\n      jump\t// in\n    tag_203:\n        /* \"#utility.yul\":6978:7041   */\n      swap2\n      pop\n        /* \"#utility.yul\":6934:7051   */\n      pop\n        /* \"#utility.yul\":6729:7058   */\n      swap3\n      swap2\n      pop\n      pop\n      jump\t// out\n        /* \"#utility.yul\":7064:7140   */\n    tag_102:\n        /* \"#utility.yul\":7100:7107   */\n      0x00\n        /* \"#utility.yul\":7129:7134   */\n      dup2\n        /* \"#utility.yul\":7118:7134   */\n      swap1\n      pop\n        /* \"#utility.yul\":7064:7140   */\n      swap2\n      swap1\n      pop\n      jump\t// out\n        /* \"#utility.yul\":7146:7261   */\n    tag_103:\n        /* \"#utility.yul\":7231:7254   */\n      tag_206\n        /* \"#utility.yul\":7248:7253   */\n      dup2\n        /* \"#utility.yul\":7231:7254   */\n      tag_102\n      jump\t// in\n    tag_206:\n        /* \"#utility.yul\":7226:7229   */\n      dup3\n        /* \"#utility.yul\":7219:7255   */\n      mstore\n        /* \"#utility.yul\":7146:7261   */\n      pop\n      pop\n      jump\t// out\n        /* \"#utility.yul\":7267:7485   */\n    tag_46:\n        /* \"#utility.yul\":7358:7362   */\n      0x00\n        /* \"#utility.yul\":7396:7398   */\n      0x20\n        /* \"#utility.yul\":7385:7394   */\n      dup3\n        /* \"#utility.yul\":7381:7399   */\n      add\n        /* \"#utility.yul\":7373:7399   */\n      swap1\n      pop\n        /* \"#utility.yul\":7409:7478   */\n      tag_208\n        /* \"#utility.yul\":7475:7476   */\n      0x00\n        /* \"#utility.yul\":7464:7473   */\n      dup4\n        /* \"#utility.yul\":7460:7477   */\n      add\n        /* \"#utility.yul\":7451:7457   */\n      dup5\n        /* \"#utility.yul\":7409:7478   */\n      tag_103\n      jump\t// in\n    tag_208:\n        /* \"#utility.yul\":7267:7485   */\n      swap3\n      swap2\n      pop\n      pop\n      jump\t// out\n        /* \"#utility.yul\":7491:7671   */\n    tag_104:\n        /* \"#utility.yul\":7539:7616   */\n      0x4e487b7100000000000000000000000000000000000000000000000000000000\n        /* \"#utility.yul\":7536:7537   */\n      0x00\n        /* \"#utility.yul\":7529:7617   */\n      mstore\n        /* \"#utility.yul\":7636:7640   */\n      0x22\n        /* \"#utility.yul\":7633:7634   */\n      0x04\n        /* \"#utility.yul\":7626:7641   */\n      mstore\n        /* \"#utility.yul\":7660:7664   */\n      0x24\n        /* \"#utility.yul\":7657:7658   */\n      0x00\n        /* \"#utility.yul\":7650:7665   */\n      revert\n        /* \"#utility.yul\":7677:7997   */\n    tag_52:\n        /* \"#utility.yul\":7721:7727   */\n      0x00\n        /* \"#utility.yul\":7758:7759   */\n      0x02\n        /* \"#utility.yul\":7752:7756   */\n      dup3\n        /* \"#utility.yul\":7748:7760   */\n      div\n        /* \"#utility.yul\":7738:7760   */\n      swap1\n      pop\n        /* \"#utility.yul\":7805:7806   */\n      0x01\n        /* \"#utility.yul\":7799:7803   */\n      dup3\n        /* \"#utility.yul\":7795:7807   */\n      and\n        /* \"#utility.yul\":7826:7844   */\n      dup1\n        /* \"#utility.yul\":7816:7897   */\n      tag_211\n      jumpi\n        /* \"#utility.yul\":7882:7886   */\n      0x7f\n        /* \"#utility.yul\":7874:7880   */\n      dup3\n        /* \"#utility.yul\":7870:7887   */\n      and\n        /* \"#utility.yul\":7860:7887   */\n      swap2\n      pop\n        /* \"#utility.yul\":7816:7897   */\n    tag_211:\n        /* \"#utility.yul\":7944:7946   */\n      0x20\n        /* \"#utility.yul\":7936:7942   */\n      dup3\n        /* \"#utility.yul\":7933:7947   */\n      lt\n        /* \"#utility.yul\":7913:7931   */\n      dup2\n        /* \"#utility.yul\":7910:7948   */\n      sub\n        /* \"#utility.yul\":7907:7991   */\n      tag_212\n      jumpi\n        /* \"#utility.yul\":7963:7981   */\n      tag_213\n      tag_104\n      jump\t// in\n    tag_213:\n        /* \"#utility.yul\":7907:7991   */\n    tag_212:\n        /* \"#utility.yul\":7728:7997   */\n      pop\n        /* \"#utility.yul\":7677:7997   */\n      swap2\n      swap1\n      pop\n      jump\t// out\n        /* \"#utility.yul\":8003:8144   */\n    tag_105:\n        /* \"#utility.yul\":8052:8056   */\n      0x00\n        /* \"#utility.yul\":8075:8078   */\n      dup2\n        /* \"#utility.yul\":8067:8078   */\n      swap1\n      pop\n        /* \"#utility.yul\":8098:8101   */\n      dup2\n        /* \"#utility.yul\":8095:8096   */\n      0x00\n        /* \"#utility.yul\":8088:8102   */\n      mstore\n        /* \"#utility.yul\":8132:8136   */\n      0x20\n        /* \"#utility.yul\":8129:8130   */\n      0x00\n        /* \"#utility.yul\":8119:8137   */\n      keccak256\n        /* \"#utility.yul\":8111:8137   */\n      swap1\n      pop\n        /* \"#utility.yul\":8003:8144   */\n      swap2\n      swap1\n      pop\n      jump\t// out\n        /* \"#utility.yul\":8150:8243   */\n    tag_106:\n        /* \"#utility.yul\":8187:8193   */\n      0x00\n        /* \"#utility.yul\":8234:8236   */\n      0x20\n        /* \"#utility.yul\":8229:8231   */\n      0x1f\n        /* \"#utility.yul\":8222:8227   */\n      dup4\n        /* \"#utility.yul\":8218:8232   */\n      add\n        /* \"#utility.yul\":8214:8237   */\n      div\n        /* \"#utility.yul\":8204:8237   */\n      swap1\n      pop\n        /* \"#utility.yul\":8150:8243   */\n      swap2\n      swap1\n      pop\n      jump\t// out\n        /* \"#utility.yul\":8249:8356   */\n    tag_107:\n        /* \"#utility.yul\":8293:8301   */\n      0x00\n        /* \"#utility.yul\":8343:8348   */\n      dup3\n        /* \"#utility.yul\":8337:8341   */\n      dup3\n        /* \"#utility.yul\":8333:8349   */\n      shl\n        /* \"#utility.yul\":8312:8349   */\n      swap1\n      pop\n        /* \"#utility.yul\":8249:8356   */\n      swap3\n      swap2\n      pop\n      pop\n      jump\t// out\n        /* \"#utility.yul\":8362:8755   */\n    tag_108:\n        /* \"#utility.yul\":8431:8437   */\n      0x00\n        /* \"#utility.yul\":8481:8482   */\n      0x08\n        /* \"#utility.yul\":8469:8479   */\n      dup4\n        /* \"#utility.yul\":8465:8483   */\n      mul\n        /* \"#utility.yul\":8504:8601   */\n      tag_218\n        /* \"#utility.yul\":8534:8600   */\n      0xffffffffffffffffffffffffffffffffffffffffffffffffffffffffffffffff\n        /* \"#utility.yul\":8523:8532   */\n      dup3\n        /* \"#utility.yul\":8504:8601   */\n      tag_107\n      jump\t// in\n    tag_218:\n        /* \"#utility.yul\":8622:8661   */\n      tag_219\n        /* \"#utility.yul\":8652:8660   */\n      dup7\n        /* \"#utility.yul\":8641:8650   */\n      dup4\n        /* \"#utility.yul\":8622:8661   */\n      tag_107\n      jump\t// in\n    tag_219:\n        /* \"#utility.yul\":8610:8661   */\n      swap6\n      pop\n        /* \"#utility.yul\":8694:8698   */\n      dup1\n        /* \"#utility.yul\":8690:8699   */\n      not\n        /* \"#utility.yul\":8683:8688   */\n      dup5\n        /* \"#utility.yul\":8679:8700   */\n      and\n        /* \"#utility.yul\":8670:8700   */\n      swap4\n      pop\n        /* \"#utility.yul\":8743:8747   */\n      dup1\n        /* \"#utility.yul\":8733:8741   */\n      dup7\n        /* \"#utility.yul\":8729:8748   */\n      and\n        /* \"#utility.yul\":8722:8727   */\n      dup5\n        /* \"#utility.yul\":8719:8749   */\n      or\n        /* \"#utility.yul\":8709:8749   */\n      swap3\n      pop\n        /* \"#utility.yul\":8438:8755   */\n      pop\n      pop\n        /* \"#utility.yul\":8362:8755   */\n      swap4\n      swap3\n      pop\n      pop\n      pop\n      jump\t// out\n        /* \"#utility.yul\":8761:8821   */\n    tag_109:\n        /* \"#utility.yul\":8789:8792   */\n      0x00\n        /* \"#utility.yul\":8810:8815   */\n      dup2\n        /* \"#utility.yul\":8803:8815   */\n      swap1\n      pop\n        /* \"#utility.yul\":8761:8821   */\n      swap2\n      swap1\n      pop\n      jump\t// out\n        /* \"#utility.yul\":8827:8969   */\n    tag_110:\n        /* \"#utility.yul\":8877:8886   */\n      0x00\n        /* \"#utility.yul\":8910:8963   */\n      tag_222\n        /* \"#utility.yul\":8928:8962   */\n      tag_223\n        /* \"#utility.yul\":8937:8961   */\n      tag_224\n        /* \"#utility.yul\":8955:8960   */\n      dup5\n        /* \"#utility.yul\":8937:8961   */\n      tag_88\n      jump\t// in\n    tag_224:\n        /* \"#utility.yul\":8928:8962   */\n      tag_109\n      jump\t// in\n    tag_223:\n        /* \"#utility.yul\":8910:8963   */\n      tag_88\n      jump\t// in\n    tag_222:\n        /* \"#utility.yul\":8897:8963   */\n      swap1\n      pop\n        /* \"#utility.yul\":8827:8969   */\n      swap2\n      swap1\n      pop\n      jump\t// out\n        /* \"#utility.yul\":8975:9050   */\n    tag_111:\n        /* \"#utility.yul\":9018:9021   */\n      0x00\n        /* \"#utility.yul\":9039:9044   */\n      dup2\n        /* \"#utility.yul\":9032:9044   */\n      swap1\n      pop\n        /* \"#utility.yul\":8975:9050   */\n      swap2\n      swap1\n      pop\n      jump\t// out\n        /* \"#utility.yul\":9056:9325   */\n    tag_112:\n        /* \"#utility.yul\":9166:9205   */\n      tag_227\n        /* \"#utility.yul\":9197:9204   */\n      dup4\n        /* \"#utility.yul\":9166:9205   */\n      tag_110\n      jump\t// in\n    tag_227:\n        /* \"#utility.yul\":9227:9318   */\n      tag_228\n        /* \"#utility.yul\":9276:9317   */\n      tag_229\n        /* \"#utility.yul\":9300:9316   */\n      dup3\n        /* \"#utility.yul\":9276:9317   */\n      tag_111\n      jump\t// in\n    tag_229:\n        /* \"#utility.yul\":9268:9274   */\n      dup5\n        /* \"#utility.yul\":9261:9265   */\n      dup5\n        /* \"#utility.yul\":9255:9266   */\n      sload\n        /* \"#utility.yul\":9227:9318   */\n      tag_108\n      jump\t// in\n    tag_228:\n        /* \"#utility.yul\":9221:9225   */\n      dup3\n        /* \"#utility.yul\":9214:9319   */\n      sstore\n        /* \"#utility.yul\":9132:9325   */\n      pop\n        /* \"#utility.yul\":9056:9325   */\n      pop\n      pop\n      pop\n      jump\t// out\n        /* \"#utility.yul\":9331:9404   */\n    tag_113:\n        /* \"#utility.yul\":9376:9379   */\n      0x00\n        /* \"#utility.yul\":9397:9398   */\n      0x00\n        /* \"#utility.yul\":9390:9398   */\n      swap1\n      pop\n        /* \"#utility.yul\":9331:9404   */\n      swap1\n      jump\t// out\n        /* \"#utility.yul\":9410:9599   */\n    tag_114:\n        /* \"#utility.yul\":9487:9519   */\n      tag_232\n      tag_113\n      jump\t// in\n    tag_232:\n        /* \"#utility.yul\":9528:9593   */\n      tag_233\n        /* \"#utility.yul\":9586:9592   */\n      dup2\n        /* \"#utility.yul\":9578:9584   */\n      dup5\n        /* \"#utility.yul\":9572:9576   */\n      dup5\n        /* \"#utility.yul\":9528:9593   */\n      tag_112\n      jump\t// in\n    tag_233:\n        /* \"#utility.yul\":9463:9599   */\n      pop\n        /* \"#utility.yul\":9410:9599   */\n      pop\n      pop\n      jump\t// out\n        /* \"#utility.yul\":9605:9791   */\n    tag_115:\n        /* \"#utility.yul\":9665:9785   */\n    tag_235:\n        /* \"#utility.yul\":9682:9685   */\n      dup2\n        /* \"#utility.yul\":9675:9680   */\n      dup2\n        /* \"#utility.yul\":9672:9686   */\n      lt\n        /* \"#utility.yul\":9665:9785   */\n      iszero\n      tag_237\n      jumpi\n        /* \"#utility.yul\":9736:9775   */\n      tag_238\n        /* \"#utility.yul\":9773:9774   */\n      0x00\n        /* \"#utility.yul\":9766:9771   */\n      dup3\n        /* \"#utility.yul\":9736:9775   */\n      tag_114\n      jump\t// in\n    tag_238:\n        /* \"#utility.yul\":9709:9710   */\n      0x01\n        /* \"#utility.yul\":9702:9707   */\n      dup2\n        /* \"#utility.yul\":9698:9711   */\n      add\n        /* \"#utility.yul\":9689:9711   */\n      swap1\n      pop\n        /* \"#utility.yul\":9665:9785   */\n      jump(tag_235)\n    tag_237:\n        /* \"#utility.yul\":9605:9791   */\n      pop\n      pop\n      jump\t// out\n        /* \"#utility.yul\":9797:10340   */\n    tag_116:\n        /* \"#utility.yul\":9898:9900   */\n      0x1f\n        /* \"#utility.yul\":9893:9896   */\n      dup3\n        /* \"#utility.yul\":9890:9901   */\n      gt\n        /* \"#utility.yul\":9887:10333   */\n      iszero\n      tag_240\n      jumpi\n        /* \"#utility.yul\":9932:9970   */\n      tag_241\n        /* \"#utility.yul\":9964:9969   */\n      dup2\n        /* \"#utility.yul\":9932:9970   */\n      tag_105\n      jump\t// in\n    tag_241:\n        /* \"#utility.yul\":10016:10045   */\n      tag_242\n        /* \"#utility.yul\":10034:10044   */\n      dup5\n        /* \"#utility.yul\":10016:10045   */\n      tag_106\n      jump\t// in\n    tag_242:\n        /* \"#utility.yul\":10006:10014   */\n      dup2\n        /* \"#utility.yul\":10002:10046   */\n      add\n        /* \"#utility.yul\":10199:10201   */\n      0x20\n        /* \"#utility.yul\":10187:10197   */\n      dup6\n        /* \"#utility.yul\":10184:10202   */\n      lt\n        /* \"#utility.yul\":10181:10230   */\n      iszero\n      tag_243\n      jumpi\n        /* \"#utility.yul\":10220:10228   */\n      dup2\n        /* \"#utility.yul\":10205:10228   */\n      swap1\n      pop\n        /* \"#utility.yul\":10181:10230   */\n    tag_243:\n        /* \"#utility.yul\":10243:10323   */\n      tag_244\n        /* \"#utility.yul\":10299:10321   */\n      tag_245\n        /* \"#utility.yul\":10317:10320   */\n      dup6\n        /* \"#utility.yul\":10299:10321   */\n      tag_106\n      jump\t// in\n    tag_245:\n        /* \"#utility.yul\":10289:10297   */\n      dup4\n        /* \"#utility.yul\":10285:10322   */\n      add\n        /* \"#utility.yul\":10272:10283   */\n      dup3\n        /* \"#utility.yul\":10243:10323   */\n      tag_115\n      jump\t// in\n    tag_244:\n        /* \"#utility.yul\":9902:10333   */\n      pop\n      pop\n        /* \"#utility.yul\":9887:10333   */\n    tag_240:\n        /* \"#utility.yul\":9797:10340   */\n      pop\n      pop\n      pop\n      jump\t// out\n        /* \"#utility.yul\":10346:10463   */\n    tag_117:\n        /* \"#utility.yul\":10400:10408   */\n      0x00\n        /* \"#utility.yul\":10450:10455   */\n      dup3\n        /* \"#utility.yul\":10444:10448   */\n      dup3\n        /* \"#utility.yul\":10440:10456   */\n      shr\n        /* \"#utility.yul\":10419:10456   */\n      swap1\n      pop\n        /* \"#utility.yul\":10346:10463   */\n      swap3\n      swap2\n      pop\n      pop\n      jump\t// out\n        /* \"#utility.yul\":10469:10638   */\n    tag_118:\n        /* \"#utility.yul\":10513:10519   */\n      0x00\n        /* \"#utility.yul\":10546:10597   */\n      tag_248\n        /* \"#utility.yul\":10594:10595   */\n      0x00\n        /* \"#utility.yul\":10590:10596   */\n      not\n        /* \"#utility.yul\":10582:10587   */\n      dup5\n        /* \"#utility.yul\":10579:10580   */\n      0x08\n        /* \"#utility.yul\":10575:10588   */\n      mul\n        /* \"#utility.yul\":10546:10597   */\n      tag_117\n      jump\t// in\n    tag_248:\n        /* \"#utility.yul\":10542:10598   */\n      not\n        /* \"#utility.yul\":10627:10631   */\n      dup1\n        /* \"#utility.yul\":10621:10625   */\n      dup4\n        /* \"#utility.yul\":10617:10632   */\n      and\n        /* \"#utility.yul\":10607:10632   */\n      swap2\n      pop\n        /* \"#utility.yul\":10520:10638   */\n      pop\n        /* \"#utility.yul\":10469:10638   */\n      swap3\n      swap2\n      pop\n      pop\n      jump\t// out\n        /* \"#utility.yul\":10643:10938   */\n    tag_119:\n        /* \"#utility.yul\":10719:10723   */\n      0x00\n        /* \"#utility.yul\":10865:10894   */\n      tag_250\n        /* \"#utility.yul\":10890:10893   */\n      dup4\n        /* \"#utility.yul\":10884:10888   */\n      dup4\n        /* \"#utility.yul\":10865:10894   */\n      tag_118\n      jump\t// in\n    tag_250:\n        /* \"#utility.yul\":10857:10894   */\n      swap2\n      pop\n        /* \"#utility.yul\":10927:10930   */\n      dup3\n        /* \"#utility.yul\":10924:10925   */\n      0x02\n        /* \"#utility.yul\":10920:10931   */\n      mul\n        /* \"#utility.yul\":10914:10918   */\n      dup3\n        /* \"#utility.yul\":10911:10932   */\n      or\n        /* \"#utility.yul\":10903:10932   */\n      swap1\n      pop\n        /* \"#utility.yul\":10643:10938   */\n      swap3\n      swap2\n      pop\n      pop\n      jump\t// out\n        /* \"#utility.yul\":10943:12338   */\n    tag_60:\n        /* \"#utility.yul\":11060:11097   */\n      tag_252\n        /* \"#utility.yul\":11093:11096   */\n      dup3\n        /* \"#utility.yul\":11060:11097   */\n      tag_83\n      jump\t// in\n    tag_252:\n        /* \"#utility.yul\":11162:11180   */\n      0xffffffffffffffff\n        /* \"#utility.yul\":11154:11160   */\n      dup2\n        /* \"#utility.yul\":11151:11181   */\n      gt\n        /* \"#utility.yul\":11148:11204   */\n      iszero\n      tag_253\n      jumpi\n        /* \"#utility.yul\":11184:11202   */\n      tag_254\n      tag_93\n      jump\t// in\n    tag_254:\n        /* \"#utility.yul\":11148:11204   */\n    tag_253:\n        /* \"#utility.yul\":11228:11266   */\n      tag_255\n        /* \"#utility.yul\":11260:11264   */\n      dup3\n        /* \"#utility.yul\":11254:11265   */\n      sload\n        /* \"#utility.yul\":11228:11266   */\n      tag_52\n      jump\t// in\n    tag_255:\n        /* \"#utility.yul\":11313:11380   */\n      tag_256\n        /* \"#utility.yul\":11373:11379   */\n      dup3\n        /* \"#utility.yul\":11365:11371   */\n      dup3\n        /* \"#utility.yul\":11359:11363   */\n      dup6\n        /* \"#utility.yul\":11313:11380   */\n      tag_116\n      jump\t// in\n    tag_256:\n        /* \"#utility.yul\":11407:11408   */\n      0x00\n        /* \"#utility.yul\":11431:11435   */\n      0x20\n        /* \"#utility.yul\":11418:11435   */\n      swap1\n      pop\n        /* \"#utility.yul\":11463:11465   */\n      0x1f\n        /* \"#utility.yul\":11455:11461   */\n      dup4\n        /* \"#utility.yul\":11452:11466   */\n      gt\n        /* \"#utility.yul\":11480:11481   */\n      0x01\n        /* \"#utility.yul\":11475:12093   */\n      dup2\n      eq\n      tag_258\n      jumpi\n        /* \"#utility.yul\":12137:12138   */\n      0x00\n        /* \"#utility.yul\":12154:12160   */\n      dup5\n        /* \"#utility.yul\":12151:12228   */\n      iszero\n      tag_259\n      jumpi\n        /* \"#utility.yul\":12203:12212   */\n      dup3\n        /* \"#utility.yul\":12198:12201   */\n      dup8\n        /* \"#utility.yul\":12194:12213   */\n      add\n        /* \"#utility.yul\":12188:12214   */\n      mload\n        /* \"#utility.yul\":12179:12214   */\n      swap1\n      pop\n        /* \"#utility.yul\":12151:12228   */\n    tag_259:\n        /* \"#utility.yul\":12254:12321   */\n      tag_260\n        /* \"#utility.yul\":12314:12320   */\n      dup6\n        /* \"#utility.yul\":12307:12312   */\n      dup3\n        /* \"#utility.yul\":12254:12321   */\n      tag_119\n      jump\t// in\n    tag_260:\n        /* \"#utility.yul\":12248:12252   */\n      dup7\n        /* \"#utility.yul\":12241:12322   */\n      sstore\n        /* \"#utility.yul\":12110:12332   */\n      pop\n        /* \"#utility.yul\":11445:12332   */\n      jump(tag_257)\n        /* \"#utility.yul\":11475:12093   */\n    tag_258:\n        /* \"#utility.yul\":11527:11531   */\n      0x1f\n        /* \"#utility.yul\":11523:11532   */\n      not\n        /* \"#utility.yul\":11515:11521   */\n      dup5\n        /* \"#utility.yul\":11511:11533   */\n      and\n        /* \"#utility.yul\":11561:11598   */\n      tag_261\n        /* \"#utility.yul\":11593:11597   */\n      dup7\n        /* \"#utility.yul\":11561:11598   */\n      tag_105\n      jump\t// in\n    tag_261:\n        /* \"#utility.yul\":11620:11621   */\n      0x00\n        /* \"#utility.yul\":11634:11842   */\n    tag_262:\n        /* \"#utility.yul\":11648:11655   */\n      dup3\n        /* \"#utility.yul\":11645:11646   */\n      dup2\n        /* \"#utility.yul\":11642:11656   */\n      lt\n        /* \"#utility.yul\":11634:11842   */\n      iszero\n      tag_264\n      jumpi\n        /* \"#utility.yul\":11727:11736   */\n      dup5\n        /* \"#utility.yul\":11722:11725   */\n      dup10\n        /* \"#utility.yul\":11718:11737   */\n      add\n        /* \"#utility.yul\":11712:11738   */\n      mload\n        /* \"#utility.yul\":11704:11710   */\n      dup3\n        /* \"#utility.yul\":11697:11739   */\n      sstore\n        /* \"#utility.yul\":11778:11779   */\n      0x01\n        /* \"#utility.yul\":11770:11776   */\n      dup3\n        /* \"#utility.yul\":11766:11780   */\n      add\n        /* \"#utility.yul\":11756:11780   */\n      swap2\n      pop\n        /* \"#utility.yul\":11825:11827   */\n      0x20\n        /* \"#utility.yul\":11814:11823   */\n      dup6\n        /* \"#utility.yul\":11810:11828   */\n      add\n        /* \"#utility.yul\":11797:11828   */\n      swap5\n      pop\n        /* \"#utility.yul\":11671:11675   */\n      0x20\n        /* \"#utility.yul\":11668:11669   */\n      dup2\n        /* \"#utility.yul\":11664:11676   */\n      add\n        /* \"#utility.yul\":11659:11676   */\n      swap1\n      pop\n        /* \"#utility.yul\":11634:11842   */\n      jump(tag_262)\n    tag_264:\n        /* \"#utility.yul\":11870:11876   */\n      dup7\n        /* \"#utility.yul\":11861:11868   */\n      dup4\n        /* \"#utility.yul\":11858:11877   */\n      lt\n        /* \"#utility.yul\":11855:12034   */\n      iszero\n      tag_265\n      jumpi\n        /* \"#utility.yul\":11928:11937   */\n      dup5\n        /* \"#utility.yul\":11923:11926   */\n      dup10\n        /* \"#utility.yul\":11919:11938   */\n      add\n        /* \"#utility.yul\":11913:11939   */\n      mload\n        /* \"#utility.yul\":11971:12019   */\n      tag_266\n        /* \"#utility.yul\":12013:12017   */\n      0x1f\n        /* \"#utility.yul\":12005:12011   */\n      dup10\n        /* \"#utility.yul\":12001:12018   */\n      and\n        /* \"#utility.yul\":11990:11999   */\n      dup3\n        /* \"#utility.yul\":11971:12019   */\n      tag_118\n      jump\t// in\n    tag_266:\n        /* \"#utility.yul\":11963:11969   */\n      dup4\n        /* \"#utility.yul\":11956:12020   */\n      sstore\n        /* \"#utility.yul\":11878:12034   */\n      pop\n        /* \"#utility.yul\":11855:12034   */\n    tag_265:\n        /* \"#utility.yul\":12080:12081   */\n      0x01\n        /* \"#utility.yul\":12076:12077   */\n      0x02\n        /* \"#utility.yul\":12068:12074   */\n      dup9\n        /* \"#utility.yul\":12064:12078   */\n      mul\n        /* \"#utility.yul\":12060:12082   */\n      add\n        /* \"#utility.yul\":12054:12058   */\n      dup9\n        /* \"#utility.yul\":12047:12083   */\n      sstore\n        /* \"#utility.yul\":11482:12093   */\n      pop\n      pop\n      pop\n        /* \"#utility.yul\":11445:12332   */\n    tag_257:\n      pop\n        /* \"#utility.yul\":11035:12338   */\n      pop\n      pop\n      pop\n        /* \"#utility.yul\":10943:12338   */\n      pop\n      pop\n      jump\t// out\n        /* \"#utility.yul\":12344:12492   */\n    tag_120:\n        /* \"#utility.yul\":12446:12457   */\n      0x00\n        /* \"#utility.yul\":12483:12486   */\n      dup2\n        /* \"#utility.yul\":12468:12486   */\n      swap1\n      pop\n        /* \"#utility.yul\":12344:12492   */\n      swap3\n      swap2\n      pop\n      pop\n      jump\t// out\n        /* \"#utility.yul\":12498:12888   */\n    tag_121:\n        /* \"#utility.yul\":12604:12607   */\n      0x00\n        /* \"#utility.yul\":12632:12671   */\n      tag_269\n        /* \"#utility.yul\":12665:12670   */\n      dup3\n        /* \"#utility.yul\":12632:12671   */\n      tag_83\n      jump\t// in\n    tag_269:\n        /* \"#utility.yul\":12687:12776   */\n      tag_270\n        /* \"#utility.yul\":12769:12775   */\n      dup2\n        /* \"#utility.yul\":12764:12767   */\n      dup6\n        /* \"#utility.yul\":12687:12776   */\n      tag_120\n      jump\t// in\n    tag_270:\n        /* \"#utility.yul\":12680:12776   */\n      swap4\n      pop\n        /* \"#utility.yul\":12785:12850   */\n      tag_271\n        /* \"#utility.yul\":12843:12849   */\n      dup2\n        /* \"#utility.yul\":12838:12841   */\n      dup6\n        /* \"#utility.yul\":12831:12835   */\n      0x20\n        /* \"#utility.yul\":12824:12829   */\n      dup7\n        /* \"#utility.yul\":12820:12836   */\n      add\n        /* \"#utility.yul\":12785:12850   */\n      tag_85\n      jump\t// in\n    tag_271:\n        /* \"#utility.yul\":12875:12881   */\n      dup1\n        /* \"#utility.yul\":12870:12873   */\n      dup5\n        /* \"#utility.yul\":12866:12882   */\n      add\n        /* \"#utility.yul\":12859:12882   */\n      swap2\n      pop\n        /* \"#utility.yul\":12608:12888   */\n      pop\n        /* \"#utility.yul\":12498:12888   */\n      swap3\n      swap2\n      pop\n      pop\n      jump\t// out\n        /* \"#utility.yul\":12894:13169   */\n    tag_62:\n        /* \"#utility.yul\":13026:13029   */\n      0x00\n        /* \"#utility.yul\":13048:13143   */\n      tag_273\n        /* \"#utility.yul\":13139:13142   */\n      dup3\n        /* \"#utility.yul\":13130:13136   */\n      dup5\n        /* \"#utility.yul\":13048:13143   */\n      tag_121\n      jump\t// in\n    tag_273:\n        /* \"#utility.yul\":13041:13143   */\n      swap2\n      pop\n        /* \"#utility.yul\":13160:13163   */\n      dup2\n        /* \"#utility.yul\":13153:13163   */\n      swap1\n      pop\n        /* \"#utility.yul\":12894:13169   */\n      swap3\n      swap2\n      pop\n      pop\n      jump\t// out\n\n    auxdata: 0xa2646970667358221220012a5da80ceb0f3f0f94d881516cbf7261d97da67a941e4d6aee0a7fcc2f3d2164736f6c634300081b0033\n}\n",
				"bytecode": {
					"linkReferences": {},
					"object": "608060405260405180604001604052806040518060400160405280600681526020017f64616e69656c00000000000000000000000000000000000000000000000000008152508152602001600a81525060015f820151815f019081610064919061032c565b5060208201518160010155505060405180604001604052806040518060400160405280600581526020017f6572617a6f0000000000000000000000000000000000000000000000000000008152508152602001602a81525060035f820151815f0190816100d1919061032c565b506020820151816001015550503480156100e9575f5ffd5b506103fb565b5f81519050919050565b7f4e487b71000000000000000000000000000000000000000000000000000000005f52604160045260245ffd5b7f4e487b71000000000000000000000000000000000000000000000000000000005f52602260045260245ffd5b5f600282049050600182168061016a57607f821691505b60208210810361017d5761017c610126565b5b50919050565b5f819050815f5260205f209050919050565b5f6020601f8301049050919050565b5f82821b905092915050565b5f600883026101df7fffffffffffffffffffffffffffffffffffffffffffffffffffffffffffffffff826101a4565b6101e986836101a4565b95508019841693508086168417925050509392505050565b5f819050919050565b5f819050919050565b5f61022d61022861022384610201565b61020a565b610201565b9050919050565b5f819050919050565b61024683610213565b61025a61025282610234565b8484546101b0565b825550505050565b5f5f905090565b610271610262565b61027c81848461023d565b505050565b5b8181101561029f576102945f82610269565b600181019050610282565b5050565b601f8211156102e4576102b581610183565b6102be84610195565b810160208510156102cd578190505b6102e16102d985610195565b830182610281565b50505b505050565b5f82821c905092915050565b5f6103045f19846008026102e9565b1980831691505092915050565b5f61031c83836102f5565b9150826002028217905092915050565b610335826100ef565b67ffffffffffffffff81111561034e5761034d6100f9565b5b6103588254610153565b6103638282856102a3565b5f60209050601f831160018114610394575f8415610382578287015190505b61038c8582610311565b8655506103f3565b601f1984166103a286610183565b5f5b828110156103c9578489015182556001820191506020850194506020810190506103a4565b868310156103e657848901516103e2601f8916826102f5565b8355505b6001600288020188555050505b505050505050565b610bd4806104085f395ff3fe608060405234801561000f575f5ffd5b5060043610610091575f3560e01c806390c3ee4d1161006457806390c3ee4d1461010a578063a2f9eac61461013a578063c2722ecc1461016b578063ca77ab6514610189578063cce3c857146101a757610091565b80631d9a3bdd1461009557806329ef62f0146100b1578063471f7cdf146100d05780635d0f9a88146100ee575b5f5ffd5b6100af60048036038101906100aa919061050d565b6101c6565b005b6100b96101f0565b6040516100c79291906105c0565b60405180910390f35b6100d8610287565b6040516100e591906105fd565b60405180910390f35b6101086004803603810190610103919061076c565b61029f565b005b610124600480360381019061011f91906107c6565b610323565b604051610131919061080d565b60405180910390f35b610154600480360381019061014f9190610826565b610350565b6040516101629291906105c0565b60405180910390f35b610173610405565b60405161018091906105fd565b60405180910390f35b610191610420565b60405161019e9190610869565b60405180910390f35b6101af610428565b6040516101bd9291906105c0565b60405180910390f35b805f5f6101000a81548167ffffffffffffffff021916908367ffffffffffffffff16021790555050565b6003805f018054610200906108af565b80601f016020809104026020016040519081016040528092919081815260200182805461022c906108af565b80156102775780601f1061024e57610100808354040283529160200191610277565b820191905f5260205f20905b81548152906001019060200180831161025a57829003601f168201915b5050505050908060010154905082565b5f5f9054906101000a900467ffffffffffffffff1681565b6005604051806040016040528084815260200183815250908060018154018082558091505060019003905f5260205f2090600202015f909190919091505f820151815f0190816102ef9190610a7f565b506020820151816001015550508060068360405161030d9190610b88565b9081526020016040518091039020819055505050565b6006818051602081018201805184825260208301602085012081835280955050505050505f915090505481565b6005818154811061035f575f80fd5b905f5260205f2090600202015f91509050805f01805461037e906108af565b80601f01602080910402602001604051908101604052809291908181526020018280546103aa906108af565b80156103f55780601f106103cc576101008083540402835291602001916103f5565b820191905f5260205f20905b8154815290600101906020018083116103d857829003601f168201915b5050505050908060010154905082565b5f5f5f9054906101000a900467ffffffffffffffff16905090565b5f6064905090565b6001805f018054610438906108af565b80601f0160208091040260200160405190810160405280929190818152602001828054610464906108af565b80156104af5780601f10610486576101008083540402835291602001916104af565b820191905f5260205f20905b81548152906001019060200180831161049257829003601f168201915b5050505050908060010154905082565b5f604051905090565b5f5ffd5b5f5ffd5b5f67ffffffffffffffff82169050919050565b6104ec816104d0565b81146104f6575f5ffd5b50565b5f81359050610507816104e3565b92915050565b5f60208284031215610522576105216104c8565b5b5f61052f848285016104f9565b91505092915050565b5f81519050919050565b5f82825260208201905092915050565b8281835e5f83830152505050565b5f601f19601f8301169050919050565b5f61057a82610538565b6105848185610542565b9350610594818560208601610552565b61059d81610560565b840191505092915050565b5f819050919050565b6105ba816105a8565b82525050565b5f6040820190508181035f8301526105d88185610570565b90506105e760208301846105b1565b9392505050565b6105f7816104d0565b82525050565b5f6020820190506106105f8301846105ee565b92915050565b5f5ffd5b5f5ffd5b7f4e487b71000000000000000000000000000000000000000000000000000000005f52604160045260245ffd5b61065482610560565b810181811067ffffffffffffffff821117156106735761067261061e565b5b80604052505050565b5f6106856104bf565b9050610691828261064b565b919050565b5f67ffffffffffffffff8211156106b0576106af61061e565b5b6106b982610560565b9050602081019050919050565b828183375f83830152505050565b5f6106e66106e184610696565b61067c565b9050828152602081018484840111156107025761070161061a565b5b61070d8482856106c6565b509392505050565b5f82601f83011261072957610728610616565b5b81356107398482602086016106d4565b91505092915050565b61074b816105a8565b8114610755575f5ffd5b50565b5f8135905061076681610742565b92915050565b5f5f60408385031215610782576107816104c8565b5b5f83013567ffffffffffffffff81111561079f5761079e6104cc565b5b6107ab85828601610715565b92505060206107bc85828601610758565b9150509250929050565b5f602082840312156107db576107da6104c8565b5b5f82013567ffffffffffffffff8111156107f8576107f76104cc565b5b61080484828501610715565b91505092915050565b5f6020820190506108205f8301846105b1565b92915050565b5f6020828403121561083b5761083a6104c8565b5b5f61084884828501610758565b91505092915050565b5f819050919050565b61086381610851565b82525050565b5f60208201905061087c5f83018461085a565b92915050565b7f4e487b71000000000000000000000000000000000000000000000000000000005f52602260045260245ffd5b5f60028204905060018216806108c657607f821691505b6020821081036108d9576108d8610882565b5b50919050565b5f819050815f5260205f209050919050565b5f6020601f8301049050919050565b5f82821b905092915050565b5f6008830261093b7fffffffffffffffffffffffffffffffffffffffffffffffffffffffffffffffff82610900565b6109458683610900565b95508019841693508086168417925050509392505050565b5f819050919050565b5f61098061097b610976846105a8565b61095d565b6105a8565b9050919050565b5f819050919050565b61099983610966565b6109ad6109a582610987565b84845461090c565b825550505050565b5f5f905090565b6109c46109b5565b6109cf818484610990565b505050565b5b818110156109f2576109e75f826109bc565b6001810190506109d5565b5050565b601f821115610a3757610a08816108df565b610a11846108f1565b81016020851015610a20578190505b610a34610a2c856108f1565b8301826109d4565b50505b505050565b5f82821c905092915050565b5f610a575f1984600802610a3c565b1980831691505092915050565b5f610a6f8383610a48565b9150826002028217905092915050565b610a8882610538565b67ffffffffffffffff811115610aa157610aa061061e565b5b610aab82546108af565b610ab68282856109f6565b5f60209050601f831160018114610ae7575f8415610ad5578287015190505b610adf8582610a64565b865550610b46565b601f198416610af5866108df565b5f5b82811015610b1c57848901518255600182019150602085019450602081019050610af7565b86831015610b395784890151610b35601f891682610a48565b8355505b6001600288020188555050505b505050505050565b5f81905092915050565b5f610b6282610538565b610b6c8185610b4e565b9350610b7c818560208601610552565b80840191505092915050565b5f610b938284610b58565b91508190509291505056fea2646970667358221220012a5da80ceb0f3f0f94d881516cbf7261d97da67a941e4d6aee0a7fcc2f3d2164736f6c634300081b0033",
					"opcodes": "PUSH1 0x80 PUSH1 0x40 MSTORE PUSH1 0x40 MLOAD DUP1 PUSH1 0x40 ADD PUSH1 0x40 MSTORE DUP1 PUSH1 0x40 MLOAD DUP1 PUSH1 0x40 ADD PUSH1 0x40 MSTORE DUP1 PUSH1 0x6 DUP2 MSTORE PUSH1 0x20 ADD PUSH32 0x64616E69656C0000000000000000000000000000000000000000000000000000 DUP2 MSTORE POP DUP2 MSTORE PUSH1 0x20 ADD PUSH1 0xA DUP2 MSTORE POP PUSH1 0x1 PUSH0 DUP3 ADD MLOAD DUP2 PUSH0 ADD SWAP1 DUP2 PUSH2 0x64 SWAP2 SWAP1 PUSH2 0x32C JUMP JUMPDEST POP PUSH1 0x20 DUP3 ADD MLOAD DUP2 PUSH1 0x1 ADD SSTORE POP POP PUSH1 0x40 MLOAD DUP1 PUSH1 0x40 ADD PUSH1 0x40 MSTORE DUP1 PUSH1 0x40 MLOAD DUP1 PUSH1 0x40 ADD PUSH1 0x40 MSTORE DUP1 PUSH1 0x5 DUP2 MSTORE PUSH1 0x20 ADD PUSH32 0x6572617A6F000000000000000000000000000000000000000000000000000000 DUP2 MSTORE POP DUP2 MSTORE PUSH1 0x20 ADD PUSH1 0x2A DUP2 MSTORE POP PUSH1 0x3 PUSH0 DUP3 ADD MLOAD DUP2 PUSH0 ADD SWAP1 DUP2 PUSH2 0xD1 SWAP2 SWAP1 PUSH2 0x32C JUMP JUMPDEST POP PUSH1 0x20 DUP3 ADD MLOAD DUP2 PUSH1 0x1 ADD SSTORE POP POP CALLVALUE DUP1 ISZERO PUSH2 0xE9 JUMPI PUSH0 PUSH0 REVERT JUMPDEST POP PUSH2 0x3FB JUMP JUMPDEST PUSH0 DUP2 MLOAD SWAP1 POP SWAP2 SWAP1 POP JUMP JUMPDEST PUSH32 0x4E487B7100000000000000000000000000000000000000000000000000000000 PUSH0 MSTORE PUSH1 0x41 PUSH1 0x4 MSTORE PUSH1 0x24 PUSH0 REVERT JUMPDEST PUSH32 0x4E487B7100000000000000000000000000000000000000000000000000000000 PUSH0 MSTORE PUSH1 0x22 PUSH1 0x4 MSTORE PUSH1 0x24 PUSH0 REVERT JUMPDEST PUSH0 PUSH1 0x2 DUP3 DIV SWAP1 POP PUSH1 0x1 DUP3 AND DUP1 PUSH2 0x16A JUMPI PUSH1 0x7F DUP3 AND SWAP2 POP JUMPDEST PUSH1 0x20 DUP3 LT DUP2 SUB PUSH2 0x17D JUMPI PUSH2 0x17C PUSH2 0x126 JUMP JUMPDEST JUMPDEST POP SWAP2 SWAP1 POP JUMP JUMPDEST PUSH0 DUP2 SWAP1 POP DUP2 PUSH0 MSTORE PUSH1 0x20 PUSH0 KECCAK256 SWAP1 POP SWAP2 SWAP1 POP JUMP JUMPDEST PUSH0 PUSH1 0x20 PUSH1 0x1F DUP4 ADD DIV SWAP1 POP SWAP2 SWAP1 POP JUMP JUMPDEST PUSH0 DUP3 DUP3 SHL SWAP1 POP SWAP3 SWAP2 POP POP JUMP JUMPDEST PUSH0 PUSH1 0x8 DUP4 MUL PUSH2 0x1DF PUSH32 0xFFFFFFFFFFFFFFFFFFFFFFFFFFFFFFFFFFFFFFFFFFFFFFFFFFFFFFFFFFFFFFFF DUP3 PUSH2 0x1A4 JUMP JUMPDEST PUSH2 0x1E9 DUP7 DUP4 PUSH2 0x1A4 JUMP JUMPDEST SWAP6 POP DUP1 NOT DUP5 AND SWAP4 POP DUP1 DUP7 AND DUP5 OR SWAP3 POP POP POP SWAP4 SWAP3 POP POP POP JUMP JUMPDEST PUSH0 DUP2 SWAP1 POP SWAP2 SWAP1 POP JUMP JUMPDEST PUSH0 DUP2 SWAP1 POP SWAP2 SWAP1 POP JUMP JUMPDEST PUSH0 PUSH2 0x22D PUSH2 0x228 PUSH2 0x223 DUP5 PUSH2 0x201 JUMP JUMPDEST PUSH2 0x20A JUMP JUMPDEST PUSH2 0x201 JUMP JUMPDEST SWAP1 POP SWAP2 SWAP1 POP JUMP JUMPDEST PUSH0 DUP2 SWAP1 POP SWAP2 SWAP1 POP JUMP JUMPDEST PUSH2 0x246 DUP4 PUSH2 0x213 JUMP JUMPDEST PUSH2 0x25A PUSH2 0x252 DUP3 PUSH2 0x234 JUMP JUMPDEST DUP5 DUP5 SLOAD PUSH2 0x1B0 JUMP JUMPDEST DUP3 SSTORE POP POP POP POP JUMP JUMPDEST PUSH0 PUSH0 SWAP1 POP SWAP1 JUMP JUMPDEST PUSH2 0x271 PUSH2 0x262 JUMP JUMPDEST PUSH2 0x27C DUP2 DUP5 DUP5 PUSH2 0x23D JUMP JUMPDEST POP POP POP JUMP JUMPDEST JUMPDEST DUP2 DUP2 LT ISZERO PUSH2 0x29F JUMPI PUSH2 0x294 PUSH0 DUP3 PUSH2 0x269 JUMP JUMPDEST PUSH1 0x1 DUP2 ADD SWAP1 POP PUSH2 0x282 JUMP JUMPDEST POP POP JUMP JUMPDEST PUSH1 0x1F DUP3 GT ISZERO PUSH2 0x2E4 JUMPI PUSH2 0x2B5 DUP2 PUSH2 0x183 JUMP JUMPDEST PUSH2 0x2BE DUP5 PUSH2 0x195 JUMP JUMPDEST DUP2 ADD PUSH1 0x20 DUP6 LT ISZERO PUSH2 0x2CD JUMPI DUP2 SWAP1 POP JUMPDEST PUSH2 0x2E1 PUSH2 0x2D9 DUP6 PUSH2 0x195 JUMP JUMPDEST DUP4 ADD DUP3 PUSH2 0x281 JUMP JUMPDEST POP POP JUMPDEST POP POP POP JUMP JUMPDEST PUSH0 DUP3 DUP3 SHR SWAP1 POP SWAP3 SWAP2 POP POP JUMP JUMPDEST PUSH0 PUSH2 0x304 PUSH0 NOT DUP5 PUSH1 0x8 MUL PUSH2 0x2E9 JUMP JUMPDEST NOT DUP1 DUP4 AND SWAP2 POP POP SWAP3 SWAP2 POP POP JUMP JUMPDEST PUSH0 PUSH2 0x31C DUP4 DUP4 PUSH2 0x2F5 JUMP JUMPDEST SWAP2 POP DUP3 PUSH1 0x2 MUL DUP3 OR SWAP1 POP SWAP3 SWAP2 POP POP JUMP JUMPDEST PUSH2 0x335 DUP3 PUSH2 0xEF JUMP JUMPDEST PUSH8 0xFFFFFFFFFFFFFFFF DUP2 GT ISZERO PUSH2 0x34E JUMPI PUSH2 0x34D PUSH2 0xF9 JUMP JUMPDEST JUMPDEST PUSH2 0x358 DUP3 SLOAD PUSH2 0x153 JUMP JUMPDEST PUSH2 0x363 DUP3 DUP3 DUP6 PUSH2 0x2A3 JUMP JUMPDEST PUSH0 PUSH1 0x20 SWAP1 POP PUSH1 0x1F DUP4 GT PUSH1 0x1 DUP2 EQ PUSH2 0x394 JUMPI PUSH0 DUP5 ISZERO PUSH2 0x382 JUMPI DUP3 DUP8 ADD MLOAD SWAP1 POP JUMPDEST PUSH2 0x38C DUP6 DUP3 PUSH2 0x311 JUMP JUMPDEST DUP7 SSTORE POP PUSH2 0x3F3 JUMP JUMPDEST PUSH1 0x1F NOT DUP5 AND PUSH2 0x3A2 DUP7 PUSH2 0x183 JUMP JUMPDEST PUSH0 JUMPDEST DUP3 DUP2 LT ISZERO PUSH2 0x3C9 JUMPI DUP5 DUP10 ADD MLOAD DUP3 SSTORE PUSH1 0x1 DUP3 ADD SWAP2 POP PUSH1 0x20 DUP6 ADD SWAP5 POP PUSH1 0x20 DUP2 ADD SWAP1 POP PUSH2 0x3A4 JUMP JUMPDEST DUP7 DUP4 LT ISZERO PUSH2 0x3E6 JUMPI DUP5 DUP10 ADD MLOAD PUSH2 0x3E2 PUSH1 0x1F DUP10 AND DUP3 PUSH2 0x2F5 JUMP JUMPDEST DUP4 SSTORE POP JUMPDEST PUSH1 0x1 PUSH1 0x2 DUP9 MUL ADD DUP9 SSTORE POP POP POP JUMPDEST POP POP POP POP POP POP JUMP JUMPDEST PUSH2 0xBD4 DUP1 PUSH2 0x408 PUSH0 CODECOPY PUSH0 RETURN INVALID PUSH1 0x80 PUSH1 0x40 MSTORE CALLVALUE DUP1 ISZERO PUSH2 0xF JUMPI PUSH0 PUSH0 REVERT JUMPDEST POP PUSH1 0x4 CALLDATASIZE LT PUSH2 0x91 JUMPI PUSH0 CALLDATALOAD PUSH1 0xE0 SHR DUP1 PUSH4 0x90C3EE4D GT PUSH2 0x64 JUMPI DUP1 PUSH4 0x90C3EE4D EQ PUSH2 0x10A JUMPI DUP1 PUSH4 0xA2F9EAC6 EQ PUSH2 0x13A JUMPI DUP1 PUSH4 0xC2722ECC EQ PUSH2 0x16B JUMPI DUP1 PUSH4 0xCA77AB65 EQ PUSH2 0x189 JUMPI DUP1 PUSH4 0xCCE3C857 EQ PUSH2 0x1A7 JUMPI PUSH2 0x91 JUMP JUMPDEST DUP1 PUSH4 0x1D9A3BDD EQ PUSH2 0x95 JUMPI DUP1 PUSH4 0x29EF62F0 EQ PUSH2 0xB1 JUMPI DUP1 PUSH4 0x471F7CDF EQ PUSH2 0xD0 JUMPI DUP1 PUSH4 0x5D0F9A88 EQ PUSH2 0xEE JUMPI JUMPDEST PUSH0 PUSH0 REVERT JUMPDEST PUSH2 0xAF PUSH1 0x4 DUP1 CALLDATASIZE SUB DUP2 ADD SWAP1 PUSH2 0xAA SWAP2 SWAP1 PUSH2 0x50D JUMP JUMPDEST PUSH2 0x1C6 JUMP JUMPDEST STOP JUMPDEST PUSH2 0xB9 PUSH2 0x1F0 JUMP JUMPDEST PUSH1 0x40 MLOAD PUSH2 0xC7 SWAP3 SWAP2 SWAP1 PUSH2 0x5C0 JUMP JUMPDEST PUSH1 0x40 MLOAD DUP1 SWAP2 SUB SWAP1 RETURN JUMPDEST PUSH2 0xD8 PUSH2 0x287 JUMP JUMPDEST PUSH1 0x40 MLOAD PUSH2 0xE5 SWAP2 SWAP1 PUSH2 0x5FD JUMP JUMPDEST PUSH1 0x40 MLOAD DUP1 SWAP2 SUB SWAP1 RETURN JUMPDEST PUSH2 0x108 PUSH1 0x4 DUP1 CALLDATASIZE SUB DUP2 ADD SWAP1 PUSH2 0x103 SWAP2 SWAP1 PUSH2 0x76C JUMP JUMPDEST PUSH2 0x29F JUMP JUMPDEST STOP JUMPDEST PUSH2 0x124 PUSH1 0x4 DUP1 CALLDATASIZE SUB DUP2 ADD SWAP1 PUSH2 0x11F SWAP2 SWAP1 PUSH2 0x7C6 JUMP JUMPDEST PUSH2 0x323 JUMP JUMPDEST PUSH1 0x40 MLOAD PUSH2 0x131 SWAP2 SWAP1 PUSH2 0x80D JUMP JUMPDEST PUSH1 0x40 MLOAD DUP1 SWAP2 SUB SWAP1 RETURN JUMPDEST PUSH2 0x154 PUSH1 0x4 DUP1 CALLDATASIZE SUB DUP2 ADD SWAP1 PUSH2 0x14F SWAP2 SWAP1 PUSH2 0x826 JUMP JUMPDEST PUSH2 0x350 JUMP JUMPDEST PUSH1 0x40 MLOAD PUSH2 0x162 SWAP3 SWAP2 SWAP1 PUSH2 0x5C0 JUMP JUMPDEST PUSH1 0x40 MLOAD DUP1 SWAP2 SUB SWAP1 RETURN JUMPDEST PUSH2 0x173 PUSH2 0x405 JUMP JUMPDEST PUSH1 0x40 MLOAD PUSH2 0x180 SWAP2 SWAP1 PUSH2 0x5FD JUMP JUMPDEST PUSH1 0x40 MLOAD DUP1 SWAP2 SUB SWAP1 RETURN JUMPDEST PUSH2 0x191 PUSH2 0x420 JUMP JUMPDEST PUSH1 0x40 MLOAD PUSH2 0x19E SWAP2 SWAP1 PUSH2 0x869 JUMP JUMPDEST PUSH1 0x40 MLOAD DUP1 SWAP2 SUB SWAP1 RETURN JUMPDEST PUSH2 0x1AF PUSH2 0x428 JUMP JUMPDEST PUSH1 0x40 MLOAD PUSH2 0x1BD SWAP3 SWAP2 SWAP1 PUSH2 0x5C0 JUMP JUMPDEST PUSH1 0x40 MLOAD DUP1 SWAP2 SUB SWAP1 RETURN JUMPDEST DUP1 PUSH0 PUSH0 PUSH2 0x100 EXP DUP2 SLOAD DUP2 PUSH8 0xFFFFFFFFFFFFFFFF MUL NOT AND SWAP1 DUP4 PUSH8 0xFFFFFFFFFFFFFFFF AND MUL OR SWAP1 SSTORE POP POP JUMP JUMPDEST PUSH1 0x3 DUP1 PUSH0 ADD DUP1 SLOAD PUSH2 0x200 SWAP1 PUSH2 0x8AF JUMP JUMPDEST DUP1 PUSH1 0x1F ADD PUSH1 0x20 DUP1 SWAP2 DIV MUL PUSH1 0x20 ADD PUSH1 0x40 MLOAD SWAP1 DUP2 ADD PUSH1 0x40 MSTORE DUP1 SWAP3 SWAP2 SWAP1 DUP2 DUP2 MSTORE PUSH1 0x20 ADD DUP3 DUP1 SLOAD PUSH2 0x22C SWAP1 PUSH2 0x8AF JUMP JUMPDEST DUP1 ISZERO PUSH2 0x277 JUMPI DUP1 PUSH1 0x1F LT PUSH2 0x24E JUMPI PUSH2 0x100 DUP1 DUP4 SLOAD DIV MUL DUP4 MSTORE SWAP2 PUSH1 0x20 ADD SWAP2 PUSH2 0x277 JUMP JUMPDEST DUP3 ADD SWAP2 SWAP1 PUSH0 MSTORE PUSH1 0x20 PUSH0 KECCAK256 SWAP1 JUMPDEST DUP2 SLOAD DUP2 MSTORE SWAP1 PUSH1 0x1 ADD SWAP1 PUSH1 0x20 ADD DUP1 DUP4 GT PUSH2 0x25A JUMPI DUP3 SWAP1 SUB PUSH1 0x1F AND DUP3 ADD SWAP2 JUMPDEST POP POP POP POP POP SWAP1 DUP1 PUSH1 0x1 ADD SLOAD SWAP1 POP DUP3 JUMP JUMPDEST PUSH0 PUSH0 SWAP1 SLOAD SWAP1 PUSH2 0x100 EXP SWAP1 DIV PUSH8 0xFFFFFFFFFFFFFFFF AND DUP2 JUMP JUMPDEST PUSH1 0x5 PUSH1 0x40 MLOAD DUP1 PUSH1 0x40 ADD PUSH1 0x40 MSTORE DUP1 DUP5 DUP2 MSTORE PUSH1 0x20 ADD DUP4 DUP2 MSTORE POP SWAP1 DUP1 PUSH1 0x1 DUP2 SLOAD ADD DUP1 DUP3 SSTORE DUP1 SWAP2 POP POP PUSH1 0x1 SWAP1 SUB SWAP1 PUSH0 MSTORE PUSH1 0x20 PUSH0 KECCAK256 SWAP1 PUSH1 0x2 MUL ADD PUSH0 SWAP1 SWAP2 SWAP1 SWAP2 SWAP1 SWAP2 POP PUSH0 DUP3 ADD MLOAD DUP2 PUSH0 ADD SWAP1 DUP2 PUSH2 0x2EF SWAP2 SWAP1 PUSH2 0xA7F JUMP JUMPDEST POP PUSH1 0x20 DUP3 ADD MLOAD DUP2 PUSH1 0x1 ADD SSTORE POP POP DUP1 PUSH1 0x6 DUP4 PUSH1 0x40 MLOAD PUSH2 0x30D SWAP2 SWAP1 PUSH2 0xB88 JUMP JUMPDEST SWAP1 DUP2 MSTORE PUSH1 0x20 ADD PUSH1 0x40 MLOAD DUP1 SWAP2 SUB SWAP1 KECCAK256 DUP2 SWAP1 SSTORE POP POP POP JUMP JUMPDEST PUSH1 0x6 DUP2 DUP1 MLOAD PUSH1 0x20 DUP2 ADD DUP3 ADD DUP1 MLOAD DUP5 DUP3 MSTORE PUSH1 0x20 DUP4 ADD PUSH1 0x20 DUP6 ADD KECCAK256 DUP2 DUP4 MSTORE DUP1 SWAP6 POP POP POP POP POP POP PUSH0 SWAP2 POP SWAP1 POP SLOAD DUP2 JUMP JUMPDEST PUSH1 0x5 DUP2 DUP2 SLOAD DUP2 LT PUSH2 0x35F JUMPI PUSH0 DUP1 REVERT JUMPDEST SWAP1 PUSH0 MSTORE PUSH1 0x20 PUSH0 KECCAK256 SWAP1 PUSH1 0x2 MUL ADD PUSH0 SWAP2 POP SWAP1 POP DUP1 PUSH0 ADD DUP1 SLOAD PUSH2 0x37E SWAP1 PUSH2 0x8AF JUMP JUMPDEST DUP1 PUSH1 0x1F ADD PUSH1 0x20 DUP1 SWAP2 DIV MUL PUSH1 0x20 ADD PUSH1 0x40 MLOAD SWAP1 DUP2 ADD PUSH1 0x40 MSTORE DUP1 SWAP3 SWAP2 SWAP1 DUP2 DUP2 MSTORE PUSH1 0x20 ADD DUP3 DUP1 SLOAD PUSH2 0x3AA SWAP1 PUSH2 0x8AF JUMP JUMPDEST DUP1 ISZERO PUSH2 0x3F5 JUMPI DUP1 PUSH1 0x1F LT PUSH2 0x3CC JUMPI PUSH2 0x100 DUP1 DUP4 SLOAD DIV MUL DUP4 MSTORE SWAP2 PUSH1 0x20 ADD SWAP2 PUSH2 0x3F5 JUMP JUMPDEST DUP3 ADD SWAP2 SWAP1 PUSH0 MSTORE PUSH1 0x20 PUSH0 KECCAK256 SWAP1 JUMPDEST DUP2 SLOAD DUP2 MSTORE SWAP1 PUSH1 0x1 ADD SWAP1 PUSH1 0x20 ADD DUP1 DUP4 GT PUSH2 0x3D8 JUMPI DUP3 SWAP1 SUB PUSH1 0x1F AND DUP3 ADD SWAP2 JUMPDEST POP POP POP POP POP SWAP1 DUP1 PUSH1 0x1 ADD SLOAD SWAP1 POP DUP3 JUMP JUMPDEST PUSH0 PUSH0 PUSH0 SWAP1 SLOAD SWAP1 PUSH2 0x100 EXP SWAP1 DIV PUSH8 0xFFFFFFFFFFFFFFFF AND SWAP1 POP SWAP1 JUMP JUMPDEST PUSH0 PUSH1 0x64 SWAP1 POP SWAP1 JUMP JUMPDEST PUSH1 0x1 DUP1 PUSH0 ADD DUP1 SLOAD PUSH2 0x438 SWAP1 PUSH2 0x8AF JUMP JUMPDEST DUP1 PUSH1 0x1F ADD PUSH1 0x20 DUP1 SWAP2 DIV MUL PUSH1 0x20 ADD PUSH1 0x40 MLOAD SWAP1 DUP2 ADD PUSH1 0x40 MSTORE DUP1 SWAP3 SWAP2 SWAP1 DUP2 DUP2 MSTORE PUSH1 0x20 ADD DUP3 DUP1 SLOAD PUSH2 0x464 SWAP1 PUSH2 0x8AF JUMP JUMPDEST DUP1 ISZERO PUSH2 0x4AF JUMPI DUP1 PUSH1 0x1F LT PUSH2 0x486 JUMPI PUSH2 0x100 DUP1 DUP4 SLOAD DIV MUL DUP4 MSTORE SWAP2 PUSH1 0x20 ADD SWAP2 PUSH2 0x4AF JUMP JUMPDEST DUP3 ADD SWAP2 SWAP1 PUSH0 MSTORE PUSH1 0x20 PUSH0 KECCAK256 SWAP1 JUMPDEST DUP2 SLOAD DUP2 MSTORE SWAP1 PUSH1 0x1 ADD SWAP1 PUSH1 0x20 ADD DUP1 DUP4 GT PUSH2 0x492 JUMPI DUP3 SWAP1 SUB PUSH1 0x1F AND DUP3 ADD SWAP2 JUMPDEST POP POP POP POP POP SWAP1 DUP1 PUSH1 0x1 ADD SLOAD SWAP1 POP DUP3 JUMP JUMPDEST PUSH0 PUSH1 0x40 MLOAD SWAP1 POP SWAP1 JUMP JUMPDEST PUSH0 PUSH0 REVERT JUMPDEST PUSH0 PUSH0 REVERT JUMPDEST PUSH0 PUSH8 0xFFFFFFFFFFFFFFFF DUP3 AND SWAP1 POP SWAP2 SWAP1 POP JUMP JUMPDEST PUSH2 0x4EC DUP2 PUSH2 0x4D0 JUMP JUMPDEST DUP2 EQ PUSH2 0x4F6 JUMPI PUSH0 PUSH0 REVERT JUMPDEST POP JUMP JUMPDEST PUSH0 DUP2 CALLDATALOAD SWAP1 POP PUSH2 0x507 DUP2 PUSH2 0x4E3 JUMP JUMPDEST SWAP3 SWAP2 POP POP JUMP JUMPDEST PUSH0 PUSH1 0x20 DUP3 DUP5 SUB SLT ISZERO PUSH2 0x522 JUMPI PUSH2 0x521 PUSH2 0x4C8 JUMP JUMPDEST JUMPDEST PUSH0 PUSH2 0x52F DUP5 DUP3 DUP6 ADD PUSH2 0x4F9 JUMP JUMPDEST SWAP2 POP POP SWAP3 SWAP2 POP POP JUMP JUMPDEST PUSH0 DUP2 MLOAD SWAP1 POP SWAP2 SWAP1 POP JUMP JUMPDEST PUSH0 DUP3 DUP3 MSTORE PUSH1 0x20 DUP3 ADD SWAP1 POP SWAP3 SWAP2 POP POP JUMP JUMPDEST DUP3 DUP2 DUP4 MCOPY PUSH0 DUP4 DUP4 ADD MSTORE POP POP POP JUMP JUMPDEST PUSH0 PUSH1 0x1F NOT PUSH1 0x1F DUP4 ADD AND SWAP1 POP SWAP2 SWAP1 POP JUMP JUMPDEST PUSH0 PUSH2 0x57A DUP3 PUSH2 0x538 JUMP JUMPDEST PUSH2 0x584 DUP2 DUP6 PUSH2 0x542 JUMP JUMPDEST SWAP4 POP PUSH2 0x594 DUP2 DUP6 PUSH1 0x20 DUP7 ADD PUSH2 0x552 JUMP JUMPDEST PUSH2 0x59D DUP2 PUSH2 0x560 JUMP JUMPDEST DUP5 ADD SWAP2 POP POP SWAP3 SWAP2 POP POP JUMP JUMPDEST PUSH0 DUP2 SWAP1 POP SWAP2 SWAP1 POP JUMP JUMPDEST PUSH2 0x5BA DUP2 PUSH2 0x5A8 JUMP JUMPDEST DUP3 MSTORE POP POP JUMP JUMPDEST PUSH0 PUSH1 0x40 DUP3 ADD SWAP1 POP DUP2 DUP2 SUB PUSH0 DUP4 ADD MSTORE PUSH2 0x5D8 DUP2 DUP6 PUSH2 0x570 JUMP JUMPDEST SWAP1 POP PUSH2 0x5E7 PUSH1 0x20 DUP4 ADD DUP5 PUSH2 0x5B1 JUMP JUMPDEST SWAP4 SWAP3 POP POP POP JUMP JUMPDEST PUSH2 0x5F7 DUP2 PUSH2 0x4D0 JUMP JUMPDEST DUP3 MSTORE POP POP JUMP JUMPDEST PUSH0 PUSH1 0x20 DUP3 ADD SWAP1 POP PUSH2 0x610 PUSH0 DUP4 ADD DUP5 PUSH2 0x5EE JUMP JUMPDEST SWAP3 SWAP2 POP POP JUMP JUMPDEST PUSH0 PUSH0 REVERT JUMPDEST PUSH0 PUSH0 REVERT JUMPDEST PUSH32 0x4E487B7100000000000000000000000000000000000000000000000000000000 PUSH0 MSTORE PUSH1 0x41 PUSH1 0x4 MSTORE PUSH1 0x24 PUSH0 REVERT JUMPDEST PUSH2 0x654 DUP3 PUSH2 0x560 JUMP JUMPDEST DUP2 ADD DUP2 DUP2 LT PUSH8 0xFFFFFFFFFFFFFFFF DUP3 GT OR ISZERO PUSH2 0x673 JUMPI PUSH2 0x672 PUSH2 0x61E JUMP JUMPDEST JUMPDEST DUP1 PUSH1 0x40 MSTORE POP POP POP JUMP JUMPDEST PUSH0 PUSH2 0x685 PUSH2 0x4BF JUMP JUMPDEST SWAP1 POP PUSH2 0x691 DUP3 DUP3 PUSH2 0x64B JUMP JUMPDEST SWAP2 SWAP1 POP JUMP JUMPDEST PUSH0 PUSH8 0xFFFFFFFFFFFFFFFF DUP3 GT ISZERO PUSH2 0x6B0 JUMPI PUSH2 0x6AF PUSH2 0x61E JUMP JUMPDEST JUMPDEST PUSH2 0x6B9 DUP3 PUSH2 0x560 JUMP JUMPDEST SWAP1 POP PUSH1 0x20 DUP2 ADD SWAP1 POP SWAP2 SWAP1 POP JUMP JUMPDEST DUP3 DUP2 DUP4 CALLDATACOPY PUSH0 DUP4 DUP4 ADD MSTORE POP POP POP JUMP JUMPDEST PUSH0 PUSH2 0x6E6 PUSH2 0x6E1 DUP5 PUSH2 0x696 JUMP JUMPDEST PUSH2 0x67C JUMP JUMPDEST SWAP1 POP DUP3 DUP2 MSTORE PUSH1 0x20 DUP2 ADD DUP5 DUP5 DUP5 ADD GT ISZERO PUSH2 0x702 JUMPI PUSH2 0x701 PUSH2 0x61A JUMP JUMPDEST JUMPDEST PUSH2 0x70D DUP5 DUP3 DUP6 PUSH2 0x6C6 JUMP JUMPDEST POP SWAP4 SWAP3 POP POP POP JUMP JUMPDEST PUSH0 DUP3 PUSH1 0x1F DUP4 ADD SLT PUSH2 0x729 JUMPI PUSH2 0x728 PUSH2 0x616 JUMP JUMPDEST JUMPDEST DUP2 CALLDATALOAD PUSH2 0x739 DUP5 DUP3 PUSH1 0x20 DUP7 ADD PUSH2 0x6D4 JUMP JUMPDEST SWAP2 POP POP SWAP3 SWAP2 POP POP JUMP JUMPDEST PUSH2 0x74B DUP2 PUSH2 0x5A8 JUMP JUMPDEST DUP2 EQ PUSH2 0x755 JUMPI PUSH0 PUSH0 REVERT JUMPDEST POP JUMP JUMPDEST PUSH0 DUP2 CALLDATALOAD SWAP1 POP PUSH2 0x766 DUP2 PUSH2 0x742 JUMP JUMPDEST SWAP3 SWAP2 POP POP JUMP JUMPDEST PUSH0 PUSH0 PUSH1 0x40 DUP4 DUP6 SUB SLT ISZERO PUSH2 0x782 JUMPI PUSH2 0x781 PUSH2 0x4C8 JUMP JUMPDEST JUMPDEST PUSH0 DUP4 ADD CALLDATALOAD PUSH8 0xFFFFFFFFFFFFFFFF DUP2 GT ISZERO PUSH2 0x79F JUMPI PUSH2 0x79E PUSH2 0x4CC JUMP JUMPDEST JUMPDEST PUSH2 0x7AB DUP6 DUP3 DUP7 ADD PUSH2 0x715 JUMP JUMPDEST SWAP3 POP POP PUSH1 0x20 PUSH2 0x7BC DUP6 DUP3 DUP7 ADD PUSH2 0x758 JUMP JUMPDEST SWAP2 POP POP SWAP3 POP SWAP3 SWAP1 POP JUMP JUMPDEST PUSH0 PUSH1 0x20 DUP3 DUP5 SUB SLT ISZERO PUSH2 0x7DB JUMPI PUSH2 0x7DA PUSH2 0x4C8 JUMP JUMPDEST JUMPDEST PUSH0 DUP3 ADD CALLDATALOAD PUSH8 0xFFFFFFFFFFFFFFFF DUP2 GT ISZERO PUSH2 0x7F8 JUMPI PUSH2 0x7F7 PUSH2 0x4CC JUMP JUMPDEST JUMPDEST PUSH2 0x804 DUP5 DUP3 DUP6 ADD PUSH2 0x715 JUMP JUMPDEST SWAP2 POP POP SWAP3 SWAP2 POP POP JUMP JUMPDEST PUSH0 PUSH1 0x20 DUP3 ADD SWAP1 POP PUSH2 0x820 PUSH0 DUP4 ADD DUP5 PUSH2 0x5B1 JUMP JUMPDEST SWAP3 SWAP2 POP POP JUMP JUMPDEST PUSH0 PUSH1 0x20 DUP3 DUP5 SUB SLT ISZERO PUSH2 0x83B JUMPI PUSH2 0x83A PUSH2 0x4C8 JUMP JUMPDEST JUMPDEST PUSH0 PUSH2 0x848 DUP5 DUP3 DUP6 ADD PUSH2 0x758 JUMP JUMPDEST SWAP2 POP POP SWAP3 SWAP2 POP POP JUMP JUMPDEST PUSH0 DUP2 SWAP1 POP SWAP2 SWAP1 POP JUMP JUMPDEST PUSH2 0x863 DUP2 PUSH2 0x851 JUMP JUMPDEST DUP3 MSTORE POP POP JUMP JUMPDEST PUSH0 PUSH1 0x20 DUP3 ADD SWAP1 POP PUSH2 0x87C PUSH0 DUP4 ADD DUP5 PUSH2 0x85A JUMP JUMPDEST SWAP3 SWAP2 POP POP JUMP JUMPDEST PUSH32 0x4E487B7100000000000000000000000000000000000000000000000000000000 PUSH0 MSTORE PUSH1 0x22 PUSH1 0x4 MSTORE PUSH1 0x24 PUSH0 REVERT JUMPDEST PUSH0 PUSH1 0x2 DUP3 DIV SWAP1 POP PUSH1 0x1 DUP3 AND DUP1 PUSH2 0x8C6 JUMPI PUSH1 0x7F DUP3 AND SWAP2 POP JUMPDEST PUSH1 0x20 DUP3 LT DUP2 SUB PUSH2 0x8D9 JUMPI PUSH2 0x8D8 PUSH2 0x882 JUMP JUMPDEST JUMPDEST POP SWAP2 SWAP1 POP JUMP JUMPDEST PUSH0 DUP2 SWAP1 POP DUP2 PUSH0 MSTORE PUSH1 0x20 PUSH0 KECCAK256 SWAP1 POP SWAP2 SWAP1 POP JUMP JUMPDEST PUSH0 PUSH1 0x20 PUSH1 0x1F DUP4 ADD DIV SWAP1 POP SWAP2 SWAP1 POP JUMP JUMPDEST PUSH0 DUP3 DUP3 SHL SWAP1 POP SWAP3 SWAP2 POP POP JUMP JUMPDEST PUSH0 PUSH1 0x8 DUP4 MUL PUSH2 0x93B PUSH32 0xFFFFFFFFFFFFFFFFFFFFFFFFFFFFFFFFFFFFFFFFFFFFFFFFFFFFFFFFFFFFFFFF DUP3 PUSH2 0x900 JUMP JUMPDEST PUSH2 0x945 DUP7 DUP4 PUSH2 0x900 JUMP JUMPDEST SWAP6 POP DUP1 NOT DUP5 AND SWAP4 POP DUP1 DUP7 AND DUP5 OR SWAP3 POP POP POP SWAP4 SWAP3 POP POP POP JUMP JUMPDEST PUSH0 DUP2 SWAP1 POP SWAP2 SWAP1 POP JUMP JUMPDEST PUSH0 PUSH2 0x980 PUSH2 0x97B PUSH2 0x976 DUP5 PUSH2 0x5A8 JUMP JUMPDEST PUSH2 0x95D JUMP JUMPDEST PUSH2 0x5A8 JUMP JUMPDEST SWAP1 POP SWAP2 SWAP1 POP JUMP JUMPDEST PUSH0 DUP2 SWAP1 POP SWAP2 SWAP1 POP JUMP JUMPDEST PUSH2 0x999 DUP4 PUSH2 0x966 JUMP JUMPDEST PUSH2 0x9AD PUSH2 0x9A5 DUP3 PUSH2 0x987 JUMP JUMPDEST DUP5 DUP5 SLOAD PUSH2 0x90C JUMP JUMPDEST DUP3 SSTORE POP POP POP POP JUMP JUMPDEST PUSH0 PUSH0 SWAP1 POP SWAP1 JUMP JUMPDEST PUSH2 0x9C4 PUSH2 0x9B5 JUMP JUMPDEST PUSH2 0x9CF DUP2 DUP5 DUP5 PUSH2 0x990 JUMP JUMPDEST POP POP POP JUMP JUMPDEST JUMPDEST DUP2 DUP2 LT ISZERO PUSH2 0x9F2 JUMPI PUSH2 0x9E7 PUSH0 DUP3 PUSH2 0x9BC JUMP JUMPDEST PUSH1 0x1 DUP2 ADD SWAP1 POP PUSH2 0x9D5 JUMP JUMPDEST POP POP JUMP JUMPDEST PUSH1 0x1F DUP3 GT ISZERO PUSH2 0xA37 JUMPI PUSH2 0xA08 DUP2 PUSH2 0x8DF JUMP JUMPDEST PUSH2 0xA11 DUP5 PUSH2 0x8F1 JUMP JUMPDEST DUP2 ADD PUSH1 0x20 DUP6 LT ISZERO PUSH2 0xA20 JUMPI DUP2 SWAP1 POP JUMPDEST PUSH2 0xA34 PUSH2 0xA2C DUP6 PUSH2 0x8F1 JUMP JUMPDEST DUP4 ADD DUP3 PUSH2 0x9D4 JUMP JUMPDEST POP POP JUMPDEST POP POP POP JUMP JUMPDEST PUSH0 DUP3 DUP3 SHR SWAP1 POP SWAP3 SWAP2 POP POP JUMP JUMPDEST PUSH0 PUSH2 0xA57 PUSH0 NOT DUP5 PUSH1 0x8 MUL PUSH2 0xA3C JUMP JUMPDEST NOT DUP1 DUP4 AND SWAP2 POP POP SWAP3 SWAP2 POP POP JUMP JUMPDEST PUSH0 PUSH2 0xA6F DUP4 DUP4 PUSH2 0xA48 JUMP JUMPDEST SWAP2 POP DUP3 PUSH1 0x2 MUL DUP3 OR SWAP1 POP SWAP3 SWAP2 POP POP JUMP JUMPDEST PUSH2 0xA88 DUP3 PUSH2 0x538 JUMP JUMPDEST PUSH8 0xFFFFFFFFFFFFFFFF DUP2 GT ISZERO PUSH2 0xAA1 JUMPI PUSH2 0xAA0 PUSH2 0x61E JUMP JUMPDEST JUMPDEST PUSH2 0xAAB DUP3 SLOAD PUSH2 0x8AF JUMP JUMPDEST PUSH2 0xAB6 DUP3 DUP3 DUP6 PUSH2 0x9F6 JUMP JUMPDEST PUSH0 PUSH1 0x20 SWAP1 POP PUSH1 0x1F DUP4 GT PUSH1 0x1 DUP2 EQ PUSH2 0xAE7 JUMPI PUSH0 DUP5 ISZERO PUSH2 0xAD5 JUMPI DUP3 DUP8 ADD MLOAD SWAP1 POP JUMPDEST PUSH2 0xADF DUP6 DUP3 PUSH2 0xA64 JUMP JUMPDEST DUP7 SSTORE POP PUSH2 0xB46 JUMP JUMPDEST PUSH1 0x1F NOT DUP5 AND PUSH2 0xAF5 DUP7 PUSH2 0x8DF JUMP JUMPDEST PUSH0 JUMPDEST DUP3 DUP2 LT ISZERO PUSH2 0xB1C JUMPI DUP5 DUP10 ADD MLOAD DUP3 SSTORE PUSH1 0x1 DUP3 ADD SWAP2 POP PUSH1 0x20 DUP6 ADD SWAP5 POP PUSH1 0x20 DUP2 ADD SWAP1 POP PUSH2 0xAF7 JUMP JUMPDEST DUP7 DUP4 LT ISZERO PUSH2 0xB39 JUMPI DUP5 DUP10 ADD MLOAD PUSH2 0xB35 PUSH1 0x1F DUP10 AND DUP3 PUSH2 0xA48 JUMP JUMPDEST DUP4 SSTORE POP JUMPDEST PUSH1 0x1 PUSH1 0x2 DUP9 MUL ADD DUP9 SSTORE POP POP POP JUMPDEST POP POP POP POP POP POP JUMP JUMPDEST PUSH0 DUP2 SWAP1 POP SWAP3 SWAP2 POP POP JUMP JUMPDEST PUSH0 PUSH2 0xB62 DUP3 PUSH2 0x538 JUMP JUMPDEST PUSH2 0xB6C DUP2 DUP6 PUSH2 0xB4E JUMP JUMPDEST SWAP4 POP PUSH2 0xB7C DUP2 DUP6 PUSH1 0x20 DUP7 ADD PUSH2 0x552 JUMP JUMPDEST DUP1 DUP5 ADD SWAP2 POP POP SWAP3 SWAP2 POP POP JUMP JUMPDEST PUSH0 PUSH2 0xB93 DUP3 DUP5 PUSH2 0xB58 JUMP JUMPDEST SWAP2 POP DUP2 SWAP1 POP SWAP3 SWAP2 POP POP JUMP INVALID LOG2 PUSH5 0x6970667358 0x22 SLT KECCAK256 ADD 0x2A TSTORE 0xA8 0xC 0xEB 0xF EXTCODEHASH 0xF SWAP5 0xD8 DUP2 MLOAD PUSH13 0xBF7261D97DA67A941E4D6AEE0A PUSH32 0xCC2F3D2164736F6C634300081B00330000000000000000000000000000000000 "
				},
				"gasEstimates": {
					"creation": {
						"codeDepositCost": "605600",
						"executionCost": "infinite",
						"totalCost": "infinite"
					},
					"external": {
						"calculate()": "398",
						"daniel()": "infinite",
						"erazo()": "infinite",
						"favoriteNumber()": "2510",
						"getStore()": "2516",
						"nameToAge(string)": "infinite",
						"persons(uint256)": "infinite",
						"pushPerson(string,uint256)": "infinite",
						"store(uint64)": "24673"
					}
				},
				"methodIdentifiers": {
					"calculate()": "ca77ab65",
					"daniel()": "cce3c857",
					"erazo()": "29ef62f0",
					"favoriteNumber()": "471f7cdf",
					"getStore()": "c2722ecc",
					"nameToAge(string)": "90c3ee4d",
					"persons(uint256)": "a2f9eac6",
					"pushPerson(string,uint256)": "5d0f9a88",
					"store(uint64)": "1d9a3bdd"
				}
			},
			"storageLayout": {
				"storage": [
					{
						"astId": 3,
						"contract": "SimpleStorage.sol:SimpleStorage",
						"label": "favoriteNumber",
						"offset": 0,
						"slot": "0",
						"type": "t_uint64"
					},
					{
						"astId": 25,
						"contract": "SimpleStorage.sol:SimpleStorage",
						"label": "daniel",
						"offset": 0,
						"slot": "1",
						"type": "t_struct(Person)18_storage"
					},
					{
						"astId": 32,
						"contract": "SimpleStorage.sol:SimpleStorage",
						"label": "erazo",
						"offset": 0,
						"slot": "3",
						"type": "t_struct(Person)18_storage"
					},
					{
						"astId": 54,
						"contract": "SimpleStorage.sol:SimpleStorage",
						"label": "persons",
						"offset": 0,
						"slot": "5",
						"type": "t_array(t_struct(Person)18_storage)dyn_storage"
					},
					{
						"astId": 81,
						"contract": "SimpleStorage.sol:SimpleStorage",
						"label": "nameToAge",
						"offset": 0,
						"slot": "6",
						"type": "t_mapping(t_string_memory_ptr,t_uint256)"
					}
				],
				"types": {
					"t_array(t_struct(Person)18_storage)dyn_storage": {
						"base": "t_struct(Person)18_storage",
						"encoding": "dynamic_array",
						"label": "struct SimpleStorage.Person[]",
						"numberOfBytes": "32"
					},
					"t_mapping(t_string_memory_ptr,t_uint256)": {
						"encoding": "mapping",
						"key": "t_string_memory_ptr",
						"label": "mapping(string => uint256)",
						"numberOfBytes": "32",
						"value": "t_uint256"
					},
					"t_string_memory_ptr": {
						"encoding": "bytes",
						"label": "string",
						"numberOfBytes": "32"
					},
					"t_string_storage": {
						"encoding": "bytes",
						"label": "string",
						"numberOfBytes": "32"
					},
					"t_struct(Person)18_storage": {
						"encoding": "inplace",
						"label": "struct SimpleStorage.Person",
						"members": [
							{
								"astId": 15,
								"contract": "SimpleStorage.sol:SimpleStorage",
								"label": "name",
								"offset": 0,
								"slot": "0",
								"type": "t_string_storage"
							},
							{
								"astId": 17,
								"contract": "SimpleStorage.sol:SimpleStorage",
								"label": "age",
								"offset": 0,
								"slot": "1",
								"type": "t_uint256"
							}
						],
						"numberOfBytes": "64"
					},
					"t_uint256": {
						"encoding": "inplace",
						"label": "uint256",
						"numberOfBytes": "32"
					},
					"t_uint64": {
						"encoding": "inplace",
						"label": "uint64",
						"numberOfBytes": "8"
					}
				}
			},
			"userdoc": {
				"kind": "user",
				"methods": {},
				"version": 1
			}
		}
	}
}