{
	"contracts/fund_me/FundMe.sol": {
		"FundMe": {
			"abi": [
				{
					"inputs": [
						{
							"internalType": "int256",
							"name": "etherumAmount",
							"type": "int256"
						}
					],
					"name": "getConversionRate",
					"outputs": [
						{
							"internalType": "int256",
							"name": "",
							"type": "int256"
						}
					],
					"stateMutability": "view",
					"type": "function"
				},
				{
					"inputs": [],
					"name": "getPrice",
					"outputs": [
						{
							"internalType": "int256",
							"name": "",
							"type": "int256"
						}
					],
					"stateMutability": "view",
					"type": "function"
				}
			],
			"devdoc": {
				"kind": "dev",
				"methods": {},
				"version": 1
			},
			"evm": {
				"assembly": "    /* \"contracts/fund_me/FundMe.sol\":171:726  contract FundMe {... */\n  mstore(0x40, 0x80)\n    /* \"contracts/fund_me/FundMe.sol\":218:219  5 */\n  0x05\n    /* \"contracts/fund_me/FundMe.sol\":193:219  uint256 minimumDollers = 5 */\n  0x00\n  sstore\n    /* \"contracts/fund_me/FundMe.sol\":171:726  contract FundMe {... */\n  callvalue\n  dup1\n  iszero\n  tag_1\n  jumpi\n  0x00\n  dup1\n  revert\ntag_1:\n  pop\n  dataSize(sub_0)\n  dup1\n  dataOffset(sub_0)\n  0x00\n  codecopy\n  0x00\n  return\nstop\n\nsub_0: assembly {\n        /* \"contracts/fund_me/FundMe.sol\":171:726  contract FundMe {... */\n      mstore(0x40, 0x80)\n      callvalue\n      dup1\n      iszero\n      tag_1\n      jumpi\n      0x00\n      dup1\n      revert\n    tag_1:\n      pop\n      jumpi(tag_2, lt(calldatasize, 0x04))\n      shr(0xe0, calldataload(0x00))\n      dup1\n      0x325df6e2\n      eq\n      tag_3\n      jumpi\n      dup1\n      0x98d5fdca\n      eq\n      tag_4\n      jumpi\n    tag_2:\n      0x00\n      dup1\n      revert\n        /* \"contracts/fund_me/FundMe.sol\":528:724  function getConversionRate(int etherumAmount) public view returns(int) {... */\n    tag_3:\n      tag_5\n      0x04\n      dup1\n      calldatasize\n      sub\n      dup2\n      add\n      swap1\n      tag_6\n      swap2\n      swap1\n      tag_7\n      jump\t// in\n    tag_6:\n      tag_8\n      jump\t// in\n    tag_5:\n      mload(0x40)\n      tag_9\n      swap2\n      swap1\n      tag_10\n      jump\t// in\n    tag_9:\n      mload(0x40)\n      dup1\n      swap2\n      sub\n      swap1\n      return\n        /* \"contracts/fund_me/FundMe.sol\":284:522  function getPrice() view public returns(int) {... */\n    tag_4:\n      tag_11\n      tag_12\n      jump\t// in\n    tag_11:\n      mload(0x40)\n      tag_13\n      swap2\n      swap1\n      tag_10\n      jump\t// in\n    tag_13:\n      mload(0x40)\n      dup1\n      swap2\n      sub\n      swap1\n      return\n        /* \"contracts/fund_me/FundMe.sol\":528:724  function getConversionRate(int etherumAmount) public view returns(int) {... */\n    tag_8:\n        /* \"contracts/fund_me/FundMe.sol\":594:597  int */\n      0x00\n        /* \"contracts/fund_me/FundMe.sol\":609:621  int ethPrice */\n      dup1\n        /* \"contracts/fund_me/FundMe.sol\":624:634  getPrice() */\n      tag_15\n        /* \"contracts/fund_me/FundMe.sol\":624:632  getPrice */\n      tag_12\n        /* \"contracts/fund_me/FundMe.sol\":624:634  getPrice() */\n      jump\t// in\n    tag_15:\n        /* \"contracts/fund_me/FundMe.sol\":609:634  int ethPrice = getPrice() */\n      swap1\n      pop\n        /* \"contracts/fund_me/FundMe.sol\":644:656  int ethInUsd */\n      0x00\n        /* \"contracts/fund_me/FundMe.sol\":688:692  1e18 */\n      0x0de0b6b3a7640000\n        /* \"contracts/fund_me/FundMe.sol\":671:684  etherumAmount */\n      dup5\n        /* \"contracts/fund_me/FundMe.sol\":660:668  ethPrice */\n      dup4\n        /* \"contracts/fund_me/FundMe.sol\":660:684  ethPrice * etherumAmount */\n      tag_16\n      swap2\n      swap1\n      tag_17\n      jump\t// in\n    tag_16:\n        /* \"contracts/fund_me/FundMe.sol\":659:692  (ethPrice * etherumAmount) / 1e18 */\n      tag_18\n      swap2\n      swap1\n      tag_19\n      jump\t// in\n    tag_18:\n        /* \"contracts/fund_me/FundMe.sol\":644:692  int ethInUsd = (ethPrice * etherumAmount) / 1e18 */\n      swap1\n      pop\n        /* \"contracts/fund_me/FundMe.sol\":709:717  ethInUsd */\n      dup1\n        /* \"contracts/fund_me/FundMe.sol\":702:717  return ethInUsd */\n      swap3\n      pop\n      pop\n      pop\n        /* \"contracts/fund_me/FundMe.sol\":528:724  function getConversionRate(int etherumAmount) public view returns(int) {... */\n      swap2\n      swap1\n      pop\n      jump\t// out\n        /* \"contracts/fund_me/FundMe.sol\":284:522  function getPrice() view public returns(int) {... */\n    tag_12:\n        /* \"contracts/fund_me/FundMe.sol\":324:327  int */\n      0x00\n        /* \"contracts/fund_me/FundMe.sol\":339:369  AggregatorV3Interface dataFeed */\n      dup1\n        /* \"contracts/fund_me/FundMe.sol\":394:436  0x694AA1769357215DE4FAC081bf1f309aDC325306 */\n      0x694aa1769357215de4fac081bf1f309adc325306\n        /* \"contracts/fund_me/FundMe.sol\":339:437  AggregatorV3Interface dataFeed = AggregatorV3Interface(0x694AA1769357215DE4FAC081bf1f309aDC325306) */\n      swap1\n      pop\n        /* \"contracts/fund_me/FundMe.sol\":449:459  int answer */\n      0x00\n        /* \"contracts/fund_me/FundMe.sol\":466:474  dataFeed */\n      dup2\n        /* \"contracts/fund_me/FundMe.sol\":466:490  dataFeed.latestRoundData */\n      0xffffffffffffffffffffffffffffffffffffffff\n      and\n      0xfeaf968c\n        /* \"contracts/fund_me/FundMe.sol\":466:492  dataFeed.latestRoundData() */\n      mload(0x40)\n      dup2\n      0xffffffff\n      and\n      0xe0\n      shl\n      dup2\n      mstore\n      0x04\n      add\n      0xa0\n      mload(0x40)\n      dup1\n      dup4\n      sub\n      dup2\n      dup7\n      gas\n      staticcall\n      iszero\n      dup1\n      iszero\n      tag_22\n      jumpi\n      returndatasize\n      0x00\n      dup1\n      returndatacopy\n      revert(0x00, returndatasize)\n    tag_22:\n      pop\n      pop\n      pop\n      pop\n      mload(0x40)\n      returndatasize\n      not(0x1f)\n      0x1f\n      dup3\n      add\n      and\n      dup3\n      add\n      dup1\n      0x40\n      mstore\n      pop\n      dup2\n      add\n      swap1\n      tag_23\n      swap2\n      swap1\n      tag_24\n      jump\t// in\n    tag_23:\n        /* \"contracts/fund_me/FundMe.sol\":447:492  (,int answer,,,) = dataFeed.latestRoundData() */\n      pop\n      pop\n      pop\n      swap2\n      pop\n      pop\n        /* \"contracts/fund_me/FundMe.sol\":509:515  answer */\n      dup1\n        /* \"contracts/fund_me/FundMe.sol\":502:515  return answer */\n      swap3\n      pop\n      pop\n      pop\n        /* \"contracts/fund_me/FundMe.sol\":284:522  function getPrice() view public returns(int) {... */\n      swap1\n      jump\t// out\n        /* \"#utility.yul\":88:205   */\n    tag_26:\n        /* \"#utility.yul\":197:198   */\n      0x00\n        /* \"#utility.yul\":194:195   */\n      dup1\n        /* \"#utility.yul\":187:199   */\n      revert\n        /* \"#utility.yul\":334:410   */\n    tag_28:\n        /* \"#utility.yul\":370:377   */\n      0x00\n        /* \"#utility.yul\":399:404   */\n      dup2\n        /* \"#utility.yul\":388:404   */\n      swap1\n      pop\n        /* \"#utility.yul\":334:410   */\n      swap2\n      swap1\n      pop\n      jump\t// out\n        /* \"#utility.yul\":416:536   */\n    tag_29:\n        /* \"#utility.yul\":488:511   */\n      tag_47\n        /* \"#utility.yul\":505:510   */\n      dup2\n        /* \"#utility.yul\":488:511   */\n      tag_28\n      jump\t// in\n    tag_47:\n        /* \"#utility.yul\":481:486   */\n      dup2\n        /* \"#utility.yul\":478:512   */\n      eq\n        /* \"#utility.yul\":468:530   */\n      tag_48\n      jumpi\n        /* \"#utility.yul\":526:527   */\n      0x00\n        /* \"#utility.yul\":523:524   */\n      dup1\n        /* \"#utility.yul\":516:528   */\n      revert\n        /* \"#utility.yul\":468:530   */\n    tag_48:\n        /* \"#utility.yul\":416:536   */\n      pop\n      jump\t// out\n        /* \"#utility.yul\":542:679   */\n    tag_30:\n        /* \"#utility.yul\":587:592   */\n      0x00\n        /* \"#utility.yul\":625:631   */\n      dup2\n        /* \"#utility.yul\":612:632   */\n      calldataload\n        /* \"#utility.yul\":603:632   */\n      swap1\n      pop\n        /* \"#utility.yul\":641:673   */\n      tag_50\n        /* \"#utility.yul\":667:672   */\n      dup2\n        /* \"#utility.yul\":641:673   */\n      tag_29\n      jump\t// in\n    tag_50:\n        /* \"#utility.yul\":542:679   */\n      swap3\n      swap2\n      pop\n      pop\n      jump\t// out\n        /* \"#utility.yul\":685:1012   */\n    tag_7:\n        /* \"#utility.yul\":743:749   */\n      0x00\n        /* \"#utility.yul\":792:794   */\n      0x20\n        /* \"#utility.yul\":780:789   */\n      dup3\n        /* \"#utility.yul\":771:778   */\n      dup5\n        /* \"#utility.yul\":767:790   */\n      sub\n        /* \"#utility.yul\":763:795   */\n      slt\n        /* \"#utility.yul\":760:879   */\n      iszero\n      tag_52\n      jumpi\n        /* \"#utility.yul\":798:877   */\n      tag_53\n      tag_26\n      jump\t// in\n    tag_53:\n        /* \"#utility.yul\":760:879   */\n    tag_52:\n        /* \"#utility.yul\":918:919   */\n      0x00\n        /* \"#utility.yul\":943:995   */\n      tag_54\n        /* \"#utility.yul\":987:994   */\n      dup5\n        /* \"#utility.yul\":978:984   */\n      dup3\n        /* \"#utility.yul\":967:976   */\n      dup6\n        /* \"#utility.yul\":963:985   */\n      add\n        /* \"#utility.yul\":943:995   */\n      tag_30\n      jump\t// in\n    tag_54:\n        /* \"#utility.yul\":933:995   */\n      swap2\n      pop\n        /* \"#utility.yul\":889:1005   */\n      pop\n        /* \"#utility.yul\":685:1012   */\n      swap3\n      swap2\n      pop\n      pop\n      jump\t// out\n        /* \"#utility.yul\":1018:1133   */\n    tag_31:\n        /* \"#utility.yul\":1103:1126   */\n      tag_56\n        /* \"#utility.yul\":1120:1125   */\n      dup2\n        /* \"#utility.yul\":1103:1126   */\n      tag_28\n      jump\t// in\n    tag_56:\n        /* \"#utility.yul\":1098:1101   */\n      dup3\n        /* \"#utility.yul\":1091:1127   */\n      mstore\n        /* \"#utility.yul\":1018:1133   */\n      pop\n      pop\n      jump\t// out\n        /* \"#utility.yul\":1139:1357   */\n    tag_10:\n        /* \"#utility.yul\":1230:1234   */\n      0x00\n        /* \"#utility.yul\":1268:1270   */\n      0x20\n        /* \"#utility.yul\":1257:1266   */\n      dup3\n        /* \"#utility.yul\":1253:1271   */\n      add\n        /* \"#utility.yul\":1245:1271   */\n      swap1\n      pop\n        /* \"#utility.yul\":1281:1350   */\n      tag_58\n        /* \"#utility.yul\":1347:1348   */\n      0x00\n        /* \"#utility.yul\":1336:1345   */\n      dup4\n        /* \"#utility.yul\":1332:1349   */\n      add\n        /* \"#utility.yul\":1323:1329   */\n      dup5\n        /* \"#utility.yul\":1281:1350   */\n      tag_31\n      jump\t// in\n    tag_58:\n        /* \"#utility.yul\":1139:1357   */\n      swap3\n      swap2\n      pop\n      pop\n      jump\t// out\n        /* \"#utility.yul\":1363:1543   */\n    tag_32:\n        /* \"#utility.yul\":1411:1488   */\n      0x4e487b7100000000000000000000000000000000000000000000000000000000\n        /* \"#utility.yul\":1408:1409   */\n      0x00\n        /* \"#utility.yul\":1401:1489   */\n      mstore\n        /* \"#utility.yul\":1508:1512   */\n      0x11\n        /* \"#utility.yul\":1505:1506   */\n      0x04\n        /* \"#utility.yul\":1498:1513   */\n      mstore\n        /* \"#utility.yul\":1532:1536   */\n      0x24\n        /* \"#utility.yul\":1529:1530   */\n      0x00\n        /* \"#utility.yul\":1522:1537   */\n      revert\n        /* \"#utility.yul\":1549:2105   */\n    tag_17:\n        /* \"#utility.yul\":1588:1595   */\n      0x00\n        /* \"#utility.yul\":1611:1630   */\n      tag_61\n        /* \"#utility.yul\":1628:1629   */\n      dup3\n        /* \"#utility.yul\":1611:1630   */\n      tag_28\n      jump\t// in\n    tag_61:\n        /* \"#utility.yul\":1606:1630   */\n      swap2\n      pop\n        /* \"#utility.yul\":1644:1663   */\n      tag_62\n        /* \"#utility.yul\":1661:1662   */\n      dup4\n        /* \"#utility.yul\":1644:1663   */\n      tag_28\n      jump\t// in\n    tag_62:\n        /* \"#utility.yul\":1639:1663   */\n      swap3\n      pop\n        /* \"#utility.yul\":1698:1699   */\n      dup3\n        /* \"#utility.yul\":1695:1696   */\n      dup3\n        /* \"#utility.yul\":1691:1700   */\n      mul\n        /* \"#utility.yul\":1720:1749   */\n      tag_63\n        /* \"#utility.yul\":1737:1748   */\n      dup2\n        /* \"#utility.yul\":1720:1749   */\n      tag_28\n      jump\t// in\n    tag_63:\n        /* \"#utility.yul\":1709:1749   */\n      swap2\n      pop\n        /* \"#utility.yul\":1807:1873   */\n      0x8000000000000000000000000000000000000000000000000000000000000000\n        /* \"#utility.yul\":1804:1805   */\n      dup5\n        /* \"#utility.yul\":1801:1874   */\n      eq\n        /* \"#utility.yul\":1797:1798   */\n      0x00\n        /* \"#utility.yul\":1794:1795   */\n      dup5\n        /* \"#utility.yul\":1790:1799   */\n      slt\n        /* \"#utility.yul\":1786:1875   */\n      and\n        /* \"#utility.yul\":1783:1898   */\n      iszero\n      tag_64\n      jumpi\n        /* \"#utility.yul\":1878:1896   */\n      tag_65\n      tag_32\n      jump\t// in\n    tag_65:\n        /* \"#utility.yul\":1783:1898   */\n    tag_64:\n        /* \"#utility.yul\":2048:2049   */\n      dup3\n        /* \"#utility.yul\":2039:2046   */\n      dup3\n        /* \"#utility.yul\":2034:2050   */\n      sdiv\n        /* \"#utility.yul\":2031:2032   */\n      dup5\n        /* \"#utility.yul\":2028:2051   */\n      eq\n        /* \"#utility.yul\":2008:2009   */\n      dup4\n        /* \"#utility.yul\":2001:2010   */\n      iszero\n        /* \"#utility.yul\":1981:2065   */\n      or\n        /* \"#utility.yul\":1958:2098   */\n      tag_66\n      jumpi\n        /* \"#utility.yul\":2078:2096   */\n      tag_67\n      tag_32\n      jump\t// in\n    tag_67:\n        /* \"#utility.yul\":1958:2098   */\n    tag_66:\n        /* \"#utility.yul\":1596:2105   */\n      pop\n        /* \"#utility.yul\":1549:2105   */\n      swap3\n      swap2\n      pop\n      pop\n      jump\t// out\n        /* \"#utility.yul\":2111:2291   */\n    tag_33:\n        /* \"#utility.yul\":2159:2236   */\n      0x4e487b7100000000000000000000000000000000000000000000000000000000\n        /* \"#utility.yul\":2156:2157   */\n      0x00\n        /* \"#utility.yul\":2149:2237   */\n      mstore\n        /* \"#utility.yul\":2256:2260   */\n      0x12\n        /* \"#utility.yul\":2253:2254   */\n      0x04\n        /* \"#utility.yul\":2246:2261   */\n      mstore\n        /* \"#utility.yul\":2280:2284   */\n      0x24\n        /* \"#utility.yul\":2277:2278   */\n      0x00\n        /* \"#utility.yul\":2270:2285   */\n      revert\n        /* \"#utility.yul\":2297:2682   */\n    tag_19:\n        /* \"#utility.yul\":2336:2337   */\n      0x00\n        /* \"#utility.yul\":2353:2372   */\n      tag_70\n        /* \"#utility.yul\":2370:2371   */\n      dup3\n        /* \"#utility.yul\":2353:2372   */\n      tag_28\n      jump\t// in\n    tag_70:\n        /* \"#utility.yul\":2348:2372   */\n      swap2\n      pop\n        /* \"#utility.yul\":2386:2405   */\n      tag_71\n        /* \"#utility.yul\":2403:2404   */\n      dup4\n        /* \"#utility.yul\":2386:2405   */\n      tag_28\n      jump\t// in\n    tag_71:\n        /* \"#utility.yul\":2381:2405   */\n      swap3\n      pop\n        /* \"#utility.yul\":2424:2425   */\n      dup3\n        /* \"#utility.yul\":2414:2449   */\n      tag_72\n      jumpi\n        /* \"#utility.yul\":2429:2447   */\n      tag_73\n      tag_33\n      jump\t// in\n    tag_73:\n        /* \"#utility.yul\":2414:2449   */\n    tag_72:\n        /* \"#utility.yul\":2615:2616   */\n      0x01\n        /* \"#utility.yul\":2612:2613   */\n      0x00\n        /* \"#utility.yul\":2608:2617   */\n      sub\n        /* \"#utility.yul\":2605:2606   */\n      dup4\n        /* \"#utility.yul\":2602:2618   */\n      eq\n        /* \"#utility.yul\":2521:2587   */\n      0x8000000000000000000000000000000000000000000000000000000000000000\n        /* \"#utility.yul\":2518:2519   */\n      dup4\n        /* \"#utility.yul\":2515:2588   */\n      eq\n        /* \"#utility.yul\":2498:2628   */\n      and\n        /* \"#utility.yul\":2495:2651   */\n      iszero\n      tag_74\n      jumpi\n        /* \"#utility.yul\":2631:2649   */\n      tag_75\n      tag_32\n      jump\t// in\n    tag_75:\n        /* \"#utility.yul\":2495:2651   */\n    tag_74:\n        /* \"#utility.yul\":2674:2675   */\n      dup3\n        /* \"#utility.yul\":2671:2672   */\n      dup3\n        /* \"#utility.yul\":2666:2676   */\n      sdiv\n        /* \"#utility.yul\":2661:2676   */\n      swap1\n      pop\n        /* \"#utility.yul\":2297:2682   */\n      swap3\n      swap2\n      pop\n      pop\n      jump\t// out\n        /* \"#utility.yul\":2688:2793   */\n    tag_34:\n        /* \"#utility.yul\":2724:2731   */\n      0x00\n        /* \"#utility.yul\":2764:2786   */\n      0xffffffffffffffffffff\n        /* \"#utility.yul\":2757:2762   */\n      dup3\n        /* \"#utility.yul\":2753:2787   */\n      and\n        /* \"#utility.yul\":2742:2787   */\n      swap1\n      pop\n        /* \"#utility.yul\":2688:2793   */\n      swap2\n      swap1\n      pop\n      jump\t// out\n        /* \"#utility.yul\":2799:2919   */\n    tag_35:\n        /* \"#utility.yul\":2871:2894   */\n      tag_78\n        /* \"#utility.yul\":2888:2893   */\n      dup2\n        /* \"#utility.yul\":2871:2894   */\n      tag_34\n      jump\t// in\n    tag_78:\n        /* \"#utility.yul\":2864:2869   */\n      dup2\n        /* \"#utility.yul\":2861:2895   */\n      eq\n        /* \"#utility.yul\":2851:2913   */\n      tag_79\n      jumpi\n        /* \"#utility.yul\":2909:2910   */\n      0x00\n        /* \"#utility.yul\":2906:2907   */\n      dup1\n        /* \"#utility.yul\":2899:2911   */\n      revert\n        /* \"#utility.yul\":2851:2913   */\n    tag_79:\n        /* \"#utility.yul\":2799:2919   */\n      pop\n      jump\t// out\n        /* \"#utility.yul\":2925:3066   */\n    tag_36:\n        /* \"#utility.yul\":2981:2986   */\n      0x00\n        /* \"#utility.yul\":3012:3018   */\n      dup2\n        /* \"#utility.yul\":3006:3019   */\n      mload\n        /* \"#utility.yul\":2997:3019   */\n      swap1\n      pop\n        /* \"#utility.yul\":3028:3060   */\n      tag_81\n        /* \"#utility.yul\":3054:3059   */\n      dup2\n        /* \"#utility.yul\":3028:3060   */\n      tag_35\n      jump\t// in\n    tag_81:\n        /* \"#utility.yul\":2925:3066   */\n      swap3\n      swap2\n      pop\n      pop\n      jump\t// out\n        /* \"#utility.yul\":3072:3213   */\n    tag_37:\n        /* \"#utility.yul\":3128:3133   */\n      0x00\n        /* \"#utility.yul\":3159:3165   */\n      dup2\n        /* \"#utility.yul\":3153:3166   */\n      mload\n        /* \"#utility.yul\":3144:3166   */\n      swap1\n      pop\n        /* \"#utility.yul\":3175:3207   */\n      tag_83\n        /* \"#utility.yul\":3201:3206   */\n      dup2\n        /* \"#utility.yul\":3175:3207   */\n      tag_29\n      jump\t// in\n    tag_83:\n        /* \"#utility.yul\":3072:3213   */\n      swap3\n      swap2\n      pop\n      pop\n      jump\t// out\n        /* \"#utility.yul\":3219:3296   */\n    tag_38:\n        /* \"#utility.yul\":3256:3263   */\n      0x00\n        /* \"#utility.yul\":3285:3290   */\n      dup2\n        /* \"#utility.yul\":3274:3290   */\n      swap1\n      pop\n        /* \"#utility.yul\":3219:3296   */\n      swap2\n      swap1\n      pop\n      jump\t// out\n        /* \"#utility.yul\":3302:3424   */\n    tag_39:\n        /* \"#utility.yul\":3375:3399   */\n      tag_86\n        /* \"#utility.yul\":3393:3398   */\n      dup2\n        /* \"#utility.yul\":3375:3399   */\n      tag_38\n      jump\t// in\n    tag_86:\n        /* \"#utility.yul\":3368:3373   */\n      dup2\n        /* \"#utility.yul\":3365:3400   */\n      eq\n        /* \"#utility.yul\":3355:3418   */\n      tag_87\n      jumpi\n        /* \"#utility.yul\":3414:3415   */\n      0x00\n        /* \"#utility.yul\":3411:3412   */\n      dup1\n        /* \"#utility.yul\":3404:3416   */\n      revert\n        /* \"#utility.yul\":3355:3418   */\n    tag_87:\n        /* \"#utility.yul\":3302:3424   */\n      pop\n      jump\t// out\n        /* \"#utility.yul\":3430:3573   */\n    tag_40:\n        /* \"#utility.yul\":3487:3492   */\n      0x00\n        /* \"#utility.yul\":3518:3524   */\n      dup2\n        /* \"#utility.yul\":3512:3525   */\n      mload\n        /* \"#utility.yul\":3503:3525   */\n      swap1\n      pop\n        /* \"#utility.yul\":3534:3567   */\n      tag_89\n        /* \"#utility.yul\":3561:3566   */\n      dup2\n        /* \"#utility.yul\":3534:3567   */\n      tag_39\n      jump\t// in\n    tag_89:\n        /* \"#utility.yul\":3430:3573   */\n      swap3\n      swap2\n      pop\n      pop\n      jump\t// out\n        /* \"#utility.yul\":3579:4550   */\n    tag_24:\n        /* \"#utility.yul\":3682:3688   */\n      0x00\n        /* \"#utility.yul\":3690:3696   */\n      dup1\n        /* \"#utility.yul\":3698:3704   */\n      0x00\n        /* \"#utility.yul\":3706:3712   */\n      dup1\n        /* \"#utility.yul\":3714:3720   */\n      0x00\n        /* \"#utility.yul\":3763:3766   */\n      0xa0\n        /* \"#utility.yul\":3751:3760   */\n      dup7\n        /* \"#utility.yul\":3742:3749   */\n      dup9\n        /* \"#utility.yul\":3738:3761   */\n      sub\n        /* \"#utility.yul\":3734:3767   */\n      slt\n        /* \"#utility.yul\":3731:3851   */\n      iszero\n      tag_91\n      jumpi\n        /* \"#utility.yul\":3770:3849   */\n      tag_92\n      tag_26\n      jump\t// in\n    tag_92:\n        /* \"#utility.yul\":3731:3851   */\n    tag_91:\n        /* \"#utility.yul\":3890:3891   */\n      0x00\n        /* \"#utility.yul\":3915:3978   */\n      tag_93\n        /* \"#utility.yul\":3970:3977   */\n      dup9\n        /* \"#utility.yul\":3961:3967   */\n      dup3\n        /* \"#utility.yul\":3950:3959   */\n      dup10\n        /* \"#utility.yul\":3946:3968   */\n      add\n        /* \"#utility.yul\":3915:3978   */\n      tag_36\n      jump\t// in\n    tag_93:\n        /* \"#utility.yul\":3905:3978   */\n      swap6\n      pop\n        /* \"#utility.yul\":3861:3988   */\n      pop\n        /* \"#utility.yul\":4027:4029   */\n      0x20\n        /* \"#utility.yul\":4053:4116   */\n      tag_94\n        /* \"#utility.yul\":4108:4115   */\n      dup9\n        /* \"#utility.yul\":4099:4105   */\n      dup3\n        /* \"#utility.yul\":4088:4097   */\n      dup10\n        /* \"#utility.yul\":4084:4106   */\n      add\n        /* \"#utility.yul\":4053:4116   */\n      tag_37\n      jump\t// in\n    tag_94:\n        /* \"#utility.yul\":4043:4116   */\n      swap5\n      pop\n        /* \"#utility.yul\":3998:4126   */\n      pop\n        /* \"#utility.yul\":4165:4167   */\n      0x40\n        /* \"#utility.yul\":4191:4255   */\n      tag_95\n        /* \"#utility.yul\":4247:4254   */\n      dup9\n        /* \"#utility.yul\":4238:4244   */\n      dup3\n        /* \"#utility.yul\":4227:4236   */\n      dup10\n        /* \"#utility.yul\":4223:4245   */\n      add\n        /* \"#utility.yul\":4191:4255   */\n      tag_40\n      jump\t// in\n    tag_95:\n        /* \"#utility.yul\":4181:4255   */\n      swap4\n      pop\n        /* \"#utility.yul\":4136:4265   */\n      pop\n        /* \"#utility.yul\":4304:4306   */\n      0x60\n        /* \"#utility.yul\":4330:4394   */\n      tag_96\n        /* \"#utility.yul\":4386:4393   */\n      dup9\n        /* \"#utility.yul\":4377:4383   */\n      dup3\n        /* \"#utility.yul\":4366:4375   */\n      dup10\n        /* \"#utility.yul\":4362:4384   */\n      add\n        /* \"#utility.yul\":4330:4394   */\n      tag_40\n      jump\t// in\n    tag_96:\n        /* \"#utility.yul\":4320:4394   */\n      swap3\n      pop\n        /* \"#utility.yul\":4275:4404   */\n      pop\n        /* \"#utility.yul\":4443:4446   */\n      0x80\n        /* \"#utility.yul\":4470:4533   */\n      tag_97\n        /* \"#utility.yul\":4525:4532   */\n      dup9\n        /* \"#utility.yul\":4516:4522   */\n      dup3\n        /* \"#utility.yul\":4505:4514   */\n      dup10\n        /* \"#utility.yul\":4501:4523   */\n      add\n        /* \"#utility.yul\":4470:4533   */\n      tag_36\n      jump\t// in\n    tag_97:\n        /* \"#utility.yul\":4460:4533   */\n      swap2\n      pop\n        /* \"#utility.yul\":4414:4543   */\n      pop\n        /* \"#utility.yul\":3579:4550   */\n      swap3\n      swap6\n      pop\n      swap3\n      swap6\n      swap1\n      swap4\n      pop\n      jump\t// out\n\n    auxdata: 0xa264697066735822122077cd64a763b48ac6caa6d43de5ee56c67022052502fb789208f135a0d99a2f7d64736f6c634300081a0033\n}\n",
				"bytecode": {
					"linkReferences": {},
					"object": "608060405260055f553480156012575f80fd5b50610448806100205f395ff3fe608060405234801561000f575f80fd5b5060043610610034575f3560e01c8063325df6e21461003857806398d5fdca14610068575b5f80fd5b610052600480360381019061004d919061018a565b610086565b60405161005f91906101c4565b60405180910390f35b6100706100be565b60405161007d91906101c4565b60405180910390f35b5f806100906100be565b90505f670de0b6b3a764000084836100a8919061020a565b6100b291906102ad565b90508092505050919050565b5f8073694aa1769357215de4fac081bf1f309adc32530690505f8173ffffffffffffffffffffffffffffffffffffffff1663feaf968c6040518163ffffffff1660e01b815260040160a060405180830381865afa158015610121573d5f803e3d5ffd5b505050506040513d601f19601f82011682018060405250810190610145919061039b565b505050915050809250505090565b5f80fd5b5f819050919050565b61016981610157565b8114610173575f80fd5b50565b5f8135905061018481610160565b92915050565b5f6020828403121561019f5761019e610153565b5b5f6101ac84828501610176565b91505092915050565b6101be81610157565b82525050565b5f6020820190506101d75f8301846101b5565b92915050565b7f4e487b71000000000000000000000000000000000000000000000000000000005f52601160045260245ffd5b5f61021482610157565b915061021f83610157565b925082820261022d81610157565b91507f800000000000000000000000000000000000000000000000000000000000000084145f84121615610264576102636101dd565b5b8282058414831517610279576102786101dd565b5b5092915050565b7f4e487b71000000000000000000000000000000000000000000000000000000005f52601260045260245ffd5b5f6102b782610157565b91506102c283610157565b9250826102d2576102d1610280565b5b60015f0383147f80000000000000000000000000000000000000000000000000000000000000008314161561030a576103096101dd565b5b828205905092915050565b5f69ffffffffffffffffffff82169050919050565b61033381610315565b811461033d575f80fd5b50565b5f8151905061034e8161032a565b92915050565b5f8151905061036281610160565b92915050565b5f819050919050565b61037a81610368565b8114610384575f80fd5b50565b5f8151905061039581610371565b92915050565b5f805f805f60a086880312156103b4576103b3610153565b5b5f6103c188828901610340565b95505060206103d288828901610354565b94505060406103e388828901610387565b93505060606103f488828901610387565b925050608061040588828901610340565b915050929550929590935056fea264697066735822122077cd64a763b48ac6caa6d43de5ee56c67022052502fb789208f135a0d99a2f7d64736f6c634300081a0033",
					"opcodes": "PUSH1 0x80 PUSH1 0x40 MSTORE PUSH1 0x5 PUSH0 SSTORE CALLVALUE DUP1 ISZERO PUSH1 0x12 JUMPI PUSH0 DUP1 REVERT JUMPDEST POP PUSH2 0x448 DUP1 PUSH2 0x20 PUSH0 CODECOPY PUSH0 RETURN INVALID PUSH1 0x80 PUSH1 0x40 MSTORE CALLVALUE DUP1 ISZERO PUSH2 0xF JUMPI PUSH0 DUP1 REVERT JUMPDEST POP PUSH1 0x4 CALLDATASIZE LT PUSH2 0x34 JUMPI PUSH0 CALLDATALOAD PUSH1 0xE0 SHR DUP1 PUSH4 0x325DF6E2 EQ PUSH2 0x38 JUMPI DUP1 PUSH4 0x98D5FDCA EQ PUSH2 0x68 JUMPI JUMPDEST PUSH0 DUP1 REVERT JUMPDEST PUSH2 0x52 PUSH1 0x4 DUP1 CALLDATASIZE SUB DUP2 ADD SWAP1 PUSH2 0x4D SWAP2 SWAP1 PUSH2 0x18A JUMP JUMPDEST PUSH2 0x86 JUMP JUMPDEST PUSH1 0x40 MLOAD PUSH2 0x5F SWAP2 SWAP1 PUSH2 0x1C4 JUMP JUMPDEST PUSH1 0x40 MLOAD DUP1 SWAP2 SUB SWAP1 RETURN JUMPDEST PUSH2 0x70 PUSH2 0xBE JUMP JUMPDEST PUSH1 0x40 MLOAD PUSH2 0x7D SWAP2 SWAP1 PUSH2 0x1C4 JUMP JUMPDEST PUSH1 0x40 MLOAD DUP1 SWAP2 SUB SWAP1 RETURN JUMPDEST PUSH0 DUP1 PUSH2 0x90 PUSH2 0xBE JUMP JUMPDEST SWAP1 POP PUSH0 PUSH8 0xDE0B6B3A7640000 DUP5 DUP4 PUSH2 0xA8 SWAP2 SWAP1 PUSH2 0x20A JUMP JUMPDEST PUSH2 0xB2 SWAP2 SWAP1 PUSH2 0x2AD JUMP JUMPDEST SWAP1 POP DUP1 SWAP3 POP POP POP SWAP2 SWAP1 POP JUMP JUMPDEST PUSH0 DUP1 PUSH20 0x694AA1769357215DE4FAC081BF1F309ADC325306 SWAP1 POP PUSH0 DUP2 PUSH20 0xFFFFFFFFFFFFFFFFFFFFFFFFFFFFFFFFFFFFFFFF AND PUSH4 0xFEAF968C PUSH1 0x40 MLOAD DUP2 PUSH4 0xFFFFFFFF AND PUSH1 0xE0 SHL DUP2 MSTORE PUSH1 0x4 ADD PUSH1 0xA0 PUSH1 0x40 MLOAD DUP1 DUP4 SUB DUP2 DUP7 GAS STATICCALL ISZERO DUP1 ISZERO PUSH2 0x121 JUMPI RETURNDATASIZE PUSH0 DUP1 RETURNDATACOPY RETURNDATASIZE PUSH0 REVERT JUMPDEST POP POP POP POP PUSH1 0x40 MLOAD RETURNDATASIZE PUSH1 0x1F NOT PUSH1 0x1F DUP3 ADD AND DUP3 ADD DUP1 PUSH1 0x40 MSTORE POP DUP2 ADD SWAP1 PUSH2 0x145 SWAP2 SWAP1 PUSH2 0x39B JUMP JUMPDEST POP POP POP SWAP2 POP POP DUP1 SWAP3 POP POP POP SWAP1 JUMP JUMPDEST PUSH0 DUP1 REVERT JUMPDEST PUSH0 DUP2 SWAP1 POP SWAP2 SWAP1 POP JUMP JUMPDEST PUSH2 0x169 DUP2 PUSH2 0x157 JUMP JUMPDEST DUP2 EQ PUSH2 0x173 JUMPI PUSH0 DUP1 REVERT JUMPDEST POP JUMP JUMPDEST PUSH0 DUP2 CALLDATALOAD SWAP1 POP PUSH2 0x184 DUP2 PUSH2 0x160 JUMP JUMPDEST SWAP3 SWAP2 POP POP JUMP JUMPDEST PUSH0 PUSH1 0x20 DUP3 DUP5 SUB SLT ISZERO PUSH2 0x19F JUMPI PUSH2 0x19E PUSH2 0x153 JUMP JUMPDEST JUMPDEST PUSH0 PUSH2 0x1AC DUP5 DUP3 DUP6 ADD PUSH2 0x176 JUMP JUMPDEST SWAP2 POP POP SWAP3 SWAP2 POP POP JUMP JUMPDEST PUSH2 0x1BE DUP2 PUSH2 0x157 JUMP JUMPDEST DUP3 MSTORE POP POP JUMP JUMPDEST PUSH0 PUSH1 0x20 DUP3 ADD SWAP1 POP PUSH2 0x1D7 PUSH0 DUP4 ADD DUP5 PUSH2 0x1B5 JUMP JUMPDEST SWAP3 SWAP2 POP POP JUMP JUMPDEST PUSH32 0x4E487B7100000000000000000000000000000000000000000000000000000000 PUSH0 MSTORE PUSH1 0x11 PUSH1 0x4 MSTORE PUSH1 0x24 PUSH0 REVERT JUMPDEST PUSH0 PUSH2 0x214 DUP3 PUSH2 0x157 JUMP JUMPDEST SWAP2 POP PUSH2 0x21F DUP4 PUSH2 0x157 JUMP JUMPDEST SWAP3 POP DUP3 DUP3 MUL PUSH2 0x22D DUP2 PUSH2 0x157 JUMP JUMPDEST SWAP2 POP PUSH32 0x8000000000000000000000000000000000000000000000000000000000000000 DUP5 EQ PUSH0 DUP5 SLT AND ISZERO PUSH2 0x264 JUMPI PUSH2 0x263 PUSH2 0x1DD JUMP JUMPDEST JUMPDEST DUP3 DUP3 SDIV DUP5 EQ DUP4 ISZERO OR PUSH2 0x279 JUMPI PUSH2 0x278 PUSH2 0x1DD JUMP JUMPDEST JUMPDEST POP SWAP3 SWAP2 POP POP JUMP JUMPDEST PUSH32 0x4E487B7100000000000000000000000000000000000000000000000000000000 PUSH0 MSTORE PUSH1 0x12 PUSH1 0x4 MSTORE PUSH1 0x24 PUSH0 REVERT JUMPDEST PUSH0 PUSH2 0x2B7 DUP3 PUSH2 0x157 JUMP JUMPDEST SWAP2 POP PUSH2 0x2C2 DUP4 PUSH2 0x157 JUMP JUMPDEST SWAP3 POP DUP3 PUSH2 0x2D2 JUMPI PUSH2 0x2D1 PUSH2 0x280 JUMP JUMPDEST JUMPDEST PUSH1 0x1 PUSH0 SUB DUP4 EQ PUSH32 0x8000000000000000000000000000000000000000000000000000000000000000 DUP4 EQ AND ISZERO PUSH2 0x30A JUMPI PUSH2 0x309 PUSH2 0x1DD JUMP JUMPDEST JUMPDEST DUP3 DUP3 SDIV SWAP1 POP SWAP3 SWAP2 POP POP JUMP JUMPDEST PUSH0 PUSH10 0xFFFFFFFFFFFFFFFFFFFF DUP3 AND SWAP1 POP SWAP2 SWAP1 POP JUMP JUMPDEST PUSH2 0x333 DUP2 PUSH2 0x315 JUMP JUMPDEST DUP2 EQ PUSH2 0x33D JUMPI PUSH0 DUP1 REVERT JUMPDEST POP JUMP JUMPDEST PUSH0 DUP2 MLOAD SWAP1 POP PUSH2 0x34E DUP2 PUSH2 0x32A JUMP JUMPDEST SWAP3 SWAP2 POP POP JUMP JUMPDEST PUSH0 DUP2 MLOAD SWAP1 POP PUSH2 0x362 DUP2 PUSH2 0x160 JUMP JUMPDEST SWAP3 SWAP2 POP POP JUMP JUMPDEST PUSH0 DUP2 SWAP1 POP SWAP2 SWAP1 POP JUMP JUMPDEST PUSH2 0x37A DUP2 PUSH2 0x368 JUMP JUMPDEST DUP2 EQ PUSH2 0x384 JUMPI PUSH0 DUP1 REVERT JUMPDEST POP JUMP JUMPDEST PUSH0 DUP2 MLOAD SWAP1 POP PUSH2 0x395 DUP2 PUSH2 0x371 JUMP JUMPDEST SWAP3 SWAP2 POP POP JUMP JUMPDEST PUSH0 DUP1 PUSH0 DUP1 PUSH0 PUSH1 0xA0 DUP7 DUP9 SUB SLT ISZERO PUSH2 0x3B4 JUMPI PUSH2 0x3B3 PUSH2 0x153 JUMP JUMPDEST JUMPDEST PUSH0 PUSH2 0x3C1 DUP9 DUP3 DUP10 ADD PUSH2 0x340 JUMP JUMPDEST SWAP6 POP POP PUSH1 0x20 PUSH2 0x3D2 DUP9 DUP3 DUP10 ADD PUSH2 0x354 JUMP JUMPDEST SWAP5 POP POP PUSH1 0x40 PUSH2 0x3E3 DUP9 DUP3 DUP10 ADD PUSH2 0x387 JUMP JUMPDEST SWAP4 POP POP PUSH1 0x60 PUSH2 0x3F4 DUP9 DUP3 DUP10 ADD PUSH2 0x387 JUMP JUMPDEST SWAP3 POP POP PUSH1 0x80 PUSH2 0x405 DUP9 DUP3 DUP10 ADD PUSH2 0x340 JUMP JUMPDEST SWAP2 POP POP SWAP3 SWAP6 POP SWAP3 SWAP6 SWAP1 SWAP4 POP JUMP INVALID LOG2 PUSH5 0x6970667358 0x22 SLT KECCAK256 PUSH24 0xCD64A763B48AC6CAA6D43DE5EE56C67022052502FB789208 CALL CALLDATALOAD LOG0 0xD9 SWAP11 0x2F PUSH30 0x64736F6C634300081A003300000000000000000000000000000000000000 "
				},
				"gasEstimates": {
					"creation": {
						"codeDepositCost": "219200",
						"executionCost": "22366",
						"totalCost": "241566"
					},
					"external": {
						"getConversionRate(int256)": "infinite",
						"getPrice()": "infinite"
					}
				},
				"methodIdentifiers": {
					"getConversionRate(int256)": "325df6e2",
					"getPrice()": "98d5fdca"
				}
			},
			"storageLayout": {
				"storage": [
					{
						"astId": 52,
						"contract": "contracts/fund_me/FundMe.sol:FundMe",
						"label": "minimumDollers",
						"offset": 0,
						"slot": "0",
						"type": "t_uint256"
					}
				],
				"types": {
					"t_uint256": {
						"encoding": "inplace",
						"label": "uint256",
						"numberOfBytes": "32"
					}
				}
			},
			"userdoc": {
				"kind": "user",
				"methods": {},
				"version": 1
			}
		}
	}
}