{
	"contracts/MyStorageFactory.sol": {
		"MyStorageFactory": {
			"abi": [
				{
					"inputs": [],
					"name": "addStorage",
					"outputs": [],
					"stateMutability": "nonpayable",
					"type": "function"
				},
				{
					"inputs": [
						{
							"internalType": "uint128",
							"name": "_index",
							"type": "uint128"
						}
					],
					"name": "getStorage",
					"outputs": [
						{
							"internalType": "uint32",
							"name": "",
							"type": "uint32"
						}
					],
					"stateMutability": "view",
					"type": "function"
				},
				{
					"inputs": [
						{
							"internalType": "uint256",
							"name": "",
							"type": "uint256"
						}
					],
					"name": "store",
					"outputs": [
						{
							"internalType": "contract MyStorage",
							"name": "",
							"type": "address"
						}
					],
					"stateMutability": "view",
					"type": "function"
				},
				{
					"inputs": [
						{
							"internalType": "uint128",
							"name": "_index",
							"type": "uint128"
						},
						{
							"internalType": "uint32",
							"name": "luckNumver",
							"type": "uint32"
						}
					],
					"name": "updateNumber",
					"outputs": [],
					"stateMutability": "nonpayable",
					"type": "function"
				}
			],
			"devdoc": {
				"kind": "dev",
				"methods": {},
				"version": 1
			},
			"evm": {
				"assembly": "    /* \"contracts/MyStorageFactory.sol\":102:585  contract MyStorageFactory {... */\n  mstore(0x40, 0x80)\n  callvalue\n  dup1\n  iszero\n  tag_1\n  jumpi\n  0x00\n  dup1\n  revert\ntag_1:\n  pop\n  dataSize(sub_0)\n  dup1\n  dataOffset(sub_0)\n  0x00\n  codecopy\n  0x00\n  return\nstop\n\nsub_0: assembly {\n        /* \"contracts/MyStorageFactory.sol\":102:585  contract MyStorageFactory {... */\n      mstore(0x40, 0x80)\n      callvalue\n      dup1\n      iszero\n      tag_1\n      jumpi\n      0x00\n      dup1\n      revert\n    tag_1:\n      pop\n      jumpi(tag_2, lt(calldatasize, 0x04))\n      shr(0xe0, calldataload(0x00))\n      dup1\n      0x12f794e5\n      eq\n      tag_3\n      jumpi\n      dup1\n      0x6057361d\n      eq\n      tag_4\n      jumpi\n      dup1\n      0x8124bbba\n      eq\n      tag_5\n      jumpi\n      dup1\n      0xe4c8531a\n      eq\n      tag_6\n      jumpi\n    tag_2:\n      0x00\n      dup1\n      revert\n        /* \"contracts/MyStorageFactory.sol\":293:438  function updateNumber(uint128 _index, uint32 luckNumver) public  {... */\n    tag_3:\n      tag_7\n      0x04\n      dup1\n      calldatasize\n      sub\n      dup2\n      add\n      swap1\n      tag_8\n      swap2\n      swap1\n      tag_9\n      jump\t// in\n    tag_8:\n      tag_10\n      jump\t// in\n    tag_7:\n      stop\n        /* \"contracts/MyStorageFactory.sol\":139:163  MyStorage[] public store */\n    tag_4:\n      tag_11\n      0x04\n      dup1\n      calldatasize\n      sub\n      dup2\n      add\n      swap1\n      tag_12\n      swap2\n      swap1\n      tag_13\n      jump\t// in\n    tag_12:\n      tag_14\n      jump\t// in\n    tag_11:\n      mload(0x40)\n      tag_15\n      swap2\n      swap1\n      tag_16\n      jump\t// in\n    tag_15:\n      mload(0x40)\n      dup1\n      swap2\n      sub\n      swap1\n      return\n        /* \"contracts/MyStorageFactory.sol\":444:583  function getStorage(uint128 _index) public view returns(uint32)  {... */\n    tag_5:\n      tag_17\n      0x04\n      dup1\n      calldatasize\n      sub\n      dup2\n      add\n      swap1\n      tag_18\n      swap2\n      swap1\n      tag_19\n      jump\t// in\n    tag_18:\n      tag_20\n      jump\t// in\n    tag_17:\n      mload(0x40)\n      tag_21\n      swap2\n      swap1\n      tag_22\n      jump\t// in\n    tag_21:\n      mload(0x40)\n      dup1\n      swap2\n      sub\n      swap1\n      return\n        /* \"contracts/MyStorageFactory.sol\":170:287  function addStorage() public  {... */\n    tag_6:\n      tag_23\n      tag_24\n      jump\t// in\n    tag_23:\n      stop\n        /* \"contracts/MyStorageFactory.sol\":293:438  function updateNumber(uint128 _index, uint32 luckNumver) public  {... */\n    tag_10:\n        /* \"contracts/MyStorageFactory.sol\":368:379  MyStorage s */\n      0x00\n        /* \"contracts/MyStorageFactory.sol\":382:387  store */\n      dup1\n        /* \"contracts/MyStorageFactory.sol\":388:394  _index */\n      dup4\n        /* \"contracts/MyStorageFactory.sol\":382:395  store[_index] */\n      0xffffffffffffffffffffffffffffffff\n      and\n      dup2\n      sload\n      dup2\n      lt\n      tag_26\n      jumpi\n      tag_27\n      tag_28\n      jump\t// in\n    tag_27:\n    tag_26:\n      swap1\n      0x00\n      mstore\n      keccak256(0x00, 0x20)\n      add\n      0x00\n      swap1\n      sload\n      swap1\n      0x0100\n      exp\n      swap1\n      div\n      0xffffffffffffffffffffffffffffffffffffffff\n      and\n        /* \"contracts/MyStorageFactory.sol\":368:395  MyStorage s = store[_index] */\n      swap1\n      pop\n        /* \"contracts/MyStorageFactory.sol\":405:406  s */\n      dup1\n        /* \"contracts/MyStorageFactory.sol\":405:419  s.updateNumber */\n      0xffffffffffffffffffffffffffffffffffffffff\n      and\n      0x3516c85c\n        /* \"contracts/MyStorageFactory.sol\":420:430  luckNumver */\n      dup4\n        /* \"contracts/MyStorageFactory.sol\":405:431  s.updateNumber(luckNumver) */\n      mload(0x40)\n      dup3\n      0xffffffff\n      and\n      0xe0\n      shl\n      dup2\n      mstore\n      0x04\n      add\n      tag_30\n      swap2\n      swap1\n      tag_22\n      jump\t// in\n    tag_30:\n      0x00\n      mload(0x40)\n      dup1\n      dup4\n      sub\n      dup2\n      0x00\n      dup8\n      dup1\n      extcodesize\n      iszero\n      dup1\n      iszero\n      tag_31\n      jumpi\n      0x00\n      dup1\n      revert\n    tag_31:\n      pop\n      gas\n      call\n      iszero\n      dup1\n      iszero\n      tag_33\n      jumpi\n      returndatasize\n      0x00\n      dup1\n      returndatacopy\n      revert(0x00, returndatasize)\n    tag_33:\n      pop\n      pop\n      pop\n      pop\n        /* \"contracts/MyStorageFactory.sol\":358:438  {... */\n      pop\n        /* \"contracts/MyStorageFactory.sol\":293:438  function updateNumber(uint128 _index, uint32 luckNumver) public  {... */\n      pop\n      pop\n      jump\t// out\n        /* \"contracts/MyStorageFactory.sol\":139:163  MyStorage[] public store */\n    tag_14:\n      0x00\n      dup2\n      dup2\n      sload\n      dup2\n      lt\n      tag_34\n      jumpi\n      0x00\n      dup1\n      revert\n    tag_34:\n      swap1\n      0x00\n      mstore\n      keccak256(0x00, 0x20)\n      add\n      0x00\n      swap2\n      pop\n      sload\n      swap1\n      0x0100\n      exp\n      swap1\n      div\n      0xffffffffffffffffffffffffffffffffffffffff\n      and\n      dup2\n      jump\t// out\n        /* \"contracts/MyStorageFactory.sol\":444:583  function getStorage(uint128 _index) public view returns(uint32)  {... */\n    tag_20:\n        /* \"contracts/MyStorageFactory.sol\":500:506  uint32 */\n      0x00\n        /* \"contracts/MyStorageFactory.sol\":519:530  MyStorage s */\n      dup1\n        /* \"contracts/MyStorageFactory.sol\":533:538  store */\n      0x00\n        /* \"contracts/MyStorageFactory.sol\":539:545  _index */\n      dup4\n        /* \"contracts/MyStorageFactory.sol\":533:546  store[_index] */\n      0xffffffffffffffffffffffffffffffff\n      and\n      dup2\n      sload\n      dup2\n      lt\n      tag_37\n      jumpi\n      tag_38\n      tag_28\n      jump\t// in\n    tag_38:\n    tag_37:\n      swap1\n      0x00\n      mstore\n      keccak256(0x00, 0x20)\n      add\n      0x00\n      swap1\n      sload\n      swap1\n      0x0100\n      exp\n      swap1\n      div\n      0xffffffffffffffffffffffffffffffffffffffff\n      and\n        /* \"contracts/MyStorageFactory.sol\":519:546  MyStorage s = store[_index] */\n      swap1\n      pop\n        /* \"contracts/MyStorageFactory.sol\":563:564  s */\n      dup1\n        /* \"contracts/MyStorageFactory.sol\":563:574  s.getNumber */\n      0xffffffffffffffffffffffffffffffffffffffff\n      and\n      0xf2c9ecd8\n        /* \"contracts/MyStorageFactory.sol\":563:576  s.getNumber() */\n      mload(0x40)\n      dup2\n      0xffffffff\n      and\n      0xe0\n      shl\n      dup2\n      mstore\n      0x04\n      add\n      0x20\n      mload(0x40)\n      dup1\n      dup4\n      sub\n      dup2\n      dup7\n      gas\n      staticcall\n      iszero\n      dup1\n      iszero\n      tag_41\n      jumpi\n      returndatasize\n      0x00\n      dup1\n      returndatacopy\n      revert(0x00, returndatasize)\n    tag_41:\n      pop\n      pop\n      pop\n      pop\n      mload(0x40)\n      returndatasize\n      not(0x1f)\n      0x1f\n      dup3\n      add\n      and\n      dup3\n      add\n      dup1\n      0x40\n      mstore\n      pop\n      dup2\n      add\n      swap1\n      tag_42\n      swap2\n      swap1\n      tag_43\n      jump\t// in\n    tag_42:\n        /* \"contracts/MyStorageFactory.sol\":556:576  return s.getNumber() */\n      swap2\n      pop\n      pop\n        /* \"contracts/MyStorageFactory.sol\":444:583  function getStorage(uint128 _index) public view returns(uint32)  {... */\n      swap2\n      swap1\n      pop\n      jump\t// out\n        /* \"contracts/MyStorageFactory.sol\":170:287  function addStorage() public  {... */\n    tag_24:\n        /* \"contracts/MyStorageFactory.sol\":210:230  MyStorage newStorage */\n      0x00\n        /* \"contracts/MyStorageFactory.sol\":233:248  new MyStorage() */\n      mload(0x40)\n      tag_45\n      swap1\n      tag_46\n      jump\t// in\n    tag_45:\n      mload(0x40)\n      dup1\n      swap2\n      sub\n      swap1\n      0x00\n      create\n      dup1\n      iszero\n      dup1\n      iszero\n      tag_47\n      jumpi\n      returndatasize\n      0x00\n      dup1\n      returndatacopy\n      revert(0x00, returndatasize)\n    tag_47:\n      pop\n        /* \"contracts/MyStorageFactory.sol\":210:248  MyStorage newStorage = new MyStorage() */\n      swap1\n      pop\n        /* \"contracts/MyStorageFactory.sol\":258:263  store */\n      0x00\n        /* \"contracts/MyStorageFactory.sol\":269:279  newStorage */\n      dup2\n        /* \"contracts/MyStorageFactory.sol\":258:280  store.push(newStorage) */\n      swap1\n      dup1\n      0x01\n      dup2\n      sload\n      add\n      dup1\n      dup3\n      sstore\n      dup1\n      swap2\n      pop\n      pop\n      0x01\n      swap1\n      sub\n      swap1\n      0x00\n      mstore\n      keccak256(0x00, 0x20)\n      add\n      0x00\n      swap1\n      swap2\n      swap1\n      swap2\n      swap1\n      swap2\n      0x0100\n      exp\n      dup2\n      sload\n      dup2\n      0xffffffffffffffffffffffffffffffffffffffff\n      mul\n      not\n      and\n      swap1\n      dup4\n      0xffffffffffffffffffffffffffffffffffffffff\n      and\n      mul\n      or\n      swap1\n      sstore\n      pop\n        /* \"contracts/MyStorageFactory.sol\":200:287  {... */\n      pop\n        /* \"contracts/MyStorageFactory.sol\":170:287  function addStorage() public  {... */\n      jump\t// out\n    tag_46:\n      dataSize(sub_0)\n      dup1\n      dataOffset(sub_0)\n      dup4\n      codecopy\n      add\n      swap1\n      jump\t// out\n        /* \"#utility.yul\":88:205   */\n    tag_50:\n        /* \"#utility.yul\":197:198   */\n      0x00\n        /* \"#utility.yul\":194:195   */\n      dup1\n        /* \"#utility.yul\":187:199   */\n      revert\n        /* \"#utility.yul\":334:452   */\n    tag_52:\n        /* \"#utility.yul\":371:378   */\n      0x00\n        /* \"#utility.yul\":411:445   */\n      0xffffffffffffffffffffffffffffffff\n        /* \"#utility.yul\":404:409   */\n      dup3\n        /* \"#utility.yul\":400:446   */\n      and\n        /* \"#utility.yul\":389:446   */\n      swap1\n      pop\n        /* \"#utility.yul\":334:452   */\n      swap2\n      swap1\n      pop\n      jump\t// out\n        /* \"#utility.yul\":458:580   */\n    tag_53:\n        /* \"#utility.yul\":531:555   */\n      tag_75\n        /* \"#utility.yul\":549:554   */\n      dup2\n        /* \"#utility.yul\":531:555   */\n      tag_52\n      jump\t// in\n    tag_75:\n        /* \"#utility.yul\":524:529   */\n      dup2\n        /* \"#utility.yul\":521:556   */\n      eq\n        /* \"#utility.yul\":511:574   */\n      tag_76\n      jumpi\n        /* \"#utility.yul\":570:571   */\n      0x00\n        /* \"#utility.yul\":567:568   */\n      dup1\n        /* \"#utility.yul\":560:572   */\n      revert\n        /* \"#utility.yul\":511:574   */\n    tag_76:\n        /* \"#utility.yul\":458:580   */\n      pop\n      jump\t// out\n        /* \"#utility.yul\":586:725   */\n    tag_54:\n        /* \"#utility.yul\":632:637   */\n      0x00\n        /* \"#utility.yul\":670:676   */\n      dup2\n        /* \"#utility.yul\":657:677   */\n      calldataload\n        /* \"#utility.yul\":648:677   */\n      swap1\n      pop\n        /* \"#utility.yul\":686:719   */\n      tag_78\n        /* \"#utility.yul\":713:718   */\n      dup2\n        /* \"#utility.yul\":686:719   */\n      tag_53\n      jump\t// in\n    tag_78:\n        /* \"#utility.yul\":586:725   */\n      swap3\n      swap2\n      pop\n      pop\n      jump\t// out\n        /* \"#utility.yul\":731:824   */\n    tag_55:\n        /* \"#utility.yul\":767:774   */\n      0x00\n        /* \"#utility.yul\":807:817   */\n      0xffffffff\n        /* \"#utility.yul\":800:805   */\n      dup3\n        /* \"#utility.yul\":796:818   */\n      and\n        /* \"#utility.yul\":785:818   */\n      swap1\n      pop\n        /* \"#utility.yul\":731:824   */\n      swap2\n      swap1\n      pop\n      jump\t// out\n        /* \"#utility.yul\":830:950   */\n    tag_56:\n        /* \"#utility.yul\":902:925   */\n      tag_81\n        /* \"#utility.yul\":919:924   */\n      dup2\n        /* \"#utility.yul\":902:925   */\n      tag_55\n      jump\t// in\n    tag_81:\n        /* \"#utility.yul\":895:900   */\n      dup2\n        /* \"#utility.yul\":892:926   */\n      eq\n        /* \"#utility.yul\":882:944   */\n      tag_82\n      jumpi\n        /* \"#utility.yul\":940:941   */\n      0x00\n        /* \"#utility.yul\":937:938   */\n      dup1\n        /* \"#utility.yul\":930:942   */\n      revert\n        /* \"#utility.yul\":882:944   */\n    tag_82:\n        /* \"#utility.yul\":830:950   */\n      pop\n      jump\t// out\n        /* \"#utility.yul\":956:1093   */\n    tag_57:\n        /* \"#utility.yul\":1001:1006   */\n      0x00\n        /* \"#utility.yul\":1039:1045   */\n      dup2\n        /* \"#utility.yul\":1026:1046   */\n      calldataload\n        /* \"#utility.yul\":1017:1046   */\n      swap1\n      pop\n        /* \"#utility.yul\":1055:1087   */\n      tag_84\n        /* \"#utility.yul\":1081:1086   */\n      dup2\n        /* \"#utility.yul\":1055:1087   */\n      tag_56\n      jump\t// in\n    tag_84:\n        /* \"#utility.yul\":956:1093   */\n      swap3\n      swap2\n      pop\n      pop\n      jump\t// out\n        /* \"#utility.yul\":1099:1571   */\n    tag_9:\n        /* \"#utility.yul\":1166:1172   */\n      0x00\n        /* \"#utility.yul\":1174:1180   */\n      dup1\n        /* \"#utility.yul\":1223:1225   */\n      0x40\n        /* \"#utility.yul\":1211:1220   */\n      dup4\n        /* \"#utility.yul\":1202:1209   */\n      dup6\n        /* \"#utility.yul\":1198:1221   */\n      sub\n        /* \"#utility.yul\":1194:1226   */\n      slt\n        /* \"#utility.yul\":1191:1310   */\n      iszero\n      tag_86\n      jumpi\n        /* \"#utility.yul\":1229:1308   */\n      tag_87\n      tag_50\n      jump\t// in\n    tag_87:\n        /* \"#utility.yul\":1191:1310   */\n    tag_86:\n        /* \"#utility.yul\":1349:1350   */\n      0x00\n        /* \"#utility.yul\":1374:1427   */\n      tag_88\n        /* \"#utility.yul\":1419:1426   */\n      dup6\n        /* \"#utility.yul\":1410:1416   */\n      dup3\n        /* \"#utility.yul\":1399:1408   */\n      dup7\n        /* \"#utility.yul\":1395:1417   */\n      add\n        /* \"#utility.yul\":1374:1427   */\n      tag_54\n      jump\t// in\n    tag_88:\n        /* \"#utility.yul\":1364:1427   */\n      swap3\n      pop\n        /* \"#utility.yul\":1320:1437   */\n      pop\n        /* \"#utility.yul\":1476:1478   */\n      0x20\n        /* \"#utility.yul\":1502:1554   */\n      tag_89\n        /* \"#utility.yul\":1546:1553   */\n      dup6\n        /* \"#utility.yul\":1537:1543   */\n      dup3\n        /* \"#utility.yul\":1526:1535   */\n      dup7\n        /* \"#utility.yul\":1522:1544   */\n      add\n        /* \"#utility.yul\":1502:1554   */\n      tag_57\n      jump\t// in\n    tag_89:\n        /* \"#utility.yul\":1492:1554   */\n      swap2\n      pop\n        /* \"#utility.yul\":1447:1564   */\n      pop\n        /* \"#utility.yul\":1099:1571   */\n      swap3\n      pop\n      swap3\n      swap1\n      pop\n      jump\t// out\n        /* \"#utility.yul\":1577:1654   */\n    tag_58:\n        /* \"#utility.yul\":1614:1621   */\n      0x00\n        /* \"#utility.yul\":1643:1648   */\n      dup2\n        /* \"#utility.yul\":1632:1648   */\n      swap1\n      pop\n        /* \"#utility.yul\":1577:1654   */\n      swap2\n      swap1\n      pop\n      jump\t// out\n        /* \"#utility.yul\":1660:1782   */\n    tag_59:\n        /* \"#utility.yul\":1733:1757   */\n      tag_92\n        /* \"#utility.yul\":1751:1756   */\n      dup2\n        /* \"#utility.yul\":1733:1757   */\n      tag_58\n      jump\t// in\n    tag_92:\n        /* \"#utility.yul\":1726:1731   */\n      dup2\n        /* \"#utility.yul\":1723:1758   */\n      eq\n        /* \"#utility.yul\":1713:1776   */\n      tag_93\n      jumpi\n        /* \"#utility.yul\":1772:1773   */\n      0x00\n        /* \"#utility.yul\":1769:1770   */\n      dup1\n        /* \"#utility.yul\":1762:1774   */\n      revert\n        /* \"#utility.yul\":1713:1776   */\n    tag_93:\n        /* \"#utility.yul\":1660:1782   */\n      pop\n      jump\t// out\n        /* \"#utility.yul\":1788:1927   */\n    tag_60:\n        /* \"#utility.yul\":1834:1839   */\n      0x00\n        /* \"#utility.yul\":1872:1878   */\n      dup2\n        /* \"#utility.yul\":1859:1879   */\n      calldataload\n        /* \"#utility.yul\":1850:1879   */\n      swap1\n      pop\n        /* \"#utility.yul\":1888:1921   */\n      tag_95\n        /* \"#utility.yul\":1915:1920   */\n      dup2\n        /* \"#utility.yul\":1888:1921   */\n      tag_59\n      jump\t// in\n    tag_95:\n        /* \"#utility.yul\":1788:1927   */\n      swap3\n      swap2\n      pop\n      pop\n      jump\t// out\n        /* \"#utility.yul\":1933:2262   */\n    tag_13:\n        /* \"#utility.yul\":1992:1998   */\n      0x00\n        /* \"#utility.yul\":2041:2043   */\n      0x20\n        /* \"#utility.yul\":2029:2038   */\n      dup3\n        /* \"#utility.yul\":2020:2027   */\n      dup5\n        /* \"#utility.yul\":2016:2039   */\n      sub\n        /* \"#utility.yul\":2012:2044   */\n      slt\n        /* \"#utility.yul\":2009:2128   */\n      iszero\n      tag_97\n      jumpi\n        /* \"#utility.yul\":2047:2126   */\n      tag_98\n      tag_50\n      jump\t// in\n    tag_98:\n        /* \"#utility.yul\":2009:2128   */\n    tag_97:\n        /* \"#utility.yul\":2167:2168   */\n      0x00\n        /* \"#utility.yul\":2192:2245   */\n      tag_99\n        /* \"#utility.yul\":2237:2244   */\n      dup5\n        /* \"#utility.yul\":2228:2234   */\n      dup3\n        /* \"#utility.yul\":2217:2226   */\n      dup6\n        /* \"#utility.yul\":2213:2235   */\n      add\n        /* \"#utility.yul\":2192:2245   */\n      tag_60\n      jump\t// in\n    tag_99:\n        /* \"#utility.yul\":2182:2245   */\n      swap2\n      pop\n        /* \"#utility.yul\":2138:2255   */\n      pop\n        /* \"#utility.yul\":1933:2262   */\n      swap3\n      swap2\n      pop\n      pop\n      jump\t// out\n        /* \"#utility.yul\":2268:2394   */\n    tag_61:\n        /* \"#utility.yul\":2305:2312   */\n      0x00\n        /* \"#utility.yul\":2345:2387   */\n      0xffffffffffffffffffffffffffffffffffffffff\n        /* \"#utility.yul\":2338:2343   */\n      dup3\n        /* \"#utility.yul\":2334:2388   */\n      and\n        /* \"#utility.yul\":2323:2388   */\n      swap1\n      pop\n        /* \"#utility.yul\":2268:2394   */\n      swap2\n      swap1\n      pop\n      jump\t// out\n        /* \"#utility.yul\":2400:2460   */\n    tag_62:\n        /* \"#utility.yul\":2428:2431   */\n      0x00\n        /* \"#utility.yul\":2449:2454   */\n      dup2\n        /* \"#utility.yul\":2442:2454   */\n      swap1\n      pop\n        /* \"#utility.yul\":2400:2460   */\n      swap2\n      swap1\n      pop\n      jump\t// out\n        /* \"#utility.yul\":2466:2608   */\n    tag_63:\n        /* \"#utility.yul\":2516:2525   */\n      0x00\n        /* \"#utility.yul\":2549:2602   */\n      tag_103\n        /* \"#utility.yul\":2567:2601   */\n      tag_104\n        /* \"#utility.yul\":2576:2600   */\n      tag_105\n        /* \"#utility.yul\":2594:2599   */\n      dup5\n        /* \"#utility.yul\":2576:2600   */\n      tag_61\n      jump\t// in\n    tag_105:\n        /* \"#utility.yul\":2567:2601   */\n      tag_62\n      jump\t// in\n    tag_104:\n        /* \"#utility.yul\":2549:2602   */\n      tag_61\n      jump\t// in\n    tag_103:\n        /* \"#utility.yul\":2536:2602   */\n      swap1\n      pop\n        /* \"#utility.yul\":2466:2608   */\n      swap2\n      swap1\n      pop\n      jump\t// out\n        /* \"#utility.yul\":2614:2740   */\n    tag_64:\n        /* \"#utility.yul\":2664:2673   */\n      0x00\n        /* \"#utility.yul\":2697:2734   */\n      tag_107\n        /* \"#utility.yul\":2728:2733   */\n      dup3\n        /* \"#utility.yul\":2697:2734   */\n      tag_63\n      jump\t// in\n    tag_107:\n        /* \"#utility.yul\":2684:2734   */\n      swap1\n      pop\n        /* \"#utility.yul\":2614:2740   */\n      swap2\n      swap1\n      pop\n      jump\t// out\n        /* \"#utility.yul\":2746:2888   */\n    tag_65:\n        /* \"#utility.yul\":2812:2821   */\n      0x00\n        /* \"#utility.yul\":2845:2882   */\n      tag_109\n        /* \"#utility.yul\":2876:2881   */\n      dup3\n        /* \"#utility.yul\":2845:2882   */\n      tag_64\n      jump\t// in\n    tag_109:\n        /* \"#utility.yul\":2832:2882   */\n      swap1\n      pop\n        /* \"#utility.yul\":2746:2888   */\n      swap2\n      swap1\n      pop\n      jump\t// out\n        /* \"#utility.yul\":2894:3057   */\n    tag_66:\n        /* \"#utility.yul\":2997:3050   */\n      tag_111\n        /* \"#utility.yul\":3044:3049   */\n      dup2\n        /* \"#utility.yul\":2997:3050   */\n      tag_65\n      jump\t// in\n    tag_111:\n        /* \"#utility.yul\":2992:2995   */\n      dup3\n        /* \"#utility.yul\":2985:3051   */\n      mstore\n        /* \"#utility.yul\":2894:3057   */\n      pop\n      pop\n      jump\t// out\n        /* \"#utility.yul\":3063:3317   */\n    tag_16:\n        /* \"#utility.yul\":3172:3176   */\n      0x00\n        /* \"#utility.yul\":3210:3212   */\n      0x20\n        /* \"#utility.yul\":3199:3208   */\n      dup3\n        /* \"#utility.yul\":3195:3213   */\n      add\n        /* \"#utility.yul\":3187:3213   */\n      swap1\n      pop\n        /* \"#utility.yul\":3223:3310   */\n      tag_113\n        /* \"#utility.yul\":3307:3308   */\n      0x00\n        /* \"#utility.yul\":3296:3305   */\n      dup4\n        /* \"#utility.yul\":3292:3309   */\n      add\n        /* \"#utility.yul\":3283:3289   */\n      dup5\n        /* \"#utility.yul\":3223:3310   */\n      tag_66\n      jump\t// in\n    tag_113:\n        /* \"#utility.yul\":3063:3317   */\n      swap3\n      swap2\n      pop\n      pop\n      jump\t// out\n        /* \"#utility.yul\":3323:3652   */\n    tag_19:\n        /* \"#utility.yul\":3382:3388   */\n      0x00\n        /* \"#utility.yul\":3431:3433   */\n      0x20\n        /* \"#utility.yul\":3419:3428   */\n      dup3\n        /* \"#utility.yul\":3410:3417   */\n      dup5\n        /* \"#utility.yul\":3406:3429   */\n      sub\n        /* \"#utility.yul\":3402:3434   */\n      slt\n        /* \"#utility.yul\":3399:3518   */\n      iszero\n      tag_115\n      jumpi\n        /* \"#utility.yul\":3437:3516   */\n      tag_116\n      tag_50\n      jump\t// in\n    tag_116:\n        /* \"#utility.yul\":3399:3518   */\n    tag_115:\n        /* \"#utility.yul\":3557:3558   */\n      0x00\n        /* \"#utility.yul\":3582:3635   */\n      tag_117\n        /* \"#utility.yul\":3627:3634   */\n      dup5\n        /* \"#utility.yul\":3618:3624   */\n      dup3\n        /* \"#utility.yul\":3607:3616   */\n      dup6\n        /* \"#utility.yul\":3603:3625   */\n      add\n        /* \"#utility.yul\":3582:3635   */\n      tag_54\n      jump\t// in\n    tag_117:\n        /* \"#utility.yul\":3572:3635   */\n      swap2\n      pop\n        /* \"#utility.yul\":3528:3645   */\n      pop\n        /* \"#utility.yul\":3323:3652   */\n      swap3\n      swap2\n      pop\n      pop\n      jump\t// out\n        /* \"#utility.yul\":3658:3773   */\n    tag_67:\n        /* \"#utility.yul\":3743:3766   */\n      tag_119\n        /* \"#utility.yul\":3760:3765   */\n      dup2\n        /* \"#utility.yul\":3743:3766   */\n      tag_55\n      jump\t// in\n    tag_119:\n        /* \"#utility.yul\":3738:3741   */\n      dup3\n        /* \"#utility.yul\":3731:3767   */\n      mstore\n        /* \"#utility.yul\":3658:3773   */\n      pop\n      pop\n      jump\t// out\n        /* \"#utility.yul\":3779:3997   */\n    tag_22:\n        /* \"#utility.yul\":3870:3874   */\n      0x00\n        /* \"#utility.yul\":3908:3910   */\n      0x20\n        /* \"#utility.yul\":3897:3906   */\n      dup3\n        /* \"#utility.yul\":3893:3911   */\n      add\n        /* \"#utility.yul\":3885:3911   */\n      swap1\n      pop\n        /* \"#utility.yul\":3921:3990   */\n      tag_121\n        /* \"#utility.yul\":3987:3988   */\n      0x00\n        /* \"#utility.yul\":3976:3985   */\n      dup4\n        /* \"#utility.yul\":3972:3989   */\n      add\n        /* \"#utility.yul\":3963:3969   */\n      dup5\n        /* \"#utility.yul\":3921:3990   */\n      tag_67\n      jump\t// in\n    tag_121:\n        /* \"#utility.yul\":3779:3997   */\n      swap3\n      swap2\n      pop\n      pop\n      jump\t// out\n        /* \"#utility.yul\":4003:4183   */\n    tag_28:\n        /* \"#utility.yul\":4051:4128   */\n      0x4e487b7100000000000000000000000000000000000000000000000000000000\n        /* \"#utility.yul\":4048:4049   */\n      0x00\n        /* \"#utility.yul\":4041:4129   */\n      mstore\n        /* \"#utility.yul\":4148:4152   */\n      0x32\n        /* \"#utility.yul\":4145:4146   */\n      0x04\n        /* \"#utility.yul\":4138:4153   */\n      mstore\n        /* \"#utility.yul\":4172:4176   */\n      0x24\n        /* \"#utility.yul\":4169:4170   */\n      0x00\n        /* \"#utility.yul\":4162:4177   */\n      revert\n        /* \"#utility.yul\":4189:4330   */\n    tag_68:\n        /* \"#utility.yul\":4245:4250   */\n      0x00\n        /* \"#utility.yul\":4276:4282   */\n      dup2\n        /* \"#utility.yul\":4270:4283   */\n      mload\n        /* \"#utility.yul\":4261:4283   */\n      swap1\n      pop\n        /* \"#utility.yul\":4292:4324   */\n      tag_124\n        /* \"#utility.yul\":4318:4323   */\n      dup2\n        /* \"#utility.yul\":4292:4324   */\n      tag_56\n      jump\t// in\n    tag_124:\n        /* \"#utility.yul\":4189:4330   */\n      swap3\n      swap2\n      pop\n      pop\n      jump\t// out\n        /* \"#utility.yul\":4336:4685   */\n    tag_43:\n        /* \"#utility.yul\":4405:4411   */\n      0x00\n        /* \"#utility.yul\":4454:4456   */\n      0x20\n        /* \"#utility.yul\":4442:4451   */\n      dup3\n        /* \"#utility.yul\":4433:4440   */\n      dup5\n        /* \"#utility.yul\":4429:4452   */\n      sub\n        /* \"#utility.yul\":4425:4457   */\n      slt\n        /* \"#utility.yul\":4422:4541   */\n      iszero\n      tag_126\n      jumpi\n        /* \"#utility.yul\":4460:4539   */\n      tag_127\n      tag_50\n      jump\t// in\n    tag_127:\n        /* \"#utility.yul\":4422:4541   */\n    tag_126:\n        /* \"#utility.yul\":4580:4581   */\n      0x00\n        /* \"#utility.yul\":4605:4668   */\n      tag_128\n        /* \"#utility.yul\":4660:4667   */\n      dup5\n        /* \"#utility.yul\":4651:4657   */\n      dup3\n        /* \"#utility.yul\":4640:4649   */\n      dup6\n        /* \"#utility.yul\":4636:4658   */\n      add\n        /* \"#utility.yul\":4605:4668   */\n      tag_68\n      jump\t// in\n    tag_128:\n        /* \"#utility.yul\":4595:4668   */\n      swap2\n      pop\n        /* \"#utility.yul\":4551:4678   */\n      pop\n        /* \"#utility.yul\":4336:4685   */\n      swap3\n      swap2\n      pop\n      pop\n      jump\t// out\n    stop\n\n    sub_0: assembly {\n            /* \"contracts/MyStorage.sol\":57:422  contract MyStorage {... */\n          mstore(0x40, 0x80)\n            /* \"contracts/MyStorage.sol\":180:219  Person({name: \"daniel\", luckNumber: 0}) */\n          mload(0x40)\n          dup1\n          0x40\n          add\n          0x40\n          mstore\n          dup1\n          mload(0x40)\n          dup1\n          0x40\n          add\n          0x40\n          mstore\n          dup1\n          0x06\n          dup2\n          mstore\n          0x20\n          add\n          0x64616e69656c0000000000000000000000000000000000000000000000000000\n          dup2\n          mstore\n          pop\n          dup2\n          mstore\n          0x20\n          add\n            /* \"contracts/MyStorage.sol\":216:217  0 */\n          0x00\n            /* \"contracts/MyStorage.sol\":180:219  Person({name: \"daniel\", luckNumber: 0}) */\n          0xffffffff\n          and\n          dup2\n          mstore\n          pop\n            /* \"contracts/MyStorage.sol\":157:219  Person public person = Person({name: \"daniel\", luckNumber: 0}) */\n          0x00\n          dup1\n          dup3\n          add\n          mload\n          dup2\n          0x00\n          add\n          swap1\n          dup2\n          tag_1\n          swap2\n          swap1\n          tag_2\n          jump\t// in\n        tag_1:\n          pop\n          0x20\n          dup3\n          add\n          mload\n          dup2\n          0x01\n          add\n          exp(0x0100, 0x00)\n          dup2\n          sload\n          dup2\n          0xffffffff\n          mul\n          not\n          and\n          swap1\n          dup4\n          0xffffffff\n          and\n          mul\n          or\n          swap1\n          sstore\n          pop\n          pop\n          pop\n            /* \"contracts/MyStorage.sol\":57:422  contract MyStorage {... */\n          callvalue\n          dup1\n          iszero\n          tag_3\n          jumpi\n          0x00\n          dup1\n          revert\n        tag_3:\n          pop\n          jump(tag_4)\n            /* \"#utility.yul\":7:106   */\n        tag_5:\n            /* \"#utility.yul\":59:65   */\n          0x00\n            /* \"#utility.yul\":93:98   */\n          dup2\n            /* \"#utility.yul\":87:99   */\n          mload\n            /* \"#utility.yul\":77:99   */\n          swap1\n          pop\n            /* \"#utility.yul\":7:106   */\n          swap2\n          swap1\n          pop\n          jump\t// out\n            /* \"#utility.yul\":112:292   */\n        tag_6:\n            /* \"#utility.yul\":160:237   */\n          0x4e487b7100000000000000000000000000000000000000000000000000000000\n            /* \"#utility.yul\":157:158   */\n          0x00\n            /* \"#utility.yul\":150:238   */\n          mstore\n            /* \"#utility.yul\":257:261   */\n          0x41\n            /* \"#utility.yul\":254:255   */\n          0x04\n            /* \"#utility.yul\":247:262   */\n          mstore\n            /* \"#utility.yul\":281:285   */\n          0x24\n            /* \"#utility.yul\":278:279   */\n          0x00\n            /* \"#utility.yul\":271:286   */\n          revert\n            /* \"#utility.yul\":298:478   */\n        tag_7:\n            /* \"#utility.yul\":346:423   */\n          0x4e487b7100000000000000000000000000000000000000000000000000000000\n            /* \"#utility.yul\":343:344   */\n          0x00\n            /* \"#utility.yul\":336:424   */\n          mstore\n            /* \"#utility.yul\":443:447   */\n          0x22\n            /* \"#utility.yul\":440:441   */\n          0x04\n            /* \"#utility.yul\":433:448   */\n          mstore\n            /* \"#utility.yul\":467:471   */\n          0x24\n            /* \"#utility.yul\":464:465   */\n          0x00\n            /* \"#utility.yul\":457:472   */\n          revert\n            /* \"#utility.yul\":484:804   */\n        tag_8:\n            /* \"#utility.yul\":528:534   */\n          0x00\n            /* \"#utility.yul\":565:566   */\n          0x02\n            /* \"#utility.yul\":559:563   */\n          dup3\n            /* \"#utility.yul\":555:567   */\n          div\n            /* \"#utility.yul\":545:567   */\n          swap1\n          pop\n            /* \"#utility.yul\":612:613   */\n          0x01\n            /* \"#utility.yul\":606:610   */\n          dup3\n            /* \"#utility.yul\":602:614   */\n          and\n            /* \"#utility.yul\":633:651   */\n          dup1\n            /* \"#utility.yul\":623:704   */\n          tag_30\n          jumpi\n            /* \"#utility.yul\":689:693   */\n          0x7f\n            /* \"#utility.yul\":681:687   */\n          dup3\n            /* \"#utility.yul\":677:694   */\n          and\n            /* \"#utility.yul\":667:694   */\n          swap2\n          pop\n            /* \"#utility.yul\":623:704   */\n        tag_30:\n            /* \"#utility.yul\":751:753   */\n          0x20\n            /* \"#utility.yul\":743:749   */\n          dup3\n            /* \"#utility.yul\":740:754   */\n          lt\n            /* \"#utility.yul\":720:738   */\n          dup2\n            /* \"#utility.yul\":717:755   */\n          sub\n            /* \"#utility.yul\":714:798   */\n          tag_31\n          jumpi\n            /* \"#utility.yul\":770:788   */\n          tag_32\n          tag_7\n          jump\t// in\n        tag_32:\n            /* \"#utility.yul\":714:798   */\n        tag_31:\n            /* \"#utility.yul\":535:804   */\n          pop\n            /* \"#utility.yul\":484:804   */\n          swap2\n          swap1\n          pop\n          jump\t// out\n            /* \"#utility.yul\":810:951   */\n        tag_9:\n            /* \"#utility.yul\":859:863   */\n          0x00\n            /* \"#utility.yul\":882:885   */\n          dup2\n            /* \"#utility.yul\":874:885   */\n          swap1\n          pop\n            /* \"#utility.yul\":905:908   */\n          dup2\n            /* \"#utility.yul\":902:903   */\n          0x00\n            /* \"#utility.yul\":895:909   */\n          mstore\n            /* \"#utility.yul\":939:943   */\n          0x20\n            /* \"#utility.yul\":936:937   */\n          0x00\n            /* \"#utility.yul\":926:944   */\n          keccak256\n            /* \"#utility.yul\":918:944   */\n          swap1\n          pop\n            /* \"#utility.yul\":810:951   */\n          swap2\n          swap1\n          pop\n          jump\t// out\n            /* \"#utility.yul\":957:1050   */\n        tag_10:\n            /* \"#utility.yul\":994:1000   */\n          0x00\n            /* \"#utility.yul\":1041:1043   */\n          0x20\n            /* \"#utility.yul\":1036:1038   */\n          0x1f\n            /* \"#utility.yul\":1029:1034   */\n          dup4\n            /* \"#utility.yul\":1025:1039   */\n          add\n            /* \"#utility.yul\":1021:1044   */\n          div\n            /* \"#utility.yul\":1011:1044   */\n          swap1\n          pop\n            /* \"#utility.yul\":957:1050   */\n          swap2\n          swap1\n          pop\n          jump\t// out\n            /* \"#utility.yul\":1056:1163   */\n        tag_11:\n            /* \"#utility.yul\":1100:1108   */\n          0x00\n            /* \"#utility.yul\":1150:1155   */\n          dup3\n            /* \"#utility.yul\":1144:1148   */\n          dup3\n            /* \"#utility.yul\":1140:1156   */\n          shl\n            /* \"#utility.yul\":1119:1156   */\n          swap1\n          pop\n            /* \"#utility.yul\":1056:1163   */\n          swap3\n          swap2\n          pop\n          pop\n          jump\t// out\n            /* \"#utility.yul\":1169:1562   */\n        tag_12:\n            /* \"#utility.yul\":1238:1244   */\n          0x00\n            /* \"#utility.yul\":1288:1289   */\n          0x08\n            /* \"#utility.yul\":1276:1286   */\n          dup4\n            /* \"#utility.yul\":1272:1290   */\n          mul\n            /* \"#utility.yul\":1311:1408   */\n          tag_37\n            /* \"#utility.yul\":1341:1407   */\n          0xffffffffffffffffffffffffffffffffffffffffffffffffffffffffffffffff\n            /* \"#utility.yul\":1330:1339   */\n          dup3\n            /* \"#utility.yul\":1311:1408   */\n          tag_11\n          jump\t// in\n        tag_37:\n            /* \"#utility.yul\":1429:1468   */\n          tag_38\n            /* \"#utility.yul\":1459:1467   */\n          dup7\n            /* \"#utility.yul\":1448:1457   */\n          dup4\n            /* \"#utility.yul\":1429:1468   */\n          tag_11\n          jump\t// in\n        tag_38:\n            /* \"#utility.yul\":1417:1468   */\n          swap6\n          pop\n            /* \"#utility.yul\":1501:1505   */\n          dup1\n            /* \"#utility.yul\":1497:1506   */\n          not\n            /* \"#utility.yul\":1490:1495   */\n          dup5\n            /* \"#utility.yul\":1486:1507   */\n          and\n            /* \"#utility.yul\":1477:1507   */\n          swap4\n          pop\n            /* \"#utility.yul\":1550:1554   */\n          dup1\n            /* \"#utility.yul\":1540:1548   */\n          dup7\n            /* \"#utility.yul\":1536:1555   */\n          and\n            /* \"#utility.yul\":1529:1534   */\n          dup5\n            /* \"#utility.yul\":1526:1556   */\n          or\n            /* \"#utility.yul\":1516:1556   */\n          swap3\n          pop\n            /* \"#utility.yul\":1245:1562   */\n          pop\n          pop\n            /* \"#utility.yul\":1169:1562   */\n          swap4\n          swap3\n          pop\n          pop\n          pop\n          jump\t// out\n            /* \"#utility.yul\":1568:1645   */\n        tag_13:\n            /* \"#utility.yul\":1605:1612   */\n          0x00\n            /* \"#utility.yul\":1634:1639   */\n          dup2\n            /* \"#utility.yul\":1623:1639   */\n          swap1\n          pop\n            /* \"#utility.yul\":1568:1645   */\n          swap2\n          swap1\n          pop\n          jump\t// out\n            /* \"#utility.yul\":1651:1711   */\n        tag_14:\n            /* \"#utility.yul\":1679:1682   */\n          0x00\n            /* \"#utility.yul\":1700:1705   */\n          dup2\n            /* \"#utility.yul\":1693:1705   */\n          swap1\n          pop\n            /* \"#utility.yul\":1651:1711   */\n          swap2\n          swap1\n          pop\n          jump\t// out\n            /* \"#utility.yul\":1717:1859   */\n        tag_15:\n            /* \"#utility.yul\":1767:1776   */\n          0x00\n            /* \"#utility.yul\":1800:1853   */\n          tag_42\n            /* \"#utility.yul\":1818:1852   */\n          tag_43\n            /* \"#utility.yul\":1827:1851   */\n          tag_44\n            /* \"#utility.yul\":1845:1850   */\n          dup5\n            /* \"#utility.yul\":1827:1851   */\n          tag_13\n          jump\t// in\n        tag_44:\n            /* \"#utility.yul\":1818:1852   */\n          tag_14\n          jump\t// in\n        tag_43:\n            /* \"#utility.yul\":1800:1853   */\n          tag_13\n          jump\t// in\n        tag_42:\n            /* \"#utility.yul\":1787:1853   */\n          swap1\n          pop\n            /* \"#utility.yul\":1717:1859   */\n          swap2\n          swap1\n          pop\n          jump\t// out\n            /* \"#utility.yul\":1865:1940   */\n        tag_16:\n            /* \"#utility.yul\":1908:1911   */\n          0x00\n            /* \"#utility.yul\":1929:1934   */\n          dup2\n            /* \"#utility.yul\":1922:1934   */\n          swap1\n          pop\n            /* \"#utility.yul\":1865:1940   */\n          swap2\n          swap1\n          pop\n          jump\t// out\n            /* \"#utility.yul\":1946:2215   */\n        tag_17:\n            /* \"#utility.yul\":2056:2095   */\n          tag_47\n            /* \"#utility.yul\":2087:2094   */\n          dup4\n            /* \"#utility.yul\":2056:2095   */\n          tag_15\n          jump\t// in\n        tag_47:\n            /* \"#utility.yul\":2117:2208   */\n          tag_48\n            /* \"#utility.yul\":2166:2207   */\n          tag_49\n            /* \"#utility.yul\":2190:2206   */\n          dup3\n            /* \"#utility.yul\":2166:2207   */\n          tag_16\n          jump\t// in\n        tag_49:\n            /* \"#utility.yul\":2158:2164   */\n          dup5\n            /* \"#utility.yul\":2151:2155   */\n          dup5\n            /* \"#utility.yul\":2145:2156   */\n          sload\n            /* \"#utility.yul\":2117:2208   */\n          tag_12\n          jump\t// in\n        tag_48:\n            /* \"#utility.yul\":2111:2115   */\n          dup3\n            /* \"#utility.yul\":2104:2209   */\n          sstore\n            /* \"#utility.yul\":2022:2215   */\n          pop\n            /* \"#utility.yul\":1946:2215   */\n          pop\n          pop\n          pop\n          jump\t// out\n            /* \"#utility.yul\":2221:2294   */\n        tag_18:\n            /* \"#utility.yul\":2266:2269   */\n          0x00\n            /* \"#utility.yul\":2221:2294   */\n          swap1\n          jump\t// out\n            /* \"#utility.yul\":2300:2489   */\n        tag_19:\n            /* \"#utility.yul\":2377:2409   */\n          tag_52\n          tag_18\n          jump\t// in\n        tag_52:\n            /* \"#utility.yul\":2418:2483   */\n          tag_53\n            /* \"#utility.yul\":2476:2482   */\n          dup2\n            /* \"#utility.yul\":2468:2474   */\n          dup5\n            /* \"#utility.yul\":2462:2466   */\n          dup5\n            /* \"#utility.yul\":2418:2483   */\n          tag_17\n          jump\t// in\n        tag_53:\n            /* \"#utility.yul\":2353:2489   */\n          pop\n            /* \"#utility.yul\":2300:2489   */\n          pop\n          pop\n          jump\t// out\n            /* \"#utility.yul\":2495:2681   */\n        tag_20:\n            /* \"#utility.yul\":2555:2675   */\n        tag_55:\n            /* \"#utility.yul\":2572:2575   */\n          dup2\n            /* \"#utility.yul\":2565:2570   */\n          dup2\n            /* \"#utility.yul\":2562:2576   */\n          lt\n            /* \"#utility.yul\":2555:2675   */\n          iszero\n          tag_57\n          jumpi\n            /* \"#utility.yul\":2626:2665   */\n          tag_58\n            /* \"#utility.yul\":2663:2664   */\n          0x00\n            /* \"#utility.yul\":2656:2661   */\n          dup3\n            /* \"#utility.yul\":2626:2665   */\n          tag_19\n          jump\t// in\n        tag_58:\n            /* \"#utility.yul\":2599:2600   */\n          0x01\n            /* \"#utility.yul\":2592:2597   */\n          dup2\n            /* \"#utility.yul\":2588:2601   */\n          add\n            /* \"#utility.yul\":2579:2601   */\n          swap1\n          pop\n            /* \"#utility.yul\":2555:2675   */\n          jump(tag_55)\n        tag_57:\n            /* \"#utility.yul\":2495:2681   */\n          pop\n          pop\n          jump\t// out\n            /* \"#utility.yul\":2687:3230   */\n        tag_21:\n            /* \"#utility.yul\":2788:2790   */\n          0x1f\n            /* \"#utility.yul\":2783:2786   */\n          dup3\n            /* \"#utility.yul\":2780:2791   */\n          gt\n            /* \"#utility.yul\":2777:3223   */\n          iszero\n          tag_60\n          jumpi\n            /* \"#utility.yul\":2822:2860   */\n          tag_61\n            /* \"#utility.yul\":2854:2859   */\n          dup2\n            /* \"#utility.yul\":2822:2860   */\n          tag_9\n          jump\t// in\n        tag_61:\n            /* \"#utility.yul\":2906:2935   */\n          tag_62\n            /* \"#utility.yul\":2924:2934   */\n          dup5\n            /* \"#utility.yul\":2906:2935   */\n          tag_10\n          jump\t// in\n        tag_62:\n            /* \"#utility.yul\":2896:2904   */\n          dup2\n            /* \"#utility.yul\":2892:2936   */\n          add\n            /* \"#utility.yul\":3089:3091   */\n          0x20\n            /* \"#utility.yul\":3077:3087   */\n          dup6\n            /* \"#utility.yul\":3074:3092   */\n          lt\n            /* \"#utility.yul\":3071:3120   */\n          iszero\n          tag_63\n          jumpi\n            /* \"#utility.yul\":3110:3118   */\n          dup2\n            /* \"#utility.yul\":3095:3118   */\n          swap1\n          pop\n            /* \"#utility.yul\":3071:3120   */\n        tag_63:\n            /* \"#utility.yul\":3133:3213   */\n          tag_64\n            /* \"#utility.yul\":3189:3211   */\n          tag_65\n            /* \"#utility.yul\":3207:3210   */\n          dup6\n            /* \"#utility.yul\":3189:3211   */\n          tag_10\n          jump\t// in\n        tag_65:\n            /* \"#utility.yul\":3179:3187   */\n          dup4\n            /* \"#utility.yul\":3175:3212   */\n          add\n            /* \"#utility.yul\":3162:3173   */\n          dup3\n            /* \"#utility.yul\":3133:3213   */\n          tag_20\n          jump\t// in\n        tag_64:\n            /* \"#utility.yul\":2792:3223   */\n          pop\n          pop\n            /* \"#utility.yul\":2777:3223   */\n        tag_60:\n            /* \"#utility.yul\":2687:3230   */\n          pop\n          pop\n          pop\n          jump\t// out\n            /* \"#utility.yul\":3236:3353   */\n        tag_22:\n            /* \"#utility.yul\":3290:3298   */\n          0x00\n            /* \"#utility.yul\":3340:3345   */\n          dup3\n            /* \"#utility.yul\":3334:3338   */\n          dup3\n            /* \"#utility.yul\":3330:3346   */\n          shr\n            /* \"#utility.yul\":3309:3346   */\n          swap1\n          pop\n            /* \"#utility.yul\":3236:3353   */\n          swap3\n          swap2\n          pop\n          pop\n          jump\t// out\n            /* \"#utility.yul\":3359:3528   */\n        tag_23:\n            /* \"#utility.yul\":3403:3409   */\n          0x00\n            /* \"#utility.yul\":3436:3487   */\n          tag_68\n            /* \"#utility.yul\":3484:3485   */\n          0x00\n            /* \"#utility.yul\":3480:3486   */\n          not\n            /* \"#utility.yul\":3472:3477   */\n          dup5\n            /* \"#utility.yul\":3469:3470   */\n          0x08\n            /* \"#utility.yul\":3465:3478   */\n          mul\n            /* \"#utility.yul\":3436:3487   */\n          tag_22\n          jump\t// in\n        tag_68:\n            /* \"#utility.yul\":3432:3488   */\n          not\n            /* \"#utility.yul\":3517:3521   */\n          dup1\n            /* \"#utility.yul\":3511:3515   */\n          dup4\n            /* \"#utility.yul\":3507:3522   */\n          and\n            /* \"#utility.yul\":3497:3522   */\n          swap2\n          pop\n            /* \"#utility.yul\":3410:3528   */\n          pop\n            /* \"#utility.yul\":3359:3528   */\n          swap3\n          swap2\n          pop\n          pop\n          jump\t// out\n            /* \"#utility.yul\":3533:3828   */\n        tag_24:\n            /* \"#utility.yul\":3609:3613   */\n          0x00\n            /* \"#utility.yul\":3755:3784   */\n          tag_70\n            /* \"#utility.yul\":3780:3783   */\n          dup4\n            /* \"#utility.yul\":3774:3778   */\n          dup4\n            /* \"#utility.yul\":3755:3784   */\n          tag_23\n          jump\t// in\n        tag_70:\n            /* \"#utility.yul\":3747:3784   */\n          swap2\n          pop\n            /* \"#utility.yul\":3817:3820   */\n          dup3\n            /* \"#utility.yul\":3814:3815   */\n          0x02\n            /* \"#utility.yul\":3810:3821   */\n          mul\n            /* \"#utility.yul\":3804:3808   */\n          dup3\n            /* \"#utility.yul\":3801:3822   */\n          or\n            /* \"#utility.yul\":3793:3822   */\n          swap1\n          pop\n            /* \"#utility.yul\":3533:3828   */\n          swap3\n          swap2\n          pop\n          pop\n          jump\t// out\n            /* \"#utility.yul\":3833:5228   */\n        tag_2:\n            /* \"#utility.yul\":3950:3987   */\n          tag_72\n            /* \"#utility.yul\":3983:3986   */\n          dup3\n            /* \"#utility.yul\":3950:3987   */\n          tag_5\n          jump\t// in\n        tag_72:\n            /* \"#utility.yul\":4052:4070   */\n          0xffffffffffffffff\n            /* \"#utility.yul\":4044:4050   */\n          dup2\n            /* \"#utility.yul\":4041:4071   */\n          gt\n            /* \"#utility.yul\":4038:4094   */\n          iszero\n          tag_73\n          jumpi\n            /* \"#utility.yul\":4074:4092   */\n          tag_74\n          tag_6\n          jump\t// in\n        tag_74:\n            /* \"#utility.yul\":4038:4094   */\n        tag_73:\n            /* \"#utility.yul\":4118:4156   */\n          tag_75\n            /* \"#utility.yul\":4150:4154   */\n          dup3\n            /* \"#utility.yul\":4144:4155   */\n          sload\n            /* \"#utility.yul\":4118:4156   */\n          tag_8\n          jump\t// in\n        tag_75:\n            /* \"#utility.yul\":4203:4270   */\n          tag_76\n            /* \"#utility.yul\":4263:4269   */\n          dup3\n            /* \"#utility.yul\":4255:4261   */\n          dup3\n            /* \"#utility.yul\":4249:4253   */\n          dup6\n            /* \"#utility.yul\":4203:4270   */\n          tag_21\n          jump\t// in\n        tag_76:\n            /* \"#utility.yul\":4297:4298   */\n          0x00\n            /* \"#utility.yul\":4321:4325   */\n          0x20\n            /* \"#utility.yul\":4308:4325   */\n          swap1\n          pop\n            /* \"#utility.yul\":4353:4355   */\n          0x1f\n            /* \"#utility.yul\":4345:4351   */\n          dup4\n            /* \"#utility.yul\":4342:4356   */\n          gt\n            /* \"#utility.yul\":4370:4371   */\n          0x01\n            /* \"#utility.yul\":4365:4983   */\n          dup2\n          eq\n          tag_78\n          jumpi\n            /* \"#utility.yul\":5027:5028   */\n          0x00\n            /* \"#utility.yul\":5044:5050   */\n          dup5\n            /* \"#utility.yul\":5041:5118   */\n          iszero\n          tag_79\n          jumpi\n            /* \"#utility.yul\":5093:5102   */\n          dup3\n            /* \"#utility.yul\":5088:5091   */\n          dup8\n            /* \"#utility.yul\":5084:5103   */\n          add\n            /* \"#utility.yul\":5078:5104   */\n          mload\n            /* \"#utility.yul\":5069:5104   */\n          swap1\n          pop\n            /* \"#utility.yul\":5041:5118   */\n        tag_79:\n            /* \"#utility.yul\":5144:5211   */\n          tag_80\n            /* \"#utility.yul\":5204:5210   */\n          dup6\n            /* \"#utility.yul\":5197:5202   */\n          dup3\n            /* \"#utility.yul\":5144:5211   */\n          tag_24\n          jump\t// in\n        tag_80:\n            /* \"#utility.yul\":5138:5142   */\n          dup7\n            /* \"#utility.yul\":5131:5212   */\n          sstore\n            /* \"#utility.yul\":5000:5222   */\n          pop\n            /* \"#utility.yul\":4335:5222   */\n          jump(tag_77)\n            /* \"#utility.yul\":4365:4983   */\n        tag_78:\n            /* \"#utility.yul\":4417:4421   */\n          0x1f\n            /* \"#utility.yul\":4413:4422   */\n          not\n            /* \"#utility.yul\":4405:4411   */\n          dup5\n            /* \"#utility.yul\":4401:4423   */\n          and\n            /* \"#utility.yul\":4451:4488   */\n          tag_81\n            /* \"#utility.yul\":4483:4487   */\n          dup7\n            /* \"#utility.yul\":4451:4488   */\n          tag_9\n          jump\t// in\n        tag_81:\n            /* \"#utility.yul\":4510:4511   */\n          0x00\n            /* \"#utility.yul\":4524:4732   */\n        tag_82:\n            /* \"#utility.yul\":4538:4545   */\n          dup3\n            /* \"#utility.yul\":4535:4536   */\n          dup2\n            /* \"#utility.yul\":4532:4546   */\n          lt\n            /* \"#utility.yul\":4524:4732   */\n          iszero\n          tag_84\n          jumpi\n            /* \"#utility.yul\":4617:4626   */\n          dup5\n            /* \"#utility.yul\":4612:4615   */\n          dup10\n            /* \"#utility.yul\":4608:4627   */\n          add\n            /* \"#utility.yul\":4602:4628   */\n          mload\n            /* \"#utility.yul\":4594:4600   */\n          dup3\n            /* \"#utility.yul\":4587:4629   */\n          sstore\n            /* \"#utility.yul\":4668:4669   */\n          0x01\n            /* \"#utility.yul\":4660:4666   */\n          dup3\n            /* \"#utility.yul\":4656:4670   */\n          add\n            /* \"#utility.yul\":4646:4670   */\n          swap2\n          pop\n            /* \"#utility.yul\":4715:4717   */\n          0x20\n            /* \"#utility.yul\":4704:4713   */\n          dup6\n            /* \"#utility.yul\":4700:4718   */\n          add\n            /* \"#utility.yul\":4687:4718   */\n          swap5\n          pop\n            /* \"#utility.yul\":4561:4565   */\n          0x20\n            /* \"#utility.yul\":4558:4559   */\n          dup2\n            /* \"#utility.yul\":4554:4566   */\n          add\n            /* \"#utility.yul\":4549:4566   */\n          swap1\n          pop\n            /* \"#utility.yul\":4524:4732   */\n          jump(tag_82)\n        tag_84:\n            /* \"#utility.yul\":4760:4766   */\n          dup7\n            /* \"#utility.yul\":4751:4758   */\n          dup4\n            /* \"#utility.yul\":4748:4767   */\n          lt\n            /* \"#utility.yul\":4745:4924   */\n          iszero\n          tag_85\n          jumpi\n            /* \"#utility.yul\":4818:4827   */\n          dup5\n            /* \"#utility.yul\":4813:4816   */\n          dup10\n            /* \"#utility.yul\":4809:4828   */\n          add\n            /* \"#utility.yul\":4803:4829   */\n          mload\n            /* \"#utility.yul\":4861:4909   */\n          tag_86\n            /* \"#utility.yul\":4903:4907   */\n          0x1f\n            /* \"#utility.yul\":4895:4901   */\n          dup10\n            /* \"#utility.yul\":4891:4908   */\n          and\n            /* \"#utility.yul\":4880:4889   */\n          dup3\n            /* \"#utility.yul\":4861:4909   */\n          tag_23\n          jump\t// in\n        tag_86:\n            /* \"#utility.yul\":4853:4859   */\n          dup4\n            /* \"#utility.yul\":4846:4910   */\n          sstore\n            /* \"#utility.yul\":4768:4924   */\n          pop\n            /* \"#utility.yul\":4745:4924   */\n        tag_85:\n            /* \"#utility.yul\":4970:4971   */\n          0x01\n            /* \"#utility.yul\":4966:4967   */\n          0x02\n            /* \"#utility.yul\":4958:4964   */\n          dup9\n            /* \"#utility.yul\":4954:4968   */\n          mul\n            /* \"#utility.yul\":4950:4972   */\n          add\n            /* \"#utility.yul\":4944:4948   */\n          dup9\n            /* \"#utility.yul\":4937:4973   */\n          sstore\n            /* \"#utility.yul\":4372:4983   */\n          pop\n          pop\n          pop\n            /* \"#utility.yul\":4335:5222   */\n        tag_77:\n          pop\n            /* \"#utility.yul\":3925:5228   */\n          pop\n          pop\n          pop\n            /* \"#utility.yul\":3833:5228   */\n          pop\n          pop\n          jump\t// out\n            /* \"contracts/MyStorage.sol\":57:422  contract MyStorage {... */\n        tag_4:\n          dataSize(sub_0)\n          dup1\n          dataOffset(sub_0)\n          0x00\n          codecopy\n          0x00\n          return\n        stop\n\n        sub_0: assembly {\n                /* \"contracts/MyStorage.sol\":57:422  contract MyStorage {... */\n              mstore(0x40, 0x80)\n              callvalue\n              dup1\n              iszero\n              tag_1\n              jumpi\n              0x00\n              dup1\n              revert\n            tag_1:\n              pop\n              jumpi(tag_2, lt(calldatasize, 0x04))\n              shr(0xe0, calldataload(0x00))\n              dup1\n              0x3516c85c\n              eq\n              tag_3\n              jumpi\n              dup1\n              0x77ec2b55\n              eq\n              tag_4\n              jumpi\n              dup1\n              0xf2c9ecd8\n              eq\n              tag_5\n              jumpi\n            tag_2:\n              0x00\n              dup1\n              revert\n                /* \"contracts/MyStorage.sol\":226:323  function updateNumber(uint32 _luckNumber) public {... */\n            tag_3:\n              tag_6\n              0x04\n              dup1\n              calldatasize\n              sub\n              dup2\n              add\n              swap1\n              tag_7\n              swap2\n              swap1\n              tag_8\n              jump\t// in\n            tag_7:\n              tag_9\n              jump\t// in\n            tag_6:\n              stop\n                /* \"contracts/MyStorage.sol\":157:219  Person public person = Person({name: \"daniel\", luckNumber: 0}) */\n            tag_4:\n              tag_10\n              tag_11\n              jump\t// in\n            tag_10:\n              mload(0x40)\n              tag_12\n              swap3\n              swap2\n              swap1\n              tag_13\n              jump\t// in\n            tag_12:\n              mload(0x40)\n              dup1\n              swap2\n              sub\n              swap1\n              return\n                /* \"contracts/MyStorage.sol\":329:419  function getNumber() public view returns(uint32) {... */\n            tag_5:\n              tag_14\n              tag_15\n              jump\t// in\n            tag_14:\n              mload(0x40)\n              tag_16\n              swap2\n              swap1\n              tag_17\n              jump\t// in\n            tag_16:\n              mload(0x40)\n              dup1\n              swap2\n              sub\n              swap1\n              return\n                /* \"contracts/MyStorage.sol\":226:323  function updateNumber(uint32 _luckNumber) public {... */\n            tag_9:\n                /* \"contracts/MyStorage.sol\":305:316  _luckNumber */\n              dup1\n                /* \"contracts/MyStorage.sol\":285:291  person */\n              0x00\n                /* \"contracts/MyStorage.sol\":285:302  person.luckNumber */\n              0x01\n              add\n              0x00\n                /* \"contracts/MyStorage.sol\":285:316  person.luckNumber = _luckNumber */\n              0x0100\n              exp\n              dup2\n              sload\n              dup2\n              0xffffffff\n              mul\n              not\n              and\n              swap1\n              dup4\n              0xffffffff\n              and\n              mul\n              or\n              swap1\n              sstore\n              pop\n                /* \"contracts/MyStorage.sol\":226:323  function updateNumber(uint32 _luckNumber) public {... */\n              pop\n              jump\t// out\n                /* \"contracts/MyStorage.sol\":157:219  Person public person = Person({name: \"daniel\", luckNumber: 0}) */\n            tag_11:\n              0x00\n              dup1\n              0x00\n              add\n              dup1\n              sload\n              tag_19\n              swap1\n              tag_20\n              jump\t// in\n            tag_19:\n              dup1\n              0x1f\n              add\n              0x20\n              dup1\n              swap2\n              div\n              mul\n              0x20\n              add\n              mload(0x40)\n              swap1\n              dup2\n              add\n              0x40\n              mstore\n              dup1\n              swap3\n              swap2\n              swap1\n              dup2\n              dup2\n              mstore\n              0x20\n              add\n              dup3\n              dup1\n              sload\n              tag_21\n              swap1\n              tag_20\n              jump\t// in\n            tag_21:\n              dup1\n              iszero\n              tag_22\n              jumpi\n              dup1\n              0x1f\n              lt\n              tag_23\n              jumpi\n              0x0100\n              dup1\n              dup4\n              sload\n              div\n              mul\n              dup4\n              mstore\n              swap2\n              0x20\n              add\n              swap2\n              jump(tag_22)\n            tag_23:\n              dup3\n              add\n              swap2\n              swap1\n              0x00\n              mstore\n              keccak256(0x00, 0x20)\n              swap1\n            tag_24:\n              dup2\n              sload\n              dup2\n              mstore\n              swap1\n              0x01\n              add\n              swap1\n              0x20\n              add\n              dup1\n              dup4\n              gt\n              tag_24\n              jumpi\n              dup3\n              swap1\n              sub\n              0x1f\n              and\n              dup3\n              add\n              swap2\n            tag_22:\n              pop\n              pop\n              pop\n              pop\n              pop\n              swap1\n              dup1\n              0x01\n              add\n              0x00\n              swap1\n              sload\n              swap1\n              0x0100\n              exp\n              swap1\n              div\n              0xffffffff\n              and\n              swap1\n              pop\n              dup3\n              jump\t// out\n                /* \"contracts/MyStorage.sol\":329:419  function getNumber() public view returns(uint32) {... */\n            tag_15:\n                /* \"contracts/MyStorage.sol\":370:376  uint32 */\n              0x00\n                /* \"contracts/MyStorage.sol\":395:401  person */\n              dup1\n                /* \"contracts/MyStorage.sol\":395:412  person.luckNumber */\n              0x01\n              add\n              0x00\n              swap1\n              sload\n              swap1\n              0x0100\n              exp\n              swap1\n              div\n              0xffffffff\n              and\n                /* \"contracts/MyStorage.sol\":388:412  return person.luckNumber */\n              swap1\n              pop\n                /* \"contracts/MyStorage.sol\":329:419  function getNumber() public view returns(uint32) {... */\n              swap1\n              jump\t// out\n                /* \"#utility.yul\":88:205   */\n            tag_27:\n                /* \"#utility.yul\":197:198   */\n              0x00\n                /* \"#utility.yul\":194:195   */\n              dup1\n                /* \"#utility.yul\":187:199   */\n              revert\n                /* \"#utility.yul\":334:427   */\n            tag_29:\n                /* \"#utility.yul\":370:377   */\n              0x00\n                /* \"#utility.yul\":410:420   */\n              0xffffffff\n                /* \"#utility.yul\":403:408   */\n              dup3\n                /* \"#utility.yul\":399:421   */\n              and\n                /* \"#utility.yul\":388:421   */\n              swap1\n              pop\n                /* \"#utility.yul\":334:427   */\n              swap2\n              swap1\n              pop\n              jump\t// out\n                /* \"#utility.yul\":433:553   */\n            tag_30:\n                /* \"#utility.yul\":505:528   */\n              tag_45\n                /* \"#utility.yul\":522:527   */\n              dup2\n                /* \"#utility.yul\":505:528   */\n              tag_29\n              jump\t// in\n            tag_45:\n                /* \"#utility.yul\":498:503   */\n              dup2\n                /* \"#utility.yul\":495:529   */\n              eq\n                /* \"#utility.yul\":485:547   */\n              tag_46\n              jumpi\n                /* \"#utility.yul\":543:544   */\n              0x00\n                /* \"#utility.yul\":540:541   */\n              dup1\n                /* \"#utility.yul\":533:545   */\n              revert\n                /* \"#utility.yul\":485:547   */\n            tag_46:\n                /* \"#utility.yul\":433:553   */\n              pop\n              jump\t// out\n                /* \"#utility.yul\":559:696   */\n            tag_31:\n                /* \"#utility.yul\":604:609   */\n              0x00\n                /* \"#utility.yul\":642:648   */\n              dup2\n                /* \"#utility.yul\":629:649   */\n              calldataload\n                /* \"#utility.yul\":620:649   */\n              swap1\n              pop\n                /* \"#utility.yul\":658:690   */\n              tag_48\n                /* \"#utility.yul\":684:689   */\n              dup2\n                /* \"#utility.yul\":658:690   */\n              tag_30\n              jump\t// in\n            tag_48:\n                /* \"#utility.yul\":559:696   */\n              swap3\n              swap2\n              pop\n              pop\n              jump\t// out\n                /* \"#utility.yul\":702:1029   */\n            tag_8:\n                /* \"#utility.yul\":760:766   */\n              0x00\n                /* \"#utility.yul\":809:811   */\n              0x20\n                /* \"#utility.yul\":797:806   */\n              dup3\n                /* \"#utility.yul\":788:795   */\n              dup5\n                /* \"#utility.yul\":784:807   */\n              sub\n                /* \"#utility.yul\":780:812   */\n              slt\n                /* \"#utility.yul\":777:896   */\n              iszero\n              tag_50\n              jumpi\n                /* \"#utility.yul\":815:894   */\n              tag_51\n              tag_27\n              jump\t// in\n            tag_51:\n                /* \"#utility.yul\":777:896   */\n            tag_50:\n                /* \"#utility.yul\":935:936   */\n              0x00\n                /* \"#utility.yul\":960:1012   */\n              tag_52\n                /* \"#utility.yul\":1004:1011   */\n              dup5\n                /* \"#utility.yul\":995:1001   */\n              dup3\n                /* \"#utility.yul\":984:993   */\n              dup6\n                /* \"#utility.yul\":980:1002   */\n              add\n                /* \"#utility.yul\":960:1012   */\n              tag_31\n              jump\t// in\n            tag_52:\n                /* \"#utility.yul\":950:1012   */\n              swap2\n              pop\n                /* \"#utility.yul\":906:1022   */\n              pop\n                /* \"#utility.yul\":702:1029   */\n              swap3\n              swap2\n              pop\n              pop\n              jump\t// out\n                /* \"#utility.yul\":1035:1134   */\n            tag_32:\n                /* \"#utility.yul\":1087:1093   */\n              0x00\n                /* \"#utility.yul\":1121:1126   */\n              dup2\n                /* \"#utility.yul\":1115:1127   */\n              mload\n                /* \"#utility.yul\":1105:1127   */\n              swap1\n              pop\n                /* \"#utility.yul\":1035:1134   */\n              swap2\n              swap1\n              pop\n              jump\t// out\n                /* \"#utility.yul\":1140:1309   */\n            tag_33:\n                /* \"#utility.yul\":1224:1235   */\n              0x00\n                /* \"#utility.yul\":1258:1264   */\n              dup3\n                /* \"#utility.yul\":1253:1256   */\n              dup3\n                /* \"#utility.yul\":1246:1265   */\n              mstore\n                /* \"#utility.yul\":1298:1302   */\n              0x20\n                /* \"#utility.yul\":1293:1296   */\n              dup3\n                /* \"#utility.yul\":1289:1303   */\n              add\n                /* \"#utility.yul\":1274:1303   */\n              swap1\n              pop\n                /* \"#utility.yul\":1140:1309   */\n              swap3\n              swap2\n              pop\n              pop\n              jump\t// out\n                /* \"#utility.yul\":1315:1561   */\n            tag_34:\n                /* \"#utility.yul\":1396:1397   */\n              0x00\n                /* \"#utility.yul\":1406:1519   */\n            tag_56:\n                /* \"#utility.yul\":1420:1426   */\n              dup4\n                /* \"#utility.yul\":1417:1418   */\n              dup2\n                /* \"#utility.yul\":1414:1427   */\n              lt\n                /* \"#utility.yul\":1406:1519   */\n              iszero\n              tag_58\n              jumpi\n                /* \"#utility.yul\":1505:1506   */\n              dup1\n                /* \"#utility.yul\":1500:1503   */\n              dup3\n                /* \"#utility.yul\":1496:1507   */\n              add\n                /* \"#utility.yul\":1490:1508   */\n              mload\n                /* \"#utility.yul\":1486:1487   */\n              dup2\n                /* \"#utility.yul\":1481:1484   */\n              dup5\n                /* \"#utility.yul\":1477:1488   */\n              add\n                /* \"#utility.yul\":1470:1509   */\n              mstore\n                /* \"#utility.yul\":1442:1444   */\n              0x20\n                /* \"#utility.yul\":1439:1440   */\n              dup2\n                /* \"#utility.yul\":1435:1445   */\n              add\n                /* \"#utility.yul\":1430:1445   */\n              swap1\n              pop\n                /* \"#utility.yul\":1406:1519   */\n              jump(tag_56)\n            tag_58:\n                /* \"#utility.yul\":1553:1554   */\n              0x00\n                /* \"#utility.yul\":1544:1550   */\n              dup5\n                /* \"#utility.yul\":1539:1542   */\n              dup5\n                /* \"#utility.yul\":1535:1551   */\n              add\n                /* \"#utility.yul\":1528:1555   */\n              mstore\n                /* \"#utility.yul\":1377:1561   */\n              pop\n                /* \"#utility.yul\":1315:1561   */\n              pop\n              pop\n              pop\n              jump\t// out\n                /* \"#utility.yul\":1567:1669   */\n            tag_35:\n                /* \"#utility.yul\":1608:1614   */\n              0x00\n                /* \"#utility.yul\":1659:1661   */\n              0x1f\n                /* \"#utility.yul\":1655:1662   */\n              not\n                /* \"#utility.yul\":1650:1652   */\n              0x1f\n                /* \"#utility.yul\":1643:1648   */\n              dup4\n                /* \"#utility.yul\":1639:1653   */\n              add\n                /* \"#utility.yul\":1635:1663   */\n              and\n                /* \"#utility.yul\":1625:1663   */\n              swap1\n              pop\n                /* \"#utility.yul\":1567:1669   */\n              swap2\n              swap1\n              pop\n              jump\t// out\n                /* \"#utility.yul\":1675:2052   */\n            tag_36:\n                /* \"#utility.yul\":1763:1766   */\n              0x00\n                /* \"#utility.yul\":1791:1830   */\n              tag_61\n                /* \"#utility.yul\":1824:1829   */\n              dup3\n                /* \"#utility.yul\":1791:1830   */\n              tag_32\n              jump\t// in\n            tag_61:\n                /* \"#utility.yul\":1846:1917   */\n              tag_62\n                /* \"#utility.yul\":1910:1916   */\n              dup2\n                /* \"#utility.yul\":1905:1908   */\n              dup6\n                /* \"#utility.yul\":1846:1917   */\n              tag_33\n              jump\t// in\n            tag_62:\n                /* \"#utility.yul\":1839:1917   */\n              swap4\n              pop\n                /* \"#utility.yul\":1926:1991   */\n              tag_63\n                /* \"#utility.yul\":1984:1990   */\n              dup2\n                /* \"#utility.yul\":1979:1982   */\n              dup6\n                /* \"#utility.yul\":1972:1976   */\n              0x20\n                /* \"#utility.yul\":1965:1970   */\n              dup7\n                /* \"#utility.yul\":1961:1977   */\n              add\n                /* \"#utility.yul\":1926:1991   */\n              tag_34\n              jump\t// in\n            tag_63:\n                /* \"#utility.yul\":2016:2045   */\n              tag_64\n                /* \"#utility.yul\":2038:2044   */\n              dup2\n                /* \"#utility.yul\":2016:2045   */\n              tag_35\n              jump\t// in\n            tag_64:\n                /* \"#utility.yul\":2011:2014   */\n              dup5\n                /* \"#utility.yul\":2007:2046   */\n              add\n                /* \"#utility.yul\":2000:2046   */\n              swap2\n              pop\n                /* \"#utility.yul\":1767:2052   */\n              pop\n                /* \"#utility.yul\":1675:2052   */\n              swap3\n              swap2\n              pop\n              pop\n              jump\t// out\n                /* \"#utility.yul\":2058:2173   */\n            tag_37:\n                /* \"#utility.yul\":2143:2166   */\n              tag_66\n                /* \"#utility.yul\":2160:2165   */\n              dup2\n                /* \"#utility.yul\":2143:2166   */\n              tag_29\n              jump\t// in\n            tag_66:\n                /* \"#utility.yul\":2138:2141   */\n              dup3\n                /* \"#utility.yul\":2131:2167   */\n              mstore\n                /* \"#utility.yul\":2058:2173   */\n              pop\n              pop\n              jump\t// out\n                /* \"#utility.yul\":2179:2598   */\n            tag_13:\n                /* \"#utility.yul\":2318:2322   */\n              0x00\n                /* \"#utility.yul\":2356:2358   */\n              0x40\n                /* \"#utility.yul\":2345:2354   */\n              dup3\n                /* \"#utility.yul\":2341:2359   */\n              add\n                /* \"#utility.yul\":2333:2359   */\n              swap1\n              pop\n                /* \"#utility.yul\":2405:2414   */\n              dup2\n                /* \"#utility.yul\":2399:2403   */\n              dup2\n                /* \"#utility.yul\":2395:2415   */\n              sub\n                /* \"#utility.yul\":2391:2392   */\n              0x00\n                /* \"#utility.yul\":2380:2389   */\n              dup4\n                /* \"#utility.yul\":2376:2393   */\n              add\n                /* \"#utility.yul\":2369:2416   */\n              mstore\n                /* \"#utility.yul\":2433:2511   */\n              tag_68\n                /* \"#utility.yul\":2506:2510   */\n              dup2\n                /* \"#utility.yul\":2497:2503   */\n              dup6\n                /* \"#utility.yul\":2433:2511   */\n              tag_36\n              jump\t// in\n            tag_68:\n                /* \"#utility.yul\":2425:2511   */\n              swap1\n              pop\n                /* \"#utility.yul\":2521:2591   */\n              tag_69\n                /* \"#utility.yul\":2587:2589   */\n              0x20\n                /* \"#utility.yul\":2576:2585   */\n              dup4\n                /* \"#utility.yul\":2572:2590   */\n              add\n                /* \"#utility.yul\":2563:2569   */\n              dup5\n                /* \"#utility.yul\":2521:2591   */\n              tag_37\n              jump\t// in\n            tag_69:\n                /* \"#utility.yul\":2179:2598   */\n              swap4\n              swap3\n              pop\n              pop\n              pop\n              jump\t// out\n                /* \"#utility.yul\":2604:2822   */\n            tag_17:\n                /* \"#utility.yul\":2695:2699   */\n              0x00\n                /* \"#utility.yul\":2733:2735   */\n              0x20\n                /* \"#utility.yul\":2722:2731   */\n              dup3\n                /* \"#utility.yul\":2718:2736   */\n              add\n                /* \"#utility.yul\":2710:2736   */\n              swap1\n              pop\n                /* \"#utility.yul\":2746:2815   */\n              tag_71\n                /* \"#utility.yul\":2812:2813   */\n              0x00\n                /* \"#utility.yul\":2801:2810   */\n              dup4\n                /* \"#utility.yul\":2797:2814   */\n              add\n                /* \"#utility.yul\":2788:2794   */\n              dup5\n                /* \"#utility.yul\":2746:2815   */\n              tag_37\n              jump\t// in\n            tag_71:\n                /* \"#utility.yul\":2604:2822   */\n              swap3\n              swap2\n              pop\n              pop\n              jump\t// out\n                /* \"#utility.yul\":2828:3008   */\n            tag_38:\n                /* \"#utility.yul\":2876:2953   */\n              0x4e487b7100000000000000000000000000000000000000000000000000000000\n                /* \"#utility.yul\":2873:2874   */\n              0x00\n                /* \"#utility.yul\":2866:2954   */\n              mstore\n                /* \"#utility.yul\":2973:2977   */\n              0x22\n                /* \"#utility.yul\":2970:2971   */\n              0x04\n                /* \"#utility.yul\":2963:2978   */\n              mstore\n                /* \"#utility.yul\":2997:3001   */\n              0x24\n                /* \"#utility.yul\":2994:2995   */\n              0x00\n                /* \"#utility.yul\":2987:3002   */\n              revert\n                /* \"#utility.yul\":3014:3334   */\n            tag_20:\n                /* \"#utility.yul\":3058:3064   */\n              0x00\n                /* \"#utility.yul\":3095:3096   */\n              0x02\n                /* \"#utility.yul\":3089:3093   */\n              dup3\n                /* \"#utility.yul\":3085:3097   */\n              div\n                /* \"#utility.yul\":3075:3097   */\n              swap1\n              pop\n                /* \"#utility.yul\":3142:3143   */\n              0x01\n                /* \"#utility.yul\":3136:3140   */\n              dup3\n                /* \"#utility.yul\":3132:3144   */\n              and\n                /* \"#utility.yul\":3163:3181   */\n              dup1\n                /* \"#utility.yul\":3153:3234   */\n              tag_74\n              jumpi\n                /* \"#utility.yul\":3219:3223   */\n              0x7f\n                /* \"#utility.yul\":3211:3217   */\n              dup3\n                /* \"#utility.yul\":3207:3224   */\n              and\n                /* \"#utility.yul\":3197:3224   */\n              swap2\n              pop\n                /* \"#utility.yul\":3153:3234   */\n            tag_74:\n                /* \"#utility.yul\":3281:3283   */\n              0x20\n                /* \"#utility.yul\":3273:3279   */\n              dup3\n                /* \"#utility.yul\":3270:3284   */\n              lt\n                /* \"#utility.yul\":3250:3268   */\n              dup2\n                /* \"#utility.yul\":3247:3285   */\n              sub\n                /* \"#utility.yul\":3244:3328   */\n              tag_75\n              jumpi\n                /* \"#utility.yul\":3300:3318   */\n              tag_76\n              tag_38\n              jump\t// in\n            tag_76:\n                /* \"#utility.yul\":3244:3328   */\n            tag_75:\n                /* \"#utility.yul\":3065:3334   */\n              pop\n                /* \"#utility.yul\":3014:3334   */\n              swap2\n              swap1\n              pop\n              jump\t// out\n\n            auxdata: 0xa2646970667358221220e86420bab81d00e1ffad7f2fa1a7566688a40b725cafa381f4203fb724f278ce64736f6c63430008180033\n        }\n    }\n\n    auxdata: 0xa2646970667358221220be01562dd55249e3e54e78db75c6bc62698b731b42007110c9343491bb66324a64736f6c63430008180033\n}\n",
				"bytecode": {
					"linkReferences": {},
					"object": "608060405234801561000f575f80fd5b50610d438061001d5f395ff3fe608060405234801562000010575f80fd5b506004361062000050575f3560e01c806312f794e514620000545780636057361d14620000745780638124bbba14620000aa578063e4c8531a14620000e0575b5f80fd5b6200007260048036038101906200006c9190620003dd565b620000ec565b005b6200009260048036038101906200008c91906200045a565b620001ae565b604051620000a1919062000510565b60405180910390f35b620000c86004803603810190620000c291906200052b565b620001e9565b604051620000d791906200056c565b60405180910390f35b620000ea620002b5565b005b5f80836fffffffffffffffffffffffffffffffff168154811062000115576200011462000587565b5b905f5260205f20015f9054906101000a900473ffffffffffffffffffffffffffffffffffffffff1690508073ffffffffffffffffffffffffffffffffffffffff16633516c85c836040518263ffffffff1660e01b81526004016200017a91906200056c565b5f604051808303815f87803b15801562000192575f80fd5b505af1158015620001a5573d5f803e3d5ffd5b50505050505050565b5f8181548110620001bd575f80fd5b905f5260205f20015f915054906101000a900473ffffffffffffffffffffffffffffffffffffffff1681565b5f805f836fffffffffffffffffffffffffffffffff168154811062000213576200021262000587565b5b905f5260205f20015f9054906101000a900473ffffffffffffffffffffffffffffffffffffffff1690508073ffffffffffffffffffffffffffffffffffffffff1663f2c9ecd86040518163ffffffff1660e01b8152600401602060405180830381865afa15801562000287573d5f803e3d5ffd5b505050506040513d601f19601f82011682018060405250810190620002ad9190620005ca565b915050919050565b5f604051620002c49062000343565b604051809103905ff080158015620002de573d5f803e3d5ffd5b5090505f81908060018154018082558091505060019003905f5260205f20015f9091909190916101000a81548173ffffffffffffffffffffffffffffffffffffffff021916908373ffffffffffffffffffffffffffffffffffffffff16021790555050565b61071380620005fb83390190565b5f80fd5b5f6fffffffffffffffffffffffffffffffff82169050919050565b6200037b8162000355565b811462000386575f80fd5b50565b5f81359050620003998162000370565b92915050565b5f63ffffffff82169050919050565b620003b9816200039f565b8114620003c4575f80fd5b50565b5f81359050620003d781620003ae565b92915050565b5f8060408385031215620003f657620003f562000351565b5b5f620004058582860162000389565b92505060206200041885828601620003c7565b9150509250929050565b5f819050919050565b620004368162000422565b811462000441575f80fd5b50565b5f8135905062000454816200042b565b92915050565b5f6020828403121562000472576200047162000351565b5b5f620004818482850162000444565b91505092915050565b5f73ffffffffffffffffffffffffffffffffffffffff82169050919050565b5f819050919050565b5f620004d2620004cc620004c6846200048a565b620004a9565b6200048a565b9050919050565b5f620004e582620004b2565b9050919050565b5f620004f882620004d9565b9050919050565b6200050a81620004ec565b82525050565b5f602082019050620005255f830184620004ff565b92915050565b5f6020828403121562000543576200054262000351565b5b5f620005528482850162000389565b91505092915050565b62000566816200039f565b82525050565b5f602082019050620005815f8301846200055b565b92915050565b7f4e487b71000000000000000000000000000000000000000000000000000000005f52603260045260245ffd5b5f81519050620005c481620003ae565b92915050565b5f60208284031215620005e257620005e162000351565b5b5f620005f184828501620005b4565b9150509291505056fe608060405260405180604001604052806040518060400160405280600681526020017f64616e69656c000000000000000000000000000000000000000000000000000081525081526020015f63ffffffff168152505f80820151815f01908161006891906102dc565b506020820151816001015f6101000a81548163ffffffff021916908363ffffffff160217905550505034801561009c575f80fd5b506103ab565b5f81519050919050565b7f4e487b71000000000000000000000000000000000000000000000000000000005f52604160045260245ffd5b7f4e487b71000000000000000000000000000000000000000000000000000000005f52602260045260245ffd5b5f600282049050600182168061011d57607f821691505b6020821081036101305761012f6100d9565b5b50919050565b5f819050815f5260205f209050919050565b5f6020601f8301049050919050565b5f82821b905092915050565b5f600883026101927fffffffffffffffffffffffffffffffffffffffffffffffffffffffffffffffff82610157565b61019c8683610157565b95508019841693508086168417925050509392505050565b5f819050919050565b5f819050919050565b5f6101e06101db6101d6846101b4565b6101bd565b6101b4565b9050919050565b5f819050919050565b6101f9836101c6565b61020d610205826101e7565b848454610163565b825550505050565b5f90565b610221610215565b61022c8184846101f0565b505050565b5b8181101561024f576102445f82610219565b600181019050610232565b5050565b601f8211156102945761026581610136565b61026e84610148565b8101602085101561027d578190505b61029161028985610148565b830182610231565b50505b505050565b5f82821c905092915050565b5f6102b45f1984600802610299565b1980831691505092915050565b5f6102cc83836102a5565b9150826002028217905092915050565b6102e5826100a2565b67ffffffffffffffff8111156102fe576102fd6100ac565b5b6103088254610106565b610313828285610253565b5f60209050601f831160018114610344575f8415610332578287015190505b61033c85826102c1565b8655506103a3565b601f19841661035286610136565b5f5b8281101561037957848901518255600182019150602085019450602081019050610354565b868310156103965784890151610392601f8916826102a5565b8355505b6001600288020188555050505b505050505050565b61035b806103b85f395ff3fe608060405234801561000f575f80fd5b506004361061003f575f3560e01c80633516c85c1461004357806377ec2b551461005f578063f2c9ecd81461007e575b5f80fd5b61005d600480360381019061005891906101bd565b61009c565b005b6100676100c1565b604051610075929190610281565b60405180910390f35b610086610166565b60405161009391906102af565b60405180910390f35b805f6001015f6101000a81548163ffffffff021916908363ffffffff16021790555050565b5f805f0180546100d0906102f5565b80601f01602080910402602001604051908101604052809291908181526020018280546100fc906102f5565b80156101475780601f1061011e57610100808354040283529160200191610147565b820191905f5260205f20905b81548152906001019060200180831161012a57829003601f168201915b505050505090806001015f9054906101000a900463ffffffff16905082565b5f806001015f9054906101000a900463ffffffff16905090565b5f80fd5b5f63ffffffff82169050919050565b61019c81610184565b81146101a6575f80fd5b50565b5f813590506101b781610193565b92915050565b5f602082840312156101d2576101d1610180565b5b5f6101df848285016101a9565b91505092915050565b5f81519050919050565b5f82825260208201905092915050565b5f5b8381101561021f578082015181840152602081019050610204565b5f8484015250505050565b5f601f19601f8301169050919050565b5f610244826101e8565b61024e81856101f2565b935061025e818560208601610202565b6102678161022a565b840191505092915050565b61027b81610184565b82525050565b5f6040820190508181035f830152610299818561023a565b90506102a86020830184610272565b9392505050565b5f6020820190506102c25f830184610272565b92915050565b7f4e487b71000000000000000000000000000000000000000000000000000000005f52602260045260245ffd5b5f600282049050600182168061030c57607f821691505b60208210810361031f5761031e6102c8565b5b5091905056fea2646970667358221220e86420bab81d00e1ffad7f2fa1a7566688a40b725cafa381f4203fb724f278ce64736f6c63430008180033a2646970667358221220be01562dd55249e3e54e78db75c6bc62698b731b42007110c9343491bb66324a64736f6c63430008180033",
					"opcodes": "PUSH1 0x80 PUSH1 0x40 MSTORE CALLVALUE DUP1 ISZERO PUSH2 0xF JUMPI PUSH0 DUP1 REVERT JUMPDEST POP PUSH2 0xD43 DUP1 PUSH2 0x1D PUSH0 CODECOPY PUSH0 RETURN INVALID PUSH1 0x80 PUSH1 0x40 MSTORE CALLVALUE DUP1 ISZERO PUSH3 0x10 JUMPI PUSH0 DUP1 REVERT JUMPDEST POP PUSH1 0x4 CALLDATASIZE LT PUSH3 0x50 JUMPI PUSH0 CALLDATALOAD PUSH1 0xE0 SHR DUP1 PUSH4 0x12F794E5 EQ PUSH3 0x54 JUMPI DUP1 PUSH4 0x6057361D EQ PUSH3 0x74 JUMPI DUP1 PUSH4 0x8124BBBA EQ PUSH3 0xAA JUMPI DUP1 PUSH4 0xE4C8531A EQ PUSH3 0xE0 JUMPI JUMPDEST PUSH0 DUP1 REVERT JUMPDEST PUSH3 0x72 PUSH1 0x4 DUP1 CALLDATASIZE SUB DUP2 ADD SWAP1 PUSH3 0x6C SWAP2 SWAP1 PUSH3 0x3DD JUMP JUMPDEST PUSH3 0xEC JUMP JUMPDEST STOP JUMPDEST PUSH3 0x92 PUSH1 0x4 DUP1 CALLDATASIZE SUB DUP2 ADD SWAP1 PUSH3 0x8C SWAP2 SWAP1 PUSH3 0x45A JUMP JUMPDEST PUSH3 0x1AE JUMP JUMPDEST PUSH1 0x40 MLOAD PUSH3 0xA1 SWAP2 SWAP1 PUSH3 0x510 JUMP JUMPDEST PUSH1 0x40 MLOAD DUP1 SWAP2 SUB SWAP1 RETURN JUMPDEST PUSH3 0xC8 PUSH1 0x4 DUP1 CALLDATASIZE SUB DUP2 ADD SWAP1 PUSH3 0xC2 SWAP2 SWAP1 PUSH3 0x52B JUMP JUMPDEST PUSH3 0x1E9 JUMP JUMPDEST PUSH1 0x40 MLOAD PUSH3 0xD7 SWAP2 SWAP1 PUSH3 0x56C JUMP JUMPDEST PUSH1 0x40 MLOAD DUP1 SWAP2 SUB SWAP1 RETURN JUMPDEST PUSH3 0xEA PUSH3 0x2B5 JUMP JUMPDEST STOP JUMPDEST PUSH0 DUP1 DUP4 PUSH16 0xFFFFFFFFFFFFFFFFFFFFFFFFFFFFFFFF AND DUP2 SLOAD DUP2 LT PUSH3 0x115 JUMPI PUSH3 0x114 PUSH3 0x587 JUMP JUMPDEST JUMPDEST SWAP1 PUSH0 MSTORE PUSH1 0x20 PUSH0 KECCAK256 ADD PUSH0 SWAP1 SLOAD SWAP1 PUSH2 0x100 EXP SWAP1 DIV PUSH20 0xFFFFFFFFFFFFFFFFFFFFFFFFFFFFFFFFFFFFFFFF AND SWAP1 POP DUP1 PUSH20 0xFFFFFFFFFFFFFFFFFFFFFFFFFFFFFFFFFFFFFFFF AND PUSH4 0x3516C85C DUP4 PUSH1 0x40 MLOAD DUP3 PUSH4 0xFFFFFFFF AND PUSH1 0xE0 SHL DUP2 MSTORE PUSH1 0x4 ADD PUSH3 0x17A SWAP2 SWAP1 PUSH3 0x56C JUMP JUMPDEST PUSH0 PUSH1 0x40 MLOAD DUP1 DUP4 SUB DUP2 PUSH0 DUP8 DUP1 EXTCODESIZE ISZERO DUP1 ISZERO PUSH3 0x192 JUMPI PUSH0 DUP1 REVERT JUMPDEST POP GAS CALL ISZERO DUP1 ISZERO PUSH3 0x1A5 JUMPI RETURNDATASIZE PUSH0 DUP1 RETURNDATACOPY RETURNDATASIZE PUSH0 REVERT JUMPDEST POP POP POP POP POP POP POP JUMP JUMPDEST PUSH0 DUP2 DUP2 SLOAD DUP2 LT PUSH3 0x1BD JUMPI PUSH0 DUP1 REVERT JUMPDEST SWAP1 PUSH0 MSTORE PUSH1 0x20 PUSH0 KECCAK256 ADD PUSH0 SWAP2 POP SLOAD SWAP1 PUSH2 0x100 EXP SWAP1 DIV PUSH20 0xFFFFFFFFFFFFFFFFFFFFFFFFFFFFFFFFFFFFFFFF AND DUP2 JUMP JUMPDEST PUSH0 DUP1 PUSH0 DUP4 PUSH16 0xFFFFFFFFFFFFFFFFFFFFFFFFFFFFFFFF AND DUP2 SLOAD DUP2 LT PUSH3 0x213 JUMPI PUSH3 0x212 PUSH3 0x587 JUMP JUMPDEST JUMPDEST SWAP1 PUSH0 MSTORE PUSH1 0x20 PUSH0 KECCAK256 ADD PUSH0 SWAP1 SLOAD SWAP1 PUSH2 0x100 EXP SWAP1 DIV PUSH20 0xFFFFFFFFFFFFFFFFFFFFFFFFFFFFFFFFFFFFFFFF AND SWAP1 POP DUP1 PUSH20 0xFFFFFFFFFFFFFFFFFFFFFFFFFFFFFFFFFFFFFFFF AND PUSH4 0xF2C9ECD8 PUSH1 0x40 MLOAD DUP2 PUSH4 0xFFFFFFFF AND PUSH1 0xE0 SHL DUP2 MSTORE PUSH1 0x4 ADD PUSH1 0x20 PUSH1 0x40 MLOAD DUP1 DUP4 SUB DUP2 DUP7 GAS STATICCALL ISZERO DUP1 ISZERO PUSH3 0x287 JUMPI RETURNDATASIZE PUSH0 DUP1 RETURNDATACOPY RETURNDATASIZE PUSH0 REVERT JUMPDEST POP POP POP POP PUSH1 0x40 MLOAD RETURNDATASIZE PUSH1 0x1F NOT PUSH1 0x1F DUP3 ADD AND DUP3 ADD DUP1 PUSH1 0x40 MSTORE POP DUP2 ADD SWAP1 PUSH3 0x2AD SWAP2 SWAP1 PUSH3 0x5CA JUMP JUMPDEST SWAP2 POP POP SWAP2 SWAP1 POP JUMP JUMPDEST PUSH0 PUSH1 0x40 MLOAD PUSH3 0x2C4 SWAP1 PUSH3 0x343 JUMP JUMPDEST PUSH1 0x40 MLOAD DUP1 SWAP2 SUB SWAP1 PUSH0 CREATE DUP1 ISZERO DUP1 ISZERO PUSH3 0x2DE JUMPI RETURNDATASIZE PUSH0 DUP1 RETURNDATACOPY RETURNDATASIZE PUSH0 REVERT JUMPDEST POP SWAP1 POP PUSH0 DUP2 SWAP1 DUP1 PUSH1 0x1 DUP2 SLOAD ADD DUP1 DUP3 SSTORE DUP1 SWAP2 POP POP PUSH1 0x1 SWAP1 SUB SWAP1 PUSH0 MSTORE PUSH1 0x20 PUSH0 KECCAK256 ADD PUSH0 SWAP1 SWAP2 SWAP1 SWAP2 SWAP1 SWAP2 PUSH2 0x100 EXP DUP2 SLOAD DUP2 PUSH20 0xFFFFFFFFFFFFFFFFFFFFFFFFFFFFFFFFFFFFFFFF MUL NOT AND SWAP1 DUP4 PUSH20 0xFFFFFFFFFFFFFFFFFFFFFFFFFFFFFFFFFFFFFFFF AND MUL OR SWAP1 SSTORE POP POP JUMP JUMPDEST PUSH2 0x713 DUP1 PUSH3 0x5FB DUP4 CODECOPY ADD SWAP1 JUMP JUMPDEST PUSH0 DUP1 REVERT JUMPDEST PUSH0 PUSH16 0xFFFFFFFFFFFFFFFFFFFFFFFFFFFFFFFF DUP3 AND SWAP1 POP SWAP2 SWAP1 POP JUMP JUMPDEST PUSH3 0x37B DUP2 PUSH3 0x355 JUMP JUMPDEST DUP2 EQ PUSH3 0x386 JUMPI PUSH0 DUP1 REVERT JUMPDEST POP JUMP JUMPDEST PUSH0 DUP2 CALLDATALOAD SWAP1 POP PUSH3 0x399 DUP2 PUSH3 0x370 JUMP JUMPDEST SWAP3 SWAP2 POP POP JUMP JUMPDEST PUSH0 PUSH4 0xFFFFFFFF DUP3 AND SWAP1 POP SWAP2 SWAP1 POP JUMP JUMPDEST PUSH3 0x3B9 DUP2 PUSH3 0x39F JUMP JUMPDEST DUP2 EQ PUSH3 0x3C4 JUMPI PUSH0 DUP1 REVERT JUMPDEST POP JUMP JUMPDEST PUSH0 DUP2 CALLDATALOAD SWAP1 POP PUSH3 0x3D7 DUP2 PUSH3 0x3AE JUMP JUMPDEST SWAP3 SWAP2 POP POP JUMP JUMPDEST PUSH0 DUP1 PUSH1 0x40 DUP4 DUP6 SUB SLT ISZERO PUSH3 0x3F6 JUMPI PUSH3 0x3F5 PUSH3 0x351 JUMP JUMPDEST JUMPDEST PUSH0 PUSH3 0x405 DUP6 DUP3 DUP7 ADD PUSH3 0x389 JUMP JUMPDEST SWAP3 POP POP PUSH1 0x20 PUSH3 0x418 DUP6 DUP3 DUP7 ADD PUSH3 0x3C7 JUMP JUMPDEST SWAP2 POP POP SWAP3 POP SWAP3 SWAP1 POP JUMP JUMPDEST PUSH0 DUP2 SWAP1 POP SWAP2 SWAP1 POP JUMP JUMPDEST PUSH3 0x436 DUP2 PUSH3 0x422 JUMP JUMPDEST DUP2 EQ PUSH3 0x441 JUMPI PUSH0 DUP1 REVERT JUMPDEST POP JUMP JUMPDEST PUSH0 DUP2 CALLDATALOAD SWAP1 POP PUSH3 0x454 DUP2 PUSH3 0x42B JUMP JUMPDEST SWAP3 SWAP2 POP POP JUMP JUMPDEST PUSH0 PUSH1 0x20 DUP3 DUP5 SUB SLT ISZERO PUSH3 0x472 JUMPI PUSH3 0x471 PUSH3 0x351 JUMP JUMPDEST JUMPDEST PUSH0 PUSH3 0x481 DUP5 DUP3 DUP6 ADD PUSH3 0x444 JUMP JUMPDEST SWAP2 POP POP SWAP3 SWAP2 POP POP JUMP JUMPDEST PUSH0 PUSH20 0xFFFFFFFFFFFFFFFFFFFFFFFFFFFFFFFFFFFFFFFF DUP3 AND SWAP1 POP SWAP2 SWAP1 POP JUMP JUMPDEST PUSH0 DUP2 SWAP1 POP SWAP2 SWAP1 POP JUMP JUMPDEST PUSH0 PUSH3 0x4D2 PUSH3 0x4CC PUSH3 0x4C6 DUP5 PUSH3 0x48A JUMP JUMPDEST PUSH3 0x4A9 JUMP JUMPDEST PUSH3 0x48A JUMP JUMPDEST SWAP1 POP SWAP2 SWAP1 POP JUMP JUMPDEST PUSH0 PUSH3 0x4E5 DUP3 PUSH3 0x4B2 JUMP JUMPDEST SWAP1 POP SWAP2 SWAP1 POP JUMP JUMPDEST PUSH0 PUSH3 0x4F8 DUP3 PUSH3 0x4D9 JUMP JUMPDEST SWAP1 POP SWAP2 SWAP1 POP JUMP JUMPDEST PUSH3 0x50A DUP2 PUSH3 0x4EC JUMP JUMPDEST DUP3 MSTORE POP POP JUMP JUMPDEST PUSH0 PUSH1 0x20 DUP3 ADD SWAP1 POP PUSH3 0x525 PUSH0 DUP4 ADD DUP5 PUSH3 0x4FF JUMP JUMPDEST SWAP3 SWAP2 POP POP JUMP JUMPDEST PUSH0 PUSH1 0x20 DUP3 DUP5 SUB SLT ISZERO PUSH3 0x543 JUMPI PUSH3 0x542 PUSH3 0x351 JUMP JUMPDEST JUMPDEST PUSH0 PUSH3 0x552 DUP5 DUP3 DUP6 ADD PUSH3 0x389 JUMP JUMPDEST SWAP2 POP POP SWAP3 SWAP2 POP POP JUMP JUMPDEST PUSH3 0x566 DUP2 PUSH3 0x39F JUMP JUMPDEST DUP3 MSTORE POP POP JUMP JUMPDEST PUSH0 PUSH1 0x20 DUP3 ADD SWAP1 POP PUSH3 0x581 PUSH0 DUP4 ADD DUP5 PUSH3 0x55B JUMP JUMPDEST SWAP3 SWAP2 POP POP JUMP JUMPDEST PUSH32 0x4E487B7100000000000000000000000000000000000000000000000000000000 PUSH0 MSTORE PUSH1 0x32 PUSH1 0x4 MSTORE PUSH1 0x24 PUSH0 REVERT JUMPDEST PUSH0 DUP2 MLOAD SWAP1 POP PUSH3 0x5C4 DUP2 PUSH3 0x3AE JUMP JUMPDEST SWAP3 SWAP2 POP POP JUMP JUMPDEST PUSH0 PUSH1 0x20 DUP3 DUP5 SUB SLT ISZERO PUSH3 0x5E2 JUMPI PUSH3 0x5E1 PUSH3 0x351 JUMP JUMPDEST JUMPDEST PUSH0 PUSH3 0x5F1 DUP5 DUP3 DUP6 ADD PUSH3 0x5B4 JUMP JUMPDEST SWAP2 POP POP SWAP3 SWAP2 POP POP JUMP INVALID PUSH1 0x80 PUSH1 0x40 MSTORE PUSH1 0x40 MLOAD DUP1 PUSH1 0x40 ADD PUSH1 0x40 MSTORE DUP1 PUSH1 0x40 MLOAD DUP1 PUSH1 0x40 ADD PUSH1 0x40 MSTORE DUP1 PUSH1 0x6 DUP2 MSTORE PUSH1 0x20 ADD PUSH32 0x64616E69656C0000000000000000000000000000000000000000000000000000 DUP2 MSTORE POP DUP2 MSTORE PUSH1 0x20 ADD PUSH0 PUSH4 0xFFFFFFFF AND DUP2 MSTORE POP PUSH0 DUP1 DUP3 ADD MLOAD DUP2 PUSH0 ADD SWAP1 DUP2 PUSH2 0x68 SWAP2 SWAP1 PUSH2 0x2DC JUMP JUMPDEST POP PUSH1 0x20 DUP3 ADD MLOAD DUP2 PUSH1 0x1 ADD PUSH0 PUSH2 0x100 EXP DUP2 SLOAD DUP2 PUSH4 0xFFFFFFFF MUL NOT AND SWAP1 DUP4 PUSH4 0xFFFFFFFF AND MUL OR SWAP1 SSTORE POP POP POP CALLVALUE DUP1 ISZERO PUSH2 0x9C JUMPI PUSH0 DUP1 REVERT JUMPDEST POP PUSH2 0x3AB JUMP JUMPDEST PUSH0 DUP2 MLOAD SWAP1 POP SWAP2 SWAP1 POP JUMP JUMPDEST PUSH32 0x4E487B7100000000000000000000000000000000000000000000000000000000 PUSH0 MSTORE PUSH1 0x41 PUSH1 0x4 MSTORE PUSH1 0x24 PUSH0 REVERT JUMPDEST PUSH32 0x4E487B7100000000000000000000000000000000000000000000000000000000 PUSH0 MSTORE PUSH1 0x22 PUSH1 0x4 MSTORE PUSH1 0x24 PUSH0 REVERT JUMPDEST PUSH0 PUSH1 0x2 DUP3 DIV SWAP1 POP PUSH1 0x1 DUP3 AND DUP1 PUSH2 0x11D JUMPI PUSH1 0x7F DUP3 AND SWAP2 POP JUMPDEST PUSH1 0x20 DUP3 LT DUP2 SUB PUSH2 0x130 JUMPI PUSH2 0x12F PUSH2 0xD9 JUMP JUMPDEST JUMPDEST POP SWAP2 SWAP1 POP JUMP JUMPDEST PUSH0 DUP2 SWAP1 POP DUP2 PUSH0 MSTORE PUSH1 0x20 PUSH0 KECCAK256 SWAP1 POP SWAP2 SWAP1 POP JUMP JUMPDEST PUSH0 PUSH1 0x20 PUSH1 0x1F DUP4 ADD DIV SWAP1 POP SWAP2 SWAP1 POP JUMP JUMPDEST PUSH0 DUP3 DUP3 SHL SWAP1 POP SWAP3 SWAP2 POP POP JUMP JUMPDEST PUSH0 PUSH1 0x8 DUP4 MUL PUSH2 0x192 PUSH32 0xFFFFFFFFFFFFFFFFFFFFFFFFFFFFFFFFFFFFFFFFFFFFFFFFFFFFFFFFFFFFFFFF DUP3 PUSH2 0x157 JUMP JUMPDEST PUSH2 0x19C DUP7 DUP4 PUSH2 0x157 JUMP JUMPDEST SWAP6 POP DUP1 NOT DUP5 AND SWAP4 POP DUP1 DUP7 AND DUP5 OR SWAP3 POP POP POP SWAP4 SWAP3 POP POP POP JUMP JUMPDEST PUSH0 DUP2 SWAP1 POP SWAP2 SWAP1 POP JUMP JUMPDEST PUSH0 DUP2 SWAP1 POP SWAP2 SWAP1 POP JUMP JUMPDEST PUSH0 PUSH2 0x1E0 PUSH2 0x1DB PUSH2 0x1D6 DUP5 PUSH2 0x1B4 JUMP JUMPDEST PUSH2 0x1BD JUMP JUMPDEST PUSH2 0x1B4 JUMP JUMPDEST SWAP1 POP SWAP2 SWAP1 POP JUMP JUMPDEST PUSH0 DUP2 SWAP1 POP SWAP2 SWAP1 POP JUMP JUMPDEST PUSH2 0x1F9 DUP4 PUSH2 0x1C6 JUMP JUMPDEST PUSH2 0x20D PUSH2 0x205 DUP3 PUSH2 0x1E7 JUMP JUMPDEST DUP5 DUP5 SLOAD PUSH2 0x163 JUMP JUMPDEST DUP3 SSTORE POP POP POP POP JUMP JUMPDEST PUSH0 SWAP1 JUMP JUMPDEST PUSH2 0x221 PUSH2 0x215 JUMP JUMPDEST PUSH2 0x22C DUP2 DUP5 DUP5 PUSH2 0x1F0 JUMP JUMPDEST POP POP POP JUMP JUMPDEST JUMPDEST DUP2 DUP2 LT ISZERO PUSH2 0x24F JUMPI PUSH2 0x244 PUSH0 DUP3 PUSH2 0x219 JUMP JUMPDEST PUSH1 0x1 DUP2 ADD SWAP1 POP PUSH2 0x232 JUMP JUMPDEST POP POP JUMP JUMPDEST PUSH1 0x1F DUP3 GT ISZERO PUSH2 0x294 JUMPI PUSH2 0x265 DUP2 PUSH2 0x136 JUMP JUMPDEST PUSH2 0x26E DUP5 PUSH2 0x148 JUMP JUMPDEST DUP2 ADD PUSH1 0x20 DUP6 LT ISZERO PUSH2 0x27D JUMPI DUP2 SWAP1 POP JUMPDEST PUSH2 0x291 PUSH2 0x289 DUP6 PUSH2 0x148 JUMP JUMPDEST DUP4 ADD DUP3 PUSH2 0x231 JUMP JUMPDEST POP POP JUMPDEST POP POP POP JUMP JUMPDEST PUSH0 DUP3 DUP3 SHR SWAP1 POP SWAP3 SWAP2 POP POP JUMP JUMPDEST PUSH0 PUSH2 0x2B4 PUSH0 NOT DUP5 PUSH1 0x8 MUL PUSH2 0x299 JUMP JUMPDEST NOT DUP1 DUP4 AND SWAP2 POP POP SWAP3 SWAP2 POP POP JUMP JUMPDEST PUSH0 PUSH2 0x2CC DUP4 DUP4 PUSH2 0x2A5 JUMP JUMPDEST SWAP2 POP DUP3 PUSH1 0x2 MUL DUP3 OR SWAP1 POP SWAP3 SWAP2 POP POP JUMP JUMPDEST PUSH2 0x2E5 DUP3 PUSH2 0xA2 JUMP JUMPDEST PUSH8 0xFFFFFFFFFFFFFFFF DUP2 GT ISZERO PUSH2 0x2FE JUMPI PUSH2 0x2FD PUSH2 0xAC JUMP JUMPDEST JUMPDEST PUSH2 0x308 DUP3 SLOAD PUSH2 0x106 JUMP JUMPDEST PUSH2 0x313 DUP3 DUP3 DUP6 PUSH2 0x253 JUMP JUMPDEST PUSH0 PUSH1 0x20 SWAP1 POP PUSH1 0x1F DUP4 GT PUSH1 0x1 DUP2 EQ PUSH2 0x344 JUMPI PUSH0 DUP5 ISZERO PUSH2 0x332 JUMPI DUP3 DUP8 ADD MLOAD SWAP1 POP JUMPDEST PUSH2 0x33C DUP6 DUP3 PUSH2 0x2C1 JUMP JUMPDEST DUP7 SSTORE POP PUSH2 0x3A3 JUMP JUMPDEST PUSH1 0x1F NOT DUP5 AND PUSH2 0x352 DUP7 PUSH2 0x136 JUMP JUMPDEST PUSH0 JUMPDEST DUP3 DUP2 LT ISZERO PUSH2 0x379 JUMPI DUP5 DUP10 ADD MLOAD DUP3 SSTORE PUSH1 0x1 DUP3 ADD SWAP2 POP PUSH1 0x20 DUP6 ADD SWAP5 POP PUSH1 0x20 DUP2 ADD SWAP1 POP PUSH2 0x354 JUMP JUMPDEST DUP7 DUP4 LT ISZERO PUSH2 0x396 JUMPI DUP5 DUP10 ADD MLOAD PUSH2 0x392 PUSH1 0x1F DUP10 AND DUP3 PUSH2 0x2A5 JUMP JUMPDEST DUP4 SSTORE POP JUMPDEST PUSH1 0x1 PUSH1 0x2 DUP9 MUL ADD DUP9 SSTORE POP POP POP JUMPDEST POP POP POP POP POP POP JUMP JUMPDEST PUSH2 0x35B DUP1 PUSH2 0x3B8 PUSH0 CODECOPY PUSH0 RETURN INVALID PUSH1 0x80 PUSH1 0x40 MSTORE CALLVALUE DUP1 ISZERO PUSH2 0xF JUMPI PUSH0 DUP1 REVERT JUMPDEST POP PUSH1 0x4 CALLDATASIZE LT PUSH2 0x3F JUMPI PUSH0 CALLDATALOAD PUSH1 0xE0 SHR DUP1 PUSH4 0x3516C85C EQ PUSH2 0x43 JUMPI DUP1 PUSH4 0x77EC2B55 EQ PUSH2 0x5F JUMPI DUP1 PUSH4 0xF2C9ECD8 EQ PUSH2 0x7E JUMPI JUMPDEST PUSH0 DUP1 REVERT JUMPDEST PUSH2 0x5D PUSH1 0x4 DUP1 CALLDATASIZE SUB DUP2 ADD SWAP1 PUSH2 0x58 SWAP2 SWAP1 PUSH2 0x1BD JUMP JUMPDEST PUSH2 0x9C JUMP JUMPDEST STOP JUMPDEST PUSH2 0x67 PUSH2 0xC1 JUMP JUMPDEST PUSH1 0x40 MLOAD PUSH2 0x75 SWAP3 SWAP2 SWAP1 PUSH2 0x281 JUMP JUMPDEST PUSH1 0x40 MLOAD DUP1 SWAP2 SUB SWAP1 RETURN JUMPDEST PUSH2 0x86 PUSH2 0x166 JUMP JUMPDEST PUSH1 0x40 MLOAD PUSH2 0x93 SWAP2 SWAP1 PUSH2 0x2AF JUMP JUMPDEST PUSH1 0x40 MLOAD DUP1 SWAP2 SUB SWAP1 RETURN JUMPDEST DUP1 PUSH0 PUSH1 0x1 ADD PUSH0 PUSH2 0x100 EXP DUP2 SLOAD DUP2 PUSH4 0xFFFFFFFF MUL NOT AND SWAP1 DUP4 PUSH4 0xFFFFFFFF AND MUL OR SWAP1 SSTORE POP POP JUMP JUMPDEST PUSH0 DUP1 PUSH0 ADD DUP1 SLOAD PUSH2 0xD0 SWAP1 PUSH2 0x2F5 JUMP JUMPDEST DUP1 PUSH1 0x1F ADD PUSH1 0x20 DUP1 SWAP2 DIV MUL PUSH1 0x20 ADD PUSH1 0x40 MLOAD SWAP1 DUP2 ADD PUSH1 0x40 MSTORE DUP1 SWAP3 SWAP2 SWAP1 DUP2 DUP2 MSTORE PUSH1 0x20 ADD DUP3 DUP1 SLOAD PUSH2 0xFC SWAP1 PUSH2 0x2F5 JUMP JUMPDEST DUP1 ISZERO PUSH2 0x147 JUMPI DUP1 PUSH1 0x1F LT PUSH2 0x11E JUMPI PUSH2 0x100 DUP1 DUP4 SLOAD DIV MUL DUP4 MSTORE SWAP2 PUSH1 0x20 ADD SWAP2 PUSH2 0x147 JUMP JUMPDEST DUP3 ADD SWAP2 SWAP1 PUSH0 MSTORE PUSH1 0x20 PUSH0 KECCAK256 SWAP1 JUMPDEST DUP2 SLOAD DUP2 MSTORE SWAP1 PUSH1 0x1 ADD SWAP1 PUSH1 0x20 ADD DUP1 DUP4 GT PUSH2 0x12A JUMPI DUP3 SWAP1 SUB PUSH1 0x1F AND DUP3 ADD SWAP2 JUMPDEST POP POP POP POP POP SWAP1 DUP1 PUSH1 0x1 ADD PUSH0 SWAP1 SLOAD SWAP1 PUSH2 0x100 EXP SWAP1 DIV PUSH4 0xFFFFFFFF AND SWAP1 POP DUP3 JUMP JUMPDEST PUSH0 DUP1 PUSH1 0x1 ADD PUSH0 SWAP1 SLOAD SWAP1 PUSH2 0x100 EXP SWAP1 DIV PUSH4 0xFFFFFFFF AND SWAP1 POP SWAP1 JUMP JUMPDEST PUSH0 DUP1 REVERT JUMPDEST PUSH0 PUSH4 0xFFFFFFFF DUP3 AND SWAP1 POP SWAP2 SWAP1 POP JUMP JUMPDEST PUSH2 0x19C DUP2 PUSH2 0x184 JUMP JUMPDEST DUP2 EQ PUSH2 0x1A6 JUMPI PUSH0 DUP1 REVERT JUMPDEST POP JUMP JUMPDEST PUSH0 DUP2 CALLDATALOAD SWAP1 POP PUSH2 0x1B7 DUP2 PUSH2 0x193 JUMP JUMPDEST SWAP3 SWAP2 POP POP JUMP JUMPDEST PUSH0 PUSH1 0x20 DUP3 DUP5 SUB SLT ISZERO PUSH2 0x1D2 JUMPI PUSH2 0x1D1 PUSH2 0x180 JUMP JUMPDEST JUMPDEST PUSH0 PUSH2 0x1DF DUP5 DUP3 DUP6 ADD PUSH2 0x1A9 JUMP JUMPDEST SWAP2 POP POP SWAP3 SWAP2 POP POP JUMP JUMPDEST PUSH0 DUP2 MLOAD SWAP1 POP SWAP2 SWAP1 POP JUMP JUMPDEST PUSH0 DUP3 DUP3 MSTORE PUSH1 0x20 DUP3 ADD SWAP1 POP SWAP3 SWAP2 POP POP JUMP JUMPDEST PUSH0 JUMPDEST DUP4 DUP2 LT ISZERO PUSH2 0x21F JUMPI DUP1 DUP3 ADD MLOAD DUP2 DUP5 ADD MSTORE PUSH1 0x20 DUP2 ADD SWAP1 POP PUSH2 0x204 JUMP JUMPDEST PUSH0 DUP5 DUP5 ADD MSTORE POP POP POP POP JUMP JUMPDEST PUSH0 PUSH1 0x1F NOT PUSH1 0x1F DUP4 ADD AND SWAP1 POP SWAP2 SWAP1 POP JUMP JUMPDEST PUSH0 PUSH2 0x244 DUP3 PUSH2 0x1E8 JUMP JUMPDEST PUSH2 0x24E DUP2 DUP6 PUSH2 0x1F2 JUMP JUMPDEST SWAP4 POP PUSH2 0x25E DUP2 DUP6 PUSH1 0x20 DUP7 ADD PUSH2 0x202 JUMP JUMPDEST PUSH2 0x267 DUP2 PUSH2 0x22A JUMP JUMPDEST DUP5 ADD SWAP2 POP POP SWAP3 SWAP2 POP POP JUMP JUMPDEST PUSH2 0x27B DUP2 PUSH2 0x184 JUMP JUMPDEST DUP3 MSTORE POP POP JUMP JUMPDEST PUSH0 PUSH1 0x40 DUP3 ADD SWAP1 POP DUP2 DUP2 SUB PUSH0 DUP4 ADD MSTORE PUSH2 0x299 DUP2 DUP6 PUSH2 0x23A JUMP JUMPDEST SWAP1 POP PUSH2 0x2A8 PUSH1 0x20 DUP4 ADD DUP5 PUSH2 0x272 JUMP JUMPDEST SWAP4 SWAP3 POP POP POP JUMP JUMPDEST PUSH0 PUSH1 0x20 DUP3 ADD SWAP1 POP PUSH2 0x2C2 PUSH0 DUP4 ADD DUP5 PUSH2 0x272 JUMP JUMPDEST SWAP3 SWAP2 POP POP JUMP JUMPDEST PUSH32 0x4E487B7100000000000000000000000000000000000000000000000000000000 PUSH0 MSTORE PUSH1 0x22 PUSH1 0x4 MSTORE PUSH1 0x24 PUSH0 REVERT JUMPDEST PUSH0 PUSH1 0x2 DUP3 DIV SWAP1 POP PUSH1 0x1 DUP3 AND DUP1 PUSH2 0x30C JUMPI PUSH1 0x7F DUP3 AND SWAP2 POP JUMPDEST PUSH1 0x20 DUP3 LT DUP2 SUB PUSH2 0x31F JUMPI PUSH2 0x31E PUSH2 0x2C8 JUMP JUMPDEST JUMPDEST POP SWAP2 SWAP1 POP JUMP INVALID LOG2 PUSH5 0x6970667358 0x22 SLT KECCAK256 0xE8 PUSH5 0x20BAB81D00 0xE1 SELFDESTRUCT 0xAD PUSH32 0x2FA1A7566688A40B725CAFA381F4203FB724F278CE64736F6C63430008180033 LOG2 PUSH5 0x6970667358 0x22 SLT KECCAK256 0xBE ADD JUMP 0x2D 0xD5 MSTORE BLOBHASH 0xE3 0xE5 0x4E PUSH25 0xDB75C6BC62698B731B42007110C9343491BB66324A64736F6C PUSH4 0x43000818 STOP CALLER "
				},
				"gasEstimates": {
					"creation": {
						"codeDepositCost": "679000",
						"executionCost": "713",
						"totalCost": "679713"
					},
					"external": {
						"addStorage()": "infinite",
						"getStorage(uint128)": "infinite",
						"store(uint256)": "infinite",
						"updateNumber(uint128,uint32)": "infinite"
					}
				},
				"methodIdentifiers": {
					"addStorage()": "e4c8531a",
					"getStorage(uint128)": "8124bbba",
					"store(uint256)": "6057361d",
					"updateNumber(uint128,uint32)": "12f794e5"
				}
			},
			"storageLayout": {
				"storage": [
					{
						"astId": 43,
						"contract": "contracts/MyStorageFactory.sol:MyStorageFactory",
						"label": "store",
						"offset": 0,
						"slot": "0",
						"type": "t_array(t_contract(MyStorage)35)dyn_storage"
					}
				],
				"types": {
					"t_array(t_contract(MyStorage)35)dyn_storage": {
						"base": "t_contract(MyStorage)35",
						"encoding": "dynamic_array",
						"label": "contract MyStorage[]",
						"numberOfBytes": "32"
					},
					"t_contract(MyStorage)35": {
						"encoding": "inplace",
						"label": "contract MyStorage",
						"numberOfBytes": "20"
					}
				}
			},
			"userdoc": {
				"kind": "user",
				"methods": {},
				"version": 1
			}
		}
	}
}