{
	"data": {
		"bytecode": {
			"linkReferences": {},
			"object": "608060405260405180604001604052806040518060400160405280600681526020017f64616e69656c00000000000000000000000000000000000000000000000000008152508152602001600a81525060015f820151815f01908162000066919062000359565b5060208201518160010155505060405180604001604052806040518060400160405280600581526020017f6572617a6f0000000000000000000000000000000000000000000000000000008152508152602001602a81525060035f820151815f019081620000d5919062000359565b50602082015181600101555050348015620000ee575f80fd5b506200043d565b5f81519050919050565b7f4e487b71000000000000000000000000000000000000000000000000000000005f52604160045260245ffd5b7f4e487b71000000000000000000000000000000000000000000000000000000005f52602260045260245ffd5b5f60028204905060018216806200017157607f821691505b6020821081036200018757620001866200012c565b5b50919050565b5f819050815f5260205f209050919050565b5f6020601f8301049050919050565b5f82821b905092915050565b5f60088302620001eb7fffffffffffffffffffffffffffffffffffffffffffffffffffffffffffffffff82620001ae565b620001f78683620001ae565b95508019841693508086168417925050509392505050565b5f819050919050565b5f819050919050565b5f620002416200023b62000235846200020f565b62000218565b6200020f565b9050919050565b5f819050919050565b6200025c8362000221565b620002746200026b8262000248565b848454620001ba565b825550505050565b5f90565b6200028a6200027c565b6200029781848462000251565b505050565b5b81811015620002be57620002b25f8262000280565b6001810190506200029d565b5050565b601f8211156200030d57620002d7816200018d565b620002e2846200019f565b81016020851015620002f2578190505b6200030a62000301856200019f565b8301826200029c565b50505b505050565b5f82821c905092915050565b5f6200032f5f198460080262000312565b1980831691505092915050565b5f6200034983836200031e565b9150826002028217905092915050565b6200036482620000f5565b67ffffffffffffffff81111562000380576200037f620000ff565b5b6200038c825462000159565b62000399828285620002c2565b5f60209050601f831160018114620003cf575f8415620003ba578287015190505b620003c685826200033c565b86555062000435565b601f198416620003df866200018d565b5f5b828110156200040857848901518255600182019150602085019450602081019050620003e1565b8683101562000428578489015162000424601f8916826200031e565b8355505b6001600288020188555050505b505050505050565b610bea806200044b5f395ff3fe608060405234801561000f575f80fd5b5060043610610091575f3560e01c806390c3ee4d1161006457806390c3ee4d1461010a578063a2f9eac61461013a578063c2722ecc1461016b578063ca77ab6514610189578063cce3c857146101a757610091565b80631d9a3bdd1461009557806329ef62f0146100b1578063471f7cdf146100d05780635d0f9a88146100ee575b5f80fd5b6100af60048036038101906100aa919061050c565b6101c6565b005b6100b96101f0565b6040516100c79291906105d9565b60405180910390f35b6100d8610287565b6040516100e59190610616565b60405180910390f35b61010860048036038101906101039190610785565b61029e565b005b610124600480360381019061011f91906107df565b610322565b6040516101319190610826565b60405180910390f35b610154600480360381019061014f919061083f565b61034f565b6040516101629291906105d9565b60405180910390f35b610173610404565b6040516101809190610616565b60405180910390f35b61019161041f565b60405161019e9190610882565b60405180910390f35b6101af610427565b6040516101bd9291906105d9565b60405180910390f35b805f806101000a81548167ffffffffffffffff021916908367ffffffffffffffff16021790555050565b6003805f018054610200906108c8565b80601f016020809104026020016040519081016040528092919081815260200182805461022c906108c8565b80156102775780601f1061024e57610100808354040283529160200191610277565b820191905f5260205f20905b81548152906001019060200180831161025a57829003601f168201915b5050505050908060010154905082565b5f8054906101000a900467ffffffffffffffff1681565b6005604051806040016040528084815260200183815250908060018154018082558091505060019003905f5260205f2090600202015f909190919091505f820151815f0190816102ee9190610a95565b506020820151816001015550508060068360405161030c9190610b9e565b9081526020016040518091039020819055505050565b6006818051602081018201805184825260208301602085012081835280955050505050505f915090505481565b6005818154811061035e575f80fd5b905f5260205f2090600202015f91509050805f01805461037d906108c8565b80601f01602080910402602001604051908101604052809291908181526020018280546103a9906108c8565b80156103f45780601f106103cb576101008083540402835291602001916103f4565b820191905f5260205f20905b8154815290600101906020018083116103d757829003601f168201915b5050505050908060010154905082565b5f805f9054906101000a900467ffffffffffffffff16905090565b5f6064905090565b6001805f018054610437906108c8565b80601f0160208091040260200160405190810160405280929190818152602001828054610463906108c8565b80156104ae5780601f10610485576101008083540402835291602001916104ae565b820191905f5260205f20905b81548152906001019060200180831161049157829003601f168201915b5050505050908060010154905082565b5f604051905090565b5f80fd5b5f80fd5b5f67ffffffffffffffff82169050919050565b6104eb816104cf565b81146104f5575f80fd5b50565b5f81359050610506816104e2565b92915050565b5f60208284031215610521576105206104c7565b5b5f61052e848285016104f8565b91505092915050565b5f81519050919050565b5f82825260208201905092915050565b5f5b8381101561056e578082015181840152602081019050610553565b5f8484015250505050565b5f601f19601f8301169050919050565b5f61059382610537565b61059d8185610541565b93506105ad818560208601610551565b6105b681610579565b840191505092915050565b5f819050919050565b6105d3816105c1565b82525050565b5f6040820190508181035f8301526105f18185610589565b905061060060208301846105ca565b9392505050565b610610816104cf565b82525050565b5f6020820190506106295f830184610607565b92915050565b5f80fd5b5f80fd5b7f4e487b71000000000000000000000000000000000000000000000000000000005f52604160045260245ffd5b61066d82610579565b810181811067ffffffffffffffff8211171561068c5761068b610637565b5b80604052505050565b5f61069e6104be565b90506106aa8282610664565b919050565b5f67ffffffffffffffff8211156106c9576106c8610637565b5b6106d282610579565b9050602081019050919050565b828183375f83830152505050565b5f6106ff6106fa846106af565b610695565b90508281526020810184848401111561071b5761071a610633565b5b6107268482856106df565b509392505050565b5f82601f8301126107425761074161062f565b5b81356107528482602086016106ed565b91505092915050565b610764816105c1565b811461076e575f80fd5b50565b5f8135905061077f8161075b565b92915050565b5f806040838503121561079b5761079a6104c7565b5b5f83013567ffffffffffffffff8111156107b8576107b76104cb565b5b6107c48582860161072e565b92505060206107d585828601610771565b9150509250929050565b5f602082840312156107f4576107f36104c7565b5b5f82013567ffffffffffffffff811115610811576108106104cb565b5b61081d8482850161072e565b91505092915050565b5f6020820190506108395f8301846105ca565b92915050565b5f60208284031215610854576108536104c7565b5b5f61086184828501610771565b91505092915050565b5f819050919050565b61087c8161086a565b82525050565b5f6020820190506108955f830184610873565b92915050565b7f4e487b71000000000000000000000000000000000000000000000000000000005f52602260045260245ffd5b5f60028204905060018216806108df57607f821691505b6020821081036108f2576108f161089b565b5b50919050565b5f819050815f5260205f209050919050565b5f6020601f8301049050919050565b5f82821b905092915050565b5f600883026109547fffffffffffffffffffffffffffffffffffffffffffffffffffffffffffffffff82610919565b61095e8683610919565b95508019841693508086168417925050509392505050565b5f819050919050565b5f61099961099461098f846105c1565b610976565b6105c1565b9050919050565b5f819050919050565b6109b28361097f565b6109c66109be826109a0565b848454610925565b825550505050565b5f90565b6109da6109ce565b6109e58184846109a9565b505050565b5b81811015610a08576109fd5f826109d2565b6001810190506109eb565b5050565b601f821115610a4d57610a1e816108f8565b610a278461090a565b81016020851015610a36578190505b610a4a610a428561090a565b8301826109ea565b50505b505050565b5f82821c905092915050565b5f610a6d5f1984600802610a52565b1980831691505092915050565b5f610a858383610a5e565b9150826002028217905092915050565b610a9e82610537565b67ffffffffffffffff811115610ab757610ab6610637565b5b610ac182546108c8565b610acc828285610a0c565b5f60209050601f831160018114610afd575f8415610aeb578287015190505b610af58582610a7a565b865550610b5c565b601f198416610b0b866108f8565b5f5b82811015610b3257848901518255600182019150602085019450602081019050610b0d565b86831015610b4f5784890151610b4b601f891682610a5e565b8355505b6001600288020188555050505b505050505050565b5f81905092915050565b5f610b7882610537565b610b828185610b64565b9350610b92818560208601610551565b80840191505092915050565b5f610ba98284610b6e565b91508190509291505056fea2646970667358221220d7031c916d17e59575ba567f8b9696da7f1403b73d3f20768119ba3b5d7d034a64736f6c63430008180033",
			"opcodes": "PUSH1 0x80 PUSH1 0x40 MSTORE PUSH1 0x40 MLOAD DUP1 PUSH1 0x40 ADD PUSH1 0x40 MSTORE DUP1 PUSH1 0x40 MLOAD DUP1 PUSH1 0x40 ADD PUSH1 0x40 MSTORE DUP1 PUSH1 0x6 DUP2 MSTORE PUSH1 0x20 ADD PUSH32 0x64616E69656C0000000000000000000000000000000000000000000000000000 DUP2 MSTORE POP DUP2 MSTORE PUSH1 0x20 ADD PUSH1 0xA DUP2 MSTORE POP PUSH1 0x1 PUSH0 DUP3 ADD MLOAD DUP2 PUSH0 ADD SWAP1 DUP2 PUSH3 0x66 SWAP2 SWAP1 PUSH3 0x359 JUMP JUMPDEST POP PUSH1 0x20 DUP3 ADD MLOAD DUP2 PUSH1 0x1 ADD SSTORE POP POP PUSH1 0x40 MLOAD DUP1 PUSH1 0x40 ADD PUSH1 0x40 MSTORE DUP1 PUSH1 0x40 MLOAD DUP1 PUSH1 0x40 ADD PUSH1 0x40 MSTORE DUP1 PUSH1 0x5 DUP2 MSTORE PUSH1 0x20 ADD PUSH32 0x6572617A6F000000000000000000000000000000000000000000000000000000 DUP2 MSTORE POP DUP2 MSTORE PUSH1 0x20 ADD PUSH1 0x2A DUP2 MSTORE POP PUSH1 0x3 PUSH0 DUP3 ADD MLOAD DUP2 PUSH0 ADD SWAP1 DUP2 PUSH3 0xD5 SWAP2 SWAP1 PUSH3 0x359 JUMP JUMPDEST POP PUSH1 0x20 DUP3 ADD MLOAD DUP2 PUSH1 0x1 ADD SSTORE POP POP CALLVALUE DUP1 ISZERO PUSH3 0xEE JUMPI PUSH0 DUP1 REVERT JUMPDEST POP PUSH3 0x43D JUMP JUMPDEST PUSH0 DUP2 MLOAD SWAP1 POP SWAP2 SWAP1 POP JUMP JUMPDEST PUSH32 0x4E487B7100000000000000000000000000000000000000000000000000000000 PUSH0 MSTORE PUSH1 0x41 PUSH1 0x4 MSTORE PUSH1 0x24 PUSH0 REVERT JUMPDEST PUSH32 0x4E487B7100000000000000000000000000000000000000000000000000000000 PUSH0 MSTORE PUSH1 0x22 PUSH1 0x4 MSTORE PUSH1 0x24 PUSH0 REVERT JUMPDEST PUSH0 PUSH1 0x2 DUP3 DIV SWAP1 POP PUSH1 0x1 DUP3 AND DUP1 PUSH3 0x171 JUMPI PUSH1 0x7F DUP3 AND SWAP2 POP JUMPDEST PUSH1 0x20 DUP3 LT DUP2 SUB PUSH3 0x187 JUMPI PUSH3 0x186 PUSH3 0x12C JUMP JUMPDEST JUMPDEST POP SWAP2 SWAP1 POP JUMP JUMPDEST PUSH0 DUP2 SWAP1 POP DUP2 PUSH0 MSTORE PUSH1 0x20 PUSH0 KECCAK256 SWAP1 POP SWAP2 SWAP1 POP JUMP JUMPDEST PUSH0 PUSH1 0x20 PUSH1 0x1F DUP4 ADD DIV SWAP1 POP SWAP2 SWAP1 POP JUMP JUMPDEST PUSH0 DUP3 DUP3 SHL SWAP1 POP SWAP3 SWAP2 POP POP JUMP JUMPDEST PUSH0 PUSH1 0x8 DUP4 MUL PUSH3 0x1EB PUSH32 0xFFFFFFFFFFFFFFFFFFFFFFFFFFFFFFFFFFFFFFFFFFFFFFFFFFFFFFFFFFFFFFFF DUP3 PUSH3 0x1AE JUMP JUMPDEST PUSH3 0x1F7 DUP7 DUP4 PUSH3 0x1AE JUMP JUMPDEST SWAP6 POP DUP1 NOT DUP5 AND SWAP4 POP DUP1 DUP7 AND DUP5 OR SWAP3 POP POP POP SWAP4 SWAP3 POP POP POP JUMP JUMPDEST PUSH0 DUP2 SWAP1 POP SWAP2 SWAP1 POP JUMP JUMPDEST PUSH0 DUP2 SWAP1 POP SWAP2 SWAP1 POP JUMP JUMPDEST PUSH0 PUSH3 0x241 PUSH3 0x23B PUSH3 0x235 DUP5 PUSH3 0x20F JUMP JUMPDEST PUSH3 0x218 JUMP JUMPDEST PUSH3 0x20F JUMP JUMPDEST SWAP1 POP SWAP2 SWAP1 POP JUMP JUMPDEST PUSH0 DUP2 SWAP1 POP SWAP2 SWAP1 POP JUMP JUMPDEST PUSH3 0x25C DUP4 PUSH3 0x221 JUMP JUMPDEST PUSH3 0x274 PUSH3 0x26B DUP3 PUSH3 0x248 JUMP JUMPDEST DUP5 DUP5 SLOAD PUSH3 0x1BA JUMP JUMPDEST DUP3 SSTORE POP POP POP POP JUMP JUMPDEST PUSH0 SWAP1 JUMP JUMPDEST PUSH3 0x28A PUSH3 0x27C JUMP JUMPDEST PUSH3 0x297 DUP2 DUP5 DUP5 PUSH3 0x251 JUMP JUMPDEST POP POP POP JUMP JUMPDEST JUMPDEST DUP2 DUP2 LT ISZERO PUSH3 0x2BE JUMPI PUSH3 0x2B2 PUSH0 DUP3 PUSH3 0x280 JUMP JUMPDEST PUSH1 0x1 DUP2 ADD SWAP1 POP PUSH3 0x29D JUMP JUMPDEST POP POP JUMP JUMPDEST PUSH1 0x1F DUP3 GT ISZERO PUSH3 0x30D JUMPI PUSH3 0x2D7 DUP2 PUSH3 0x18D JUMP JUMPDEST PUSH3 0x2E2 DUP5 PUSH3 0x19F JUMP JUMPDEST DUP2 ADD PUSH1 0x20 DUP6 LT ISZERO PUSH3 0x2F2 JUMPI DUP2 SWAP1 POP JUMPDEST PUSH3 0x30A PUSH3 0x301 DUP6 PUSH3 0x19F JUMP JUMPDEST DUP4 ADD DUP3 PUSH3 0x29C JUMP JUMPDEST POP POP JUMPDEST POP POP POP JUMP JUMPDEST PUSH0 DUP3 DUP3 SHR SWAP1 POP SWAP3 SWAP2 POP POP JUMP JUMPDEST PUSH0 PUSH3 0x32F PUSH0 NOT DUP5 PUSH1 0x8 MUL PUSH3 0x312 JUMP JUMPDEST NOT DUP1 DUP4 AND SWAP2 POP POP SWAP3 SWAP2 POP POP JUMP JUMPDEST PUSH0 PUSH3 0x349 DUP4 DUP4 PUSH3 0x31E JUMP JUMPDEST SWAP2 POP DUP3 PUSH1 0x2 MUL DUP3 OR SWAP1 POP SWAP3 SWAP2 POP POP JUMP JUMPDEST PUSH3 0x364 DUP3 PUSH3 0xF5 JUMP JUMPDEST PUSH8 0xFFFFFFFFFFFFFFFF DUP2 GT ISZERO PUSH3 0x380 JUMPI PUSH3 0x37F PUSH3 0xFF JUMP JUMPDEST JUMPDEST PUSH3 0x38C DUP3 SLOAD PUSH3 0x159 JUMP JUMPDEST PUSH3 0x399 DUP3 DUP3 DUP6 PUSH3 0x2C2 JUMP JUMPDEST PUSH0 PUSH1 0x20 SWAP1 POP PUSH1 0x1F DUP4 GT PUSH1 0x1 DUP2 EQ PUSH3 0x3CF JUMPI PUSH0 DUP5 ISZERO PUSH3 0x3BA JUMPI DUP3 DUP8 ADD MLOAD SWAP1 POP JUMPDEST PUSH3 0x3C6 DUP6 DUP3 PUSH3 0x33C JUMP JUMPDEST DUP7 SSTORE POP PUSH3 0x435 JUMP JUMPDEST PUSH1 0x1F NOT DUP5 AND PUSH3 0x3DF DUP7 PUSH3 0x18D JUMP JUMPDEST PUSH0 JUMPDEST DUP3 DUP2 LT ISZERO PUSH3 0x408 JUMPI DUP5 DUP10 ADD MLOAD DUP3 SSTORE PUSH1 0x1 DUP3 ADD SWAP2 POP PUSH1 0x20 DUP6 ADD SWAP5 POP PUSH1 0x20 DUP2 ADD SWAP1 POP PUSH3 0x3E1 JUMP JUMPDEST DUP7 DUP4 LT ISZERO PUSH3 0x428 JUMPI DUP5 DUP10 ADD MLOAD PUSH3 0x424 PUSH1 0x1F DUP10 AND DUP3 PUSH3 0x31E JUMP JUMPDEST DUP4 SSTORE POP JUMPDEST PUSH1 0x1 PUSH1 0x2 DUP9 MUL ADD DUP9 SSTORE POP POP POP JUMPDEST POP POP POP POP POP POP JUMP JUMPDEST PUSH2 0xBEA DUP1 PUSH3 0x44B PUSH0 CODECOPY PUSH0 RETURN INVALID PUSH1 0x80 PUSH1 0x40 MSTORE CALLVALUE DUP1 ISZERO PUSH2 0xF JUMPI PUSH0 DUP1 REVERT JUMPDEST POP PUSH1 0x4 CALLDATASIZE LT PUSH2 0x91 JUMPI PUSH0 CALLDATALOAD PUSH1 0xE0 SHR DUP1 PUSH4 0x90C3EE4D GT PUSH2 0x64 JUMPI DUP1 PUSH4 0x90C3EE4D EQ PUSH2 0x10A JUMPI DUP1 PUSH4 0xA2F9EAC6 EQ PUSH2 0x13A JUMPI DUP1 PUSH4 0xC2722ECC EQ PUSH2 0x16B JUMPI DUP1 PUSH4 0xCA77AB65 EQ PUSH2 0x189 JUMPI DUP1 PUSH4 0xCCE3C857 EQ PUSH2 0x1A7 JUMPI PUSH2 0x91 JUMP JUMPDEST DUP1 PUSH4 0x1D9A3BDD EQ PUSH2 0x95 JUMPI DUP1 PUSH4 0x29EF62F0 EQ PUSH2 0xB1 JUMPI DUP1 PUSH4 0x471F7CDF EQ PUSH2 0xD0 JUMPI DUP1 PUSH4 0x5D0F9A88 EQ PUSH2 0xEE JUMPI JUMPDEST PUSH0 DUP1 REVERT JUMPDEST PUSH2 0xAF PUSH1 0x4 DUP1 CALLDATASIZE SUB DUP2 ADD SWAP1 PUSH2 0xAA SWAP2 SWAP1 PUSH2 0x50C JUMP JUMPDEST PUSH2 0x1C6 JUMP JUMPDEST STOP JUMPDEST PUSH2 0xB9 PUSH2 0x1F0 JUMP JUMPDEST PUSH1 0x40 MLOAD PUSH2 0xC7 SWAP3 SWAP2 SWAP1 PUSH2 0x5D9 JUMP JUMPDEST PUSH1 0x40 MLOAD DUP1 SWAP2 SUB SWAP1 RETURN JUMPDEST PUSH2 0xD8 PUSH2 0x287 JUMP JUMPDEST PUSH1 0x40 MLOAD PUSH2 0xE5 SWAP2 SWAP1 PUSH2 0x616 JUMP JUMPDEST PUSH1 0x40 MLOAD DUP1 SWAP2 SUB SWAP1 RETURN JUMPDEST PUSH2 0x108 PUSH1 0x4 DUP1 CALLDATASIZE SUB DUP2 ADD SWAP1 PUSH2 0x103 SWAP2 SWAP1 PUSH2 0x785 JUMP JUMPDEST PUSH2 0x29E JUMP JUMPDEST STOP JUMPDEST PUSH2 0x124 PUSH1 0x4 DUP1 CALLDATASIZE SUB DUP2 ADD SWAP1 PUSH2 0x11F SWAP2 SWAP1 PUSH2 0x7DF JUMP JUMPDEST PUSH2 0x322 JUMP JUMPDEST PUSH1 0x40 MLOAD PUSH2 0x131 SWAP2 SWAP1 PUSH2 0x826 JUMP JUMPDEST PUSH1 0x40 MLOAD DUP1 SWAP2 SUB SWAP1 RETURN JUMPDEST PUSH2 0x154 PUSH1 0x4 DUP1 CALLDATASIZE SUB DUP2 ADD SWAP1 PUSH2 0x14F SWAP2 SWAP1 PUSH2 0x83F JUMP JUMPDEST PUSH2 0x34F JUMP JUMPDEST PUSH1 0x40 MLOAD PUSH2 0x162 SWAP3 SWAP2 SWAP1 PUSH2 0x5D9 JUMP JUMPDEST PUSH1 0x40 MLOAD DUP1 SWAP2 SUB SWAP1 RETURN JUMPDEST PUSH2 0x173 PUSH2 0x404 JUMP JUMPDEST PUSH1 0x40 MLOAD PUSH2 0x180 SWAP2 SWAP1 PUSH2 0x616 JUMP JUMPDEST PUSH1 0x40 MLOAD DUP1 SWAP2 SUB SWAP1 RETURN JUMPDEST PUSH2 0x191 PUSH2 0x41F JUMP JUMPDEST PUSH1 0x40 MLOAD PUSH2 0x19E SWAP2 SWAP1 PUSH2 0x882 JUMP JUMPDEST PUSH1 0x40 MLOAD DUP1 SWAP2 SUB SWAP1 RETURN JUMPDEST PUSH2 0x1AF PUSH2 0x427 JUMP JUMPDEST PUSH1 0x40 MLOAD PUSH2 0x1BD SWAP3 SWAP2 SWAP1 PUSH2 0x5D9 JUMP JUMPDEST PUSH1 0x40 MLOAD DUP1 SWAP2 SUB SWAP1 RETURN JUMPDEST DUP1 PUSH0 DUP1 PUSH2 0x100 EXP DUP2 SLOAD DUP2 PUSH8 0xFFFFFFFFFFFFFFFF MUL NOT AND SWAP1 DUP4 PUSH8 0xFFFFFFFFFFFFFFFF AND MUL OR SWAP1 SSTORE POP POP JUMP JUMPDEST PUSH1 0x3 DUP1 PUSH0 ADD DUP1 SLOAD PUSH2 0x200 SWAP1 PUSH2 0x8C8 JUMP JUMPDEST DUP1 PUSH1 0x1F ADD PUSH1 0x20 DUP1 SWAP2 DIV MUL PUSH1 0x20 ADD PUSH1 0x40 MLOAD SWAP1 DUP2 ADD PUSH1 0x40 MSTORE DUP1 SWAP3 SWAP2 SWAP1 DUP2 DUP2 MSTORE PUSH1 0x20 ADD DUP3 DUP1 SLOAD PUSH2 0x22C SWAP1 PUSH2 0x8C8 JUMP JUMPDEST DUP1 ISZERO PUSH2 0x277 JUMPI DUP1 PUSH1 0x1F LT PUSH2 0x24E JUMPI PUSH2 0x100 DUP1 DUP4 SLOAD DIV MUL DUP4 MSTORE SWAP2 PUSH1 0x20 ADD SWAP2 PUSH2 0x277 JUMP JUMPDEST DUP3 ADD SWAP2 SWAP1 PUSH0 MSTORE PUSH1 0x20 PUSH0 KECCAK256 SWAP1 JUMPDEST DUP2 SLOAD DUP2 MSTORE SWAP1 PUSH1 0x1 ADD SWAP1 PUSH1 0x20 ADD DUP1 DUP4 GT PUSH2 0x25A JUMPI DUP3 SWAP1 SUB PUSH1 0x1F AND DUP3 ADD SWAP2 JUMPDEST POP POP POP POP POP SWAP1 DUP1 PUSH1 0x1 ADD SLOAD SWAP1 POP DUP3 JUMP JUMPDEST PUSH0 DUP1 SLOAD SWAP1 PUSH2 0x100 EXP SWAP1 DIV PUSH8 0xFFFFFFFFFFFFFFFF AND DUP2 JUMP JUMPDEST PUSH1 0x5 PUSH1 0x40 MLOAD DUP1 PUSH1 0x40 ADD PUSH1 0x40 MSTORE DUP1 DUP5 DUP2 MSTORE PUSH1 0x20 ADD DUP4 DUP2 MSTORE POP SWAP1 DUP1 PUSH1 0x1 DUP2 SLOAD ADD DUP1 DUP3 SSTORE DUP1 SWAP2 POP POP PUSH1 0x1 SWAP1 SUB SWAP1 PUSH0 MSTORE PUSH1 0x20 PUSH0 KECCAK256 SWAP1 PUSH1 0x2 MUL ADD PUSH0 SWAP1 SWAP2 SWAP1 SWAP2 SWAP1 SWAP2 POP PUSH0 DUP3 ADD MLOAD DUP2 PUSH0 ADD SWAP1 DUP2 PUSH2 0x2EE SWAP2 SWAP1 PUSH2 0xA95 JUMP JUMPDEST POP PUSH1 0x20 DUP3 ADD MLOAD DUP2 PUSH1 0x1 ADD SSTORE POP POP DUP1 PUSH1 0x6 DUP4 PUSH1 0x40 MLOAD PUSH2 0x30C SWAP2 SWAP1 PUSH2 0xB9E JUMP JUMPDEST SWAP1 DUP2 MSTORE PUSH1 0x20 ADD PUSH1 0x40 MLOAD DUP1 SWAP2 SUB SWAP1 KECCAK256 DUP2 SWAP1 SSTORE POP POP POP JUMP JUMPDEST PUSH1 0x6 DUP2 DUP1 MLOAD PUSH1 0x20 DUP2 ADD DUP3 ADD DUP1 MLOAD DUP5 DUP3 MSTORE PUSH1 0x20 DUP4 ADD PUSH1 0x20 DUP6 ADD KECCAK256 DUP2 DUP4 MSTORE DUP1 SWAP6 POP POP POP POP POP POP PUSH0 SWAP2 POP SWAP1 POP SLOAD DUP2 JUMP JUMPDEST PUSH1 0x5 DUP2 DUP2 SLOAD DUP2 LT PUSH2 0x35E JUMPI PUSH0 DUP1 REVERT JUMPDEST SWAP1 PUSH0 MSTORE PUSH1 0x20 PUSH0 KECCAK256 SWAP1 PUSH1 0x2 MUL ADD PUSH0 SWAP2 POP SWAP1 POP DUP1 PUSH0 ADD DUP1 SLOAD PUSH2 0x37D SWAP1 PUSH2 0x8C8 JUMP JUMPDEST DUP1 PUSH1 0x1F ADD PUSH1 0x20 DUP1 SWAP2 DIV MUL PUSH1 0x20 ADD PUSH1 0x40 MLOAD SWAP1 DUP2 ADD PUSH1 0x40 MSTORE DUP1 SWAP3 SWAP2 SWAP1 DUP2 DUP2 MSTORE PUSH1 0x20 ADD DUP3 DUP1 SLOAD PUSH2 0x3A9 SWAP1 PUSH2 0x8C8 JUMP JUMPDEST DUP1 ISZERO PUSH2 0x3F4 JUMPI DUP1 PUSH1 0x1F LT PUSH2 0x3CB JUMPI PUSH2 0x100 DUP1 DUP4 SLOAD DIV MUL DUP4 MSTORE SWAP2 PUSH1 0x20 ADD SWAP2 PUSH2 0x3F4 JUMP JUMPDEST DUP3 ADD SWAP2 SWAP1 PUSH0 MSTORE PUSH1 0x20 PUSH0 KECCAK256 SWAP1 JUMPDEST DUP2 SLOAD DUP2 MSTORE SWAP1 PUSH1 0x1 ADD SWAP1 PUSH1 0x20 ADD DUP1 DUP4 GT PUSH2 0x3D7 JUMPI DUP3 SWAP1 SUB PUSH1 0x1F AND DUP3 ADD SWAP2 JUMPDEST POP POP POP POP POP SWAP1 DUP1 PUSH1 0x1 ADD SLOAD SWAP1 POP DUP3 JUMP JUMPDEST PUSH0 DUP1 PUSH0 SWAP1 SLOAD SWAP1 PUSH2 0x100 EXP SWAP1 DIV PUSH8 0xFFFFFFFFFFFFFFFF AND SWAP1 POP SWAP1 JUMP JUMPDEST PUSH0 PUSH1 0x64 SWAP1 POP SWAP1 JUMP JUMPDEST PUSH1 0x1 DUP1 PUSH0 ADD DUP1 SLOAD PUSH2 0x437 SWAP1 PUSH2 0x8C8 JUMP JUMPDEST DUP1 PUSH1 0x1F ADD PUSH1 0x20 DUP1 SWAP2 DIV MUL PUSH1 0x20 ADD PUSH1 0x40 MLOAD SWAP1 DUP2 ADD PUSH1 0x40 MSTORE DUP1 SWAP3 SWAP2 SWAP1 DUP2 DUP2 MSTORE PUSH1 0x20 ADD DUP3 DUP1 SLOAD PUSH2 0x463 SWAP1 PUSH2 0x8C8 JUMP JUMPDEST DUP1 ISZERO PUSH2 0x4AE JUMPI DUP1 PUSH1 0x1F LT PUSH2 0x485 JUMPI PUSH2 0x100 DUP1 DUP4 SLOAD DIV MUL DUP4 MSTORE SWAP2 PUSH1 0x20 ADD SWAP2 PUSH2 0x4AE JUMP JUMPDEST DUP3 ADD SWAP2 SWAP1 PUSH0 MSTORE PUSH1 0x20 PUSH0 KECCAK256 SWAP1 JUMPDEST DUP2 SLOAD DUP2 MSTORE SWAP1 PUSH1 0x1 ADD SWAP1 PUSH1 0x20 ADD DUP1 DUP4 GT PUSH2 0x491 JUMPI DUP3 SWAP1 SUB PUSH1 0x1F AND DUP3 ADD SWAP2 JUMPDEST POP POP POP POP POP SWAP1 DUP1 PUSH1 0x1 ADD SLOAD SWAP1 POP DUP3 JUMP JUMPDEST PUSH0 PUSH1 0x40 MLOAD SWAP1 POP SWAP1 JUMP JUMPDEST PUSH0 DUP1 REVERT JUMPDEST PUSH0 DUP1 REVERT JUMPDEST PUSH0 PUSH8 0xFFFFFFFFFFFFFFFF DUP3 AND SWAP1 POP SWAP2 SWAP1 POP JUMP JUMPDEST PUSH2 0x4EB DUP2 PUSH2 0x4CF JUMP JUMPDEST DUP2 EQ PUSH2 0x4F5 JUMPI PUSH0 DUP1 REVERT JUMPDEST POP JUMP JUMPDEST PUSH0 DUP2 CALLDATALOAD SWAP1 POP PUSH2 0x506 DUP2 PUSH2 0x4E2 JUMP JUMPDEST SWAP3 SWAP2 POP POP JUMP JUMPDEST PUSH0 PUSH1 0x20 DUP3 DUP5 SUB SLT ISZERO PUSH2 0x521 JUMPI PUSH2 0x520 PUSH2 0x4C7 JUMP JUMPDEST JUMPDEST PUSH0 PUSH2 0x52E DUP5 DUP3 DUP6 ADD PUSH2 0x4F8 JUMP JUMPDEST SWAP2 POP POP SWAP3 SWAP2 POP POP JUMP JUMPDEST PUSH0 DUP2 MLOAD SWAP1 POP SWAP2 SWAP1 POP JUMP JUMPDEST PUSH0 DUP3 DUP3 MSTORE PUSH1 0x20 DUP3 ADD SWAP1 POP SWAP3 SWAP2 POP POP JUMP JUMPDEST PUSH0 JUMPDEST DUP4 DUP2 LT ISZERO PUSH2 0x56E JUMPI DUP1 DUP3 ADD MLOAD DUP2 DUP5 ADD MSTORE PUSH1 0x20 DUP2 ADD SWAP1 POP PUSH2 0x553 JUMP JUMPDEST PUSH0 DUP5 DUP5 ADD MSTORE POP POP POP POP JUMP JUMPDEST PUSH0 PUSH1 0x1F NOT PUSH1 0x1F DUP4 ADD AND SWAP1 POP SWAP2 SWAP1 POP JUMP JUMPDEST PUSH0 PUSH2 0x593 DUP3 PUSH2 0x537 JUMP JUMPDEST PUSH2 0x59D DUP2 DUP6 PUSH2 0x541 JUMP JUMPDEST SWAP4 POP PUSH2 0x5AD DUP2 DUP6 PUSH1 0x20 DUP7 ADD PUSH2 0x551 JUMP JUMPDEST PUSH2 0x5B6 DUP2 PUSH2 0x579 JUMP JUMPDEST DUP5 ADD SWAP2 POP POP SWAP3 SWAP2 POP POP JUMP JUMPDEST PUSH0 DUP2 SWAP1 POP SWAP2 SWAP1 POP JUMP JUMPDEST PUSH2 0x5D3 DUP2 PUSH2 0x5C1 JUMP JUMPDEST DUP3 MSTORE POP POP JUMP JUMPDEST PUSH0 PUSH1 0x40 DUP3 ADD SWAP1 POP DUP2 DUP2 SUB PUSH0 DUP4 ADD MSTORE PUSH2 0x5F1 DUP2 DUP6 PUSH2 0x589 JUMP JUMPDEST SWAP1 POP PUSH2 0x600 PUSH1 0x20 DUP4 ADD DUP5 PUSH2 0x5CA JUMP JUMPDEST SWAP4 SWAP3 POP POP POP JUMP JUMPDEST PUSH2 0x610 DUP2 PUSH2 0x4CF JUMP JUMPDEST DUP3 MSTORE POP POP JUMP JUMPDEST PUSH0 PUSH1 0x20 DUP3 ADD SWAP1 POP PUSH2 0x629 PUSH0 DUP4 ADD DUP5 PUSH2 0x607 JUMP JUMPDEST SWAP3 SWAP2 POP POP JUMP JUMPDEST PUSH0 DUP1 REVERT JUMPDEST PUSH0 DUP1 REVERT JUMPDEST PUSH32 0x4E487B7100000000000000000000000000000000000000000000000000000000 PUSH0 MSTORE PUSH1 0x41 PUSH1 0x4 MSTORE PUSH1 0x24 PUSH0 REVERT JUMPDEST PUSH2 0x66D DUP3 PUSH2 0x579 JUMP JUMPDEST DUP2 ADD DUP2 DUP2 LT PUSH8 0xFFFFFFFFFFFFFFFF DUP3 GT OR ISZERO PUSH2 0x68C JUMPI PUSH2 0x68B PUSH2 0x637 JUMP JUMPDEST JUMPDEST DUP1 PUSH1 0x40 MSTORE POP POP POP JUMP JUMPDEST PUSH0 PUSH2 0x69E PUSH2 0x4BE JUMP JUMPDEST SWAP1 POP PUSH2 0x6AA DUP3 DUP3 PUSH2 0x664 JUMP JUMPDEST SWAP2 SWAP1 POP JUMP JUMPDEST PUSH0 PUSH8 0xFFFFFFFFFFFFFFFF DUP3 GT ISZERO PUSH2 0x6C9 JUMPI PUSH2 0x6C8 PUSH2 0x637 JUMP JUMPDEST JUMPDEST PUSH2 0x6D2 DUP3 PUSH2 0x579 JUMP JUMPDEST SWAP1 POP PUSH1 0x20 DUP2 ADD SWAP1 POP SWAP2 SWAP1 POP JUMP JUMPDEST DUP3 DUP2 DUP4 CALLDATACOPY PUSH0 DUP4 DUP4 ADD MSTORE POP POP POP JUMP JUMPDEST PUSH0 PUSH2 0x6FF PUSH2 0x6FA DUP5 PUSH2 0x6AF JUMP JUMPDEST PUSH2 0x695 JUMP JUMPDEST SWAP1 POP DUP3 DUP2 MSTORE PUSH1 0x20 DUP2 ADD DUP5 DUP5 DUP5 ADD GT ISZERO PUSH2 0x71B JUMPI PUSH2 0x71A PUSH2 0x633 JUMP JUMPDEST JUMPDEST PUSH2 0x726 DUP5 DUP3 DUP6 PUSH2 0x6DF JUMP JUMPDEST POP SWAP4 SWAP3 POP POP POP JUMP JUMPDEST PUSH0 DUP3 PUSH1 0x1F DUP4 ADD SLT PUSH2 0x742 JUMPI PUSH2 0x741 PUSH2 0x62F JUMP JUMPDEST JUMPDEST DUP2 CALLDATALOAD PUSH2 0x752 DUP5 DUP3 PUSH1 0x20 DUP7 ADD PUSH2 0x6ED JUMP JUMPDEST SWAP2 POP POP SWAP3 SWAP2 POP POP JUMP JUMPDEST PUSH2 0x764 DUP2 PUSH2 0x5C1 JUMP JUMPDEST DUP2 EQ PUSH2 0x76E JUMPI PUSH0 DUP1 REVERT JUMPDEST POP JUMP JUMPDEST PUSH0 DUP2 CALLDATALOAD SWAP1 POP PUSH2 0x77F DUP2 PUSH2 0x75B JUMP JUMPDEST SWAP3 SWAP2 POP POP JUMP JUMPDEST PUSH0 DUP1 PUSH1 0x40 DUP4 DUP6 SUB SLT ISZERO PUSH2 0x79B JUMPI PUSH2 0x79A PUSH2 0x4C7 JUMP JUMPDEST JUMPDEST PUSH0 DUP4 ADD CALLDATALOAD PUSH8 0xFFFFFFFFFFFFFFFF DUP2 GT ISZERO PUSH2 0x7B8 JUMPI PUSH2 0x7B7 PUSH2 0x4CB JUMP JUMPDEST JUMPDEST PUSH2 0x7C4 DUP6 DUP3 DUP7 ADD PUSH2 0x72E JUMP JUMPDEST SWAP3 POP POP PUSH1 0x20 PUSH2 0x7D5 DUP6 DUP3 DUP7 ADD PUSH2 0x771 JUMP JUMPDEST SWAP2 POP POP SWAP3 POP SWAP3 SWAP1 POP JUMP JUMPDEST PUSH0 PUSH1 0x20 DUP3 DUP5 SUB SLT ISZERO PUSH2 0x7F4 JUMPI PUSH2 0x7F3 PUSH2 0x4C7 JUMP JUMPDEST JUMPDEST PUSH0 DUP3 ADD CALLDATALOAD PUSH8 0xFFFFFFFFFFFFFFFF DUP2 GT ISZERO PUSH2 0x811 JUMPI PUSH2 0x810 PUSH2 0x4CB JUMP JUMPDEST JUMPDEST PUSH2 0x81D DUP5 DUP3 DUP6 ADD PUSH2 0x72E JUMP JUMPDEST SWAP2 POP POP SWAP3 SWAP2 POP POP JUMP JUMPDEST PUSH0 PUSH1 0x20 DUP3 ADD SWAP1 POP PUSH2 0x839 PUSH0 DUP4 ADD DUP5 PUSH2 0x5CA JUMP JUMPDEST SWAP3 SWAP2 POP POP JUMP JUMPDEST PUSH0 PUSH1 0x20 DUP3 DUP5 SUB SLT ISZERO PUSH2 0x854 JUMPI PUSH2 0x853 PUSH2 0x4C7 JUMP JUMPDEST JUMPDEST PUSH0 PUSH2 0x861 DUP5 DUP3 DUP6 ADD PUSH2 0x771 JUMP JUMPDEST SWAP2 POP POP SWAP3 SWAP2 POP POP JUMP JUMPDEST PUSH0 DUP2 SWAP1 POP SWAP2 SWAP1 POP JUMP JUMPDEST PUSH2 0x87C DUP2 PUSH2 0x86A JUMP JUMPDEST DUP3 MSTORE POP POP JUMP JUMPDEST PUSH0 PUSH1 0x20 DUP3 ADD SWAP1 POP PUSH2 0x895 PUSH0 DUP4 ADD DUP5 PUSH2 0x873 JUMP JUMPDEST SWAP3 SWAP2 POP POP JUMP JUMPDEST PUSH32 0x4E487B7100000000000000000000000000000000000000000000000000000000 PUSH0 MSTORE PUSH1 0x22 PUSH1 0x4 MSTORE PUSH1 0x24 PUSH0 REVERT JUMPDEST PUSH0 PUSH1 0x2 DUP3 DIV SWAP1 POP PUSH1 0x1 DUP3 AND DUP1 PUSH2 0x8DF JUMPI PUSH1 0x7F DUP3 AND SWAP2 POP JUMPDEST PUSH1 0x20 DUP3 LT DUP2 SUB PUSH2 0x8F2 JUMPI PUSH2 0x8F1 PUSH2 0x89B JUMP JUMPDEST JUMPDEST POP SWAP2 SWAP1 POP JUMP JUMPDEST PUSH0 DUP2 SWAP1 POP DUP2 PUSH0 MSTORE PUSH1 0x20 PUSH0 KECCAK256 SWAP1 POP SWAP2 SWAP1 POP JUMP JUMPDEST PUSH0 PUSH1 0x20 PUSH1 0x1F DUP4 ADD DIV SWAP1 POP SWAP2 SWAP1 POP JUMP JUMPDEST PUSH0 DUP3 DUP3 SHL SWAP1 POP SWAP3 SWAP2 POP POP JUMP JUMPDEST PUSH0 PUSH1 0x8 DUP4 MUL PUSH2 0x954 PUSH32 0xFFFFFFFFFFFFFFFFFFFFFFFFFFFFFFFFFFFFFFFFFFFFFFFFFFFFFFFFFFFFFFFF DUP3 PUSH2 0x919 JUMP JUMPDEST PUSH2 0x95E DUP7 DUP4 PUSH2 0x919 JUMP JUMPDEST SWAP6 POP DUP1 NOT DUP5 AND SWAP4 POP DUP1 DUP7 AND DUP5 OR SWAP3 POP POP POP SWAP4 SWAP3 POP POP POP JUMP JUMPDEST PUSH0 DUP2 SWAP1 POP SWAP2 SWAP1 POP JUMP JUMPDEST PUSH0 PUSH2 0x999 PUSH2 0x994 PUSH2 0x98F DUP5 PUSH2 0x5C1 JUMP JUMPDEST PUSH2 0x976 JUMP JUMPDEST PUSH2 0x5C1 JUMP JUMPDEST SWAP1 POP SWAP2 SWAP1 POP JUMP JUMPDEST PUSH0 DUP2 SWAP1 POP SWAP2 SWAP1 POP JUMP JUMPDEST PUSH2 0x9B2 DUP4 PUSH2 0x97F JUMP JUMPDEST PUSH2 0x9C6 PUSH2 0x9BE DUP3 PUSH2 0x9A0 JUMP JUMPDEST DUP5 DUP5 SLOAD PUSH2 0x925 JUMP JUMPDEST DUP3 SSTORE POP POP POP POP JUMP JUMPDEST PUSH0 SWAP1 JUMP JUMPDEST PUSH2 0x9DA PUSH2 0x9CE JUMP JUMPDEST PUSH2 0x9E5 DUP2 DUP5 DUP5 PUSH2 0x9A9 JUMP JUMPDEST POP POP POP JUMP JUMPDEST JUMPDEST DUP2 DUP2 LT ISZERO PUSH2 0xA08 JUMPI PUSH2 0x9FD PUSH0 DUP3 PUSH2 0x9D2 JUMP JUMPDEST PUSH1 0x1 DUP2 ADD SWAP1 POP PUSH2 0x9EB JUMP JUMPDEST POP POP JUMP JUMPDEST PUSH1 0x1F DUP3 GT ISZERO PUSH2 0xA4D JUMPI PUSH2 0xA1E DUP2 PUSH2 0x8F8 JUMP JUMPDEST PUSH2 0xA27 DUP5 PUSH2 0x90A JUMP JUMPDEST DUP2 ADD PUSH1 0x20 DUP6 LT ISZERO PUSH2 0xA36 JUMPI DUP2 SWAP1 POP JUMPDEST PUSH2 0xA4A PUSH2 0xA42 DUP6 PUSH2 0x90A JUMP JUMPDEST DUP4 ADD DUP3 PUSH2 0x9EA JUMP JUMPDEST POP POP JUMPDEST POP POP POP JUMP JUMPDEST PUSH0 DUP3 DUP3 SHR SWAP1 POP SWAP3 SWAP2 POP POP JUMP JUMPDEST PUSH0 PUSH2 0xA6D PUSH0 NOT DUP5 PUSH1 0x8 MUL PUSH2 0xA52 JUMP JUMPDEST NOT DUP1 DUP4 AND SWAP2 POP POP SWAP3 SWAP2 POP POP JUMP JUMPDEST PUSH0 PUSH2 0xA85 DUP4 DUP4 PUSH2 0xA5E JUMP JUMPDEST SWAP2 POP DUP3 PUSH1 0x2 MUL DUP3 OR SWAP1 POP SWAP3 SWAP2 POP POP JUMP JUMPDEST PUSH2 0xA9E DUP3 PUSH2 0x537 JUMP JUMPDEST PUSH8 0xFFFFFFFFFFFFFFFF DUP2 GT ISZERO PUSH2 0xAB7 JUMPI PUSH2 0xAB6 PUSH2 0x637 JUMP JUMPDEST JUMPDEST PUSH2 0xAC1 DUP3 SLOAD PUSH2 0x8C8 JUMP JUMPDEST PUSH2 0xACC DUP3 DUP3 DUP6 PUSH2 0xA0C JUMP JUMPDEST PUSH0 PUSH1 0x20 SWAP1 POP PUSH1 0x1F DUP4 GT PUSH1 0x1 DUP2 EQ PUSH2 0xAFD JUMPI PUSH0 DUP5 ISZERO PUSH2 0xAEB JUMPI DUP3 DUP8 ADD MLOAD SWAP1 POP JUMPDEST PUSH2 0xAF5 DUP6 DUP3 PUSH2 0xA7A JUMP JUMPDEST DUP7 SSTORE POP PUSH2 0xB5C JUMP JUMPDEST PUSH1 0x1F NOT DUP5 AND PUSH2 0xB0B DUP7 PUSH2 0x8F8 JUMP JUMPDEST PUSH0 JUMPDEST DUP3 DUP2 LT ISZERO PUSH2 0xB32 JUMPI DUP5 DUP10 ADD MLOAD DUP3 SSTORE PUSH1 0x1 DUP3 ADD SWAP2 POP PUSH1 0x20 DUP6 ADD SWAP5 POP PUSH1 0x20 DUP2 ADD SWAP1 POP PUSH2 0xB0D JUMP JUMPDEST DUP7 DUP4 LT ISZERO PUSH2 0xB4F JUMPI DUP5 DUP10 ADD MLOAD PUSH2 0xB4B PUSH1 0x1F DUP10 AND DUP3 PUSH2 0xA5E JUMP JUMPDEST DUP4 SSTORE POP JUMPDEST PUSH1 0x1 PUSH1 0x2 DUP9 MUL ADD DUP9 SSTORE POP POP POP JUMPDEST POP POP POP POP POP POP JUMP JUMPDEST PUSH0 DUP2 SWAP1 POP SWAP3 SWAP2 POP POP JUMP JUMPDEST PUSH0 PUSH2 0xB78 DUP3 PUSH2 0x537 JUMP JUMPDEST PUSH2 0xB82 DUP2 DUP6 PUSH2 0xB64 JUMP JUMPDEST SWAP4 POP PUSH2 0xB92 DUP2 DUP6 PUSH1 0x20 DUP7 ADD PUSH2 0x551 JUMP JUMPDEST DUP1 DUP5 ADD SWAP2 POP POP SWAP3 SWAP2 POP POP JUMP JUMPDEST PUSH0 PUSH2 0xBA9 DUP3 DUP5 PUSH2 0xB6E JUMP JUMPDEST SWAP2 POP DUP2 SWAP1 POP SWAP3 SWAP2 POP POP JUMP INVALID LOG2 PUSH5 0x6970667358 0x22 SLT KECCAK256 0xD7 SUB SHR SWAP2 PUSH14 0x17E59575BA567F8B9696DA7F1403 0xB7 RETURNDATASIZE EXTCODEHASH KECCAK256 PUSH23 0x8119BA3B5D7D034A64736F6C6343000818003300000000 "
		},
		"gasEstimates": {
			"creation": {
				"codeDepositCost": "610000",
				"executionCost": "infinite",
				"totalCost": "infinite"
			},
			"external": {
				"calculate()": "398",
				"daniel()": "infinite",
				"erazo()": "infinite",
				"favoriteNumber()": "2508",
				"getStore()": "2517",
				"nameToAge(string)": "infinite",
				"persons(uint256)": "infinite",
				"pushPerson(string,uint256)": "infinite",
				"store(uint64)": "24674"
			}
		},
		"methodIdentifiers": {
			"calculate()": "ca77ab65",
			"daniel()": "cce3c857",
			"erazo()": "29ef62f0",
			"favoriteNumber()": "471f7cdf",
			"getStore()": "c2722ecc",
			"nameToAge(string)": "90c3ee4d",
			"persons(uint256)": "a2f9eac6",
			"pushPerson(string,uint256)": "5d0f9a88",
			"store(uint64)": "1d9a3bdd"
		}
	},
	"abi": [
		{
			"inputs": [],
			"name": "calculate",
			"outputs": [
				{
					"internalType": "int256",
					"name": "",
					"type": "int256"
				}
			],
			"stateMutability": "pure",
			"type": "function"
		},
		{
			"inputs": [],
			"name": "daniel",
			"outputs": [
				{
					"internalType": "string",
					"name": "name",
					"type": "string"
				},
				{
					"internalType": "uint256",
					"name": "age",
					"type": "uint256"
				}
			],
			"stateMutability": "view",
			"type": "function"
		},
		{
			"inputs": [],
			"name": "erazo",
			"outputs": [
				{
					"internalType": "string",
					"name": "name",
					"type": "string"
				},
				{
					"internalType": "uint256",
					"name": "age",
					"type": "uint256"
				}
			],
			"stateMutability": "view",
			"type": "function"
		},
		{
			"inputs": [],
			"name": "favoriteNumber",
			"outputs": [
				{
					"internalType": "uint64",
					"name": "",
					"type": "uint64"
				}
			],
			"stateMutability": "view",
			"type": "function"
		},
		{
			"inputs": [],
			"name": "getStore",
			"outputs": [
				{
					"internalType": "uint64",
					"name": "",
					"type": "uint64"
				}
			],
			"stateMutability": "view",
			"type": "function"
		},
		{
			"inputs": [
				{
					"internalType": "string",
					"name": "",
					"type": "string"
				}
			],
			"name": "nameToAge",
			"outputs": [
				{
					"internalType": "uint256",
					"name": "",
					"type": "uint256"
				}
			],
			"stateMutability": "view",
			"type": "function"
		},
		{
			"inputs": [
				{
					"internalType": "uint256",
					"name": "",
					"type": "uint256"
				}
			],
			"name": "persons",
			"outputs": [
				{
					"internalType": "string",
					"name": "name",
					"type": "string"
				},
				{
					"internalType": "uint256",
					"name": "age",
					"type": "uint256"
				}
			],
			"stateMutability": "view",
			"type": "function"
		},
		{
			"inputs": [
				{
					"internalType": "string",
					"name": "_name",
					"type": "string"
				},
				{
					"internalType": "uint256",
					"name": "_age",
					"type": "uint256"
				}
			],
			"name": "pushPerson",
			"outputs": [],
			"stateMutability": "nonpayable",
			"type": "function"
		},
		{
			"inputs": [
				{
					"internalType": "uint64",
					"name": "_favoriteNumber",
					"type": "uint64"
				}
			],
			"name": "store",
			"outputs": [],
			"stateMutability": "nonpayable",
			"type": "function"
		}
	]
}